{
  "_format": "hh-sol-artifact-1",
  "contractName": "EasyToken",
  "sourceName": "contracts/EasyToken.sol",
  "abi": [
    {
      "inputs": [],
      "stateMutability": "nonpayable",
      "type": "constructor"
    },
    {
      "inputs": [
        {
          "internalType": "address",
          "name": "spender",
          "type": "address"
        },
        {
          "internalType": "uint256",
          "name": "allowance",
          "type": "uint256"
        },
        {
          "internalType": "uint256",
          "name": "needed",
          "type": "uint256"
        }
      ],
      "name": "ERC20InsufficientAllowance",
      "type": "error"
    },
    {
      "inputs": [
        {
          "internalType": "address",
          "name": "sender",
          "type": "address"
        },
        {
          "internalType": "uint256",
          "name": "balance",
          "type": "uint256"
        },
        {
          "internalType": "uint256",
          "name": "needed",
          "type": "uint256"
        }
      ],
      "name": "ERC20InsufficientBalance",
      "type": "error"
    },
    {
      "inputs": [
        {
          "internalType": "address",
          "name": "approver",
          "type": "address"
        }
      ],
      "name": "ERC20InvalidApprover",
      "type": "error"
    },
    {
      "inputs": [
        {
          "internalType": "address",
          "name": "receiver",
          "type": "address"
        }
      ],
      "name": "ERC20InvalidReceiver",
      "type": "error"
    },
    {
      "inputs": [
        {
          "internalType": "address",
          "name": "sender",
          "type": "address"
        }
      ],
      "name": "ERC20InvalidSender",
      "type": "error"
    },
    {
      "inputs": [
        {
          "internalType": "address",
          "name": "spender",
          "type": "address"
        }
      ],
      "name": "ERC20InvalidSpender",
      "type": "error"
    },
    {
      "inputs": [
        {
          "internalType": "address",
          "name": "owner",
          "type": "address"
        }
      ],
      "name": "OwnableInvalidOwner",
      "type": "error"
    },
    {
      "inputs": [
        {
          "internalType": "address",
          "name": "account",
          "type": "address"
        }
      ],
      "name": "OwnableUnauthorizedAccount",
      "type": "error"
    },
    {
      "anonymous": false,
      "inputs": [
        {
          "indexed": true,
          "internalType": "address",
          "name": "owner",
          "type": "address"
        },
        {
          "indexed": true,
          "internalType": "address",
          "name": "spender",
          "type": "address"
        },
        {
          "indexed": false,
          "internalType": "uint256",
          "name": "value",
          "type": "uint256"
        }
      ],
      "name": "Approval",
      "type": "event"
    },
    {
      "anonymous": false,
      "inputs": [
        {
          "indexed": true,
          "internalType": "address",
          "name": "previousOwner",
          "type": "address"
        },
        {
          "indexed": true,
          "internalType": "address",
          "name": "newOwner",
          "type": "address"
        }
      ],
      "name": "OwnershipTransferred",
      "type": "event"
    },
    {
      "anonymous": false,
      "inputs": [
        {
          "indexed": true,
          "internalType": "address",
          "name": "from",
          "type": "address"
        },
        {
          "indexed": true,
          "internalType": "address",
          "name": "to",
          "type": "address"
        },
        {
          "indexed": false,
          "internalType": "uint256",
          "name": "value",
          "type": "uint256"
        }
      ],
      "name": "Transfer",
      "type": "event"
    },
    {
      "inputs": [],
      "name": "CLAIM_AMOUNT",
      "outputs": [
        {
          "internalType": "uint256",
          "name": "",
          "type": "uint256"
        }
      ],
      "stateMutability": "view",
      "type": "function"
    },
    {
      "inputs": [
        {
          "internalType": "address",
          "name": "owner",
          "type": "address"
        },
        {
          "internalType": "address",
          "name": "spender",
          "type": "address"
        }
      ],
      "name": "allowance",
      "outputs": [
        {
          "internalType": "uint256",
          "name": "",
          "type": "uint256"
        }
      ],
      "stateMutability": "view",
      "type": "function"
    },
    {
      "inputs": [
        {
          "internalType": "address",
          "name": "spender",
          "type": "address"
        },
        {
          "internalType": "uint256",
          "name": "value",
          "type": "uint256"
        }
      ],
      "name": "approve",
      "outputs": [
        {
          "internalType": "bool",
          "name": "",
          "type": "bool"
        }
      ],
      "stateMutability": "nonpayable",
      "type": "function"
    },
    {
      "inputs": [
        {
          "internalType": "address",
          "name": "account",
          "type": "address"
        }
      ],
      "name": "balanceOf",
      "outputs": [
        {
          "internalType": "uint256",
          "name": "",
          "type": "uint256"
        }
      ],
      "stateMutability": "view",
      "type": "function"
    },
    {
      "inputs": [],
      "name": "claim",
      "outputs": [],
      "stateMutability": "nonpayable",
      "type": "function"
    },
    {
      "inputs": [],
      "name": "decimals",
      "outputs": [
        {
          "internalType": "uint8",
          "name": "",
          "type": "uint8"
        }
      ],
      "stateMutability": "view",
      "type": "function"
    },
    {
      "inputs": [
        {
          "internalType": "address",
          "name": "",
          "type": "address"
        }
      ],
      "name": "hasClaimed",
      "outputs": [
        {
          "internalType": "bool",
          "name": "",
          "type": "bool"
        }
      ],
      "stateMutability": "view",
      "type": "function"
    },
    {
      "inputs": [],
      "name": "name",
      "outputs": [
        {
          "internalType": "string",
          "name": "",
          "type": "string"
        }
      ],
      "stateMutability": "view",
      "type": "function"
    },
    {
      "inputs": [],
      "name": "owner",
      "outputs": [
        {
          "internalType": "address",
          "name": "",
          "type": "address"
        }
      ],
      "stateMutability": "view",
      "type": "function"
    },
    {
      "inputs": [],
      "name": "renounceOwnership",
      "outputs": [],
      "stateMutability": "nonpayable",
      "type": "function"
    },
    {
      "inputs": [],
      "name": "symbol",
      "outputs": [
        {
          "internalType": "string",
          "name": "",
          "type": "string"
        }
      ],
      "stateMutability": "view",
      "type": "function"
    },
    {
      "inputs": [],
      "name": "totalSupply",
      "outputs": [
        {
          "internalType": "uint256",
          "name": "",
          "type": "uint256"
        }
      ],
      "stateMutability": "view",
      "type": "function"
    },
    {
      "inputs": [
        {
          "internalType": "address",
          "name": "to",
          "type": "address"
        },
        {
          "internalType": "uint256",
          "name": "value",
          "type": "uint256"
        }
      ],
      "name": "transfer",
      "outputs": [
        {
          "internalType": "bool",
          "name": "",
          "type": "bool"
        }
      ],
      "stateMutability": "nonpayable",
      "type": "function"
    },
    {
      "inputs": [
        {
          "internalType": "address",
          "name": "from",
          "type": "address"
        },
        {
          "internalType": "address",
          "name": "to",
          "type": "address"
        },
        {
          "internalType": "uint256",
          "name": "value",
          "type": "uint256"
        }
      ],
      "name": "transferFrom",
      "outputs": [
        {
          "internalType": "bool",
          "name": "",
          "type": "bool"
        }
      ],
      "stateMutability": "nonpayable",
      "type": "function"
    },
    {
      "inputs": [
        {
          "internalType": "address",
          "name": "newOwner",
          "type": "address"
        }
      ],
      "name": "transferOwnership",
      "outputs": [],
      "stateMutability": "nonpayable",
      "type": "function"
    }
  ],
  "bytecode": "0x60806040523480156200001157600080fd5b50336040518060400160405280600981526020016822b0b9bcaa37b5b2b760b91b8152506040518060400160405280600381526020016211569560ea1b8152508160039081620000629190620001ac565b506004620000718282620001ac565b5050506001600160a01b038116620000a357604051631e4fbdf760e01b81526000600482015260240160405180910390fd5b620000ae81620000b5565b5062000278565b600580546001600160a01b038381166001600160a01b0319831681179093556040519116919082907f8be0079c531659141344cd1fd0a4f28419497f9722a3daafe3b4186f6b6457e090600090a35050565b634e487b7160e01b600052604160045260246000fd5b600181811c908216806200013257607f821691505b6020821081036200015357634e487b7160e01b600052602260045260246000fd5b50919050565b601f821115620001a757600081815260208120601f850160051c81016020861015620001825750805b601f850160051c820191505b81811015620001a3578281556001016200018e565b5050505b505050565b81516001600160401b03811115620001c857620001c862000107565b620001e081620001d984546200011d565b8462000159565b602080601f831160018114620002185760008415620001ff5750858301515b600019600386901b1c1916600185901b178555620001a3565b600085815260208120601f198616915b82811015620002495788860151825594840194600190910190840162000228565b5085821015620002685787850151600019600388901b60f8161c191681555b5050505050600190811b01905550565b61098280620002886000396000f3fe608060405234801561001057600080fd5b50600436106100f55760003560e01c806370a082311161009757806395d89b411161006657806395d89b41146101f9578063a9059cbb14610201578063dd62ed3e14610214578063f2fde38b1461024d57600080fd5b806370a082311461018a578063715018a6146101b357806373b2e80e146101bb5780638da5cb5b146101de57600080fd5b806323b872dd116100d357806323b872dd1461014d578063270ef38514610160578063313ce567146101715780634e71d92d1461018057600080fd5b806306fdde03146100fa578063095ea7b31461011857806318160ddd1461013b575b600080fd5b610102610260565b60405161010f91906107cc565b60405180910390f35b61012b610126366004610836565b6102f2565b604051901515815260200161010f565b6002545b60405190815260200161010f565b61012b61015b366004610860565b61030c565b61013f69152d02c7e14af680000081565b6040516012815260200161010f565b610188610330565b005b61013f61019836600461089c565b6001600160a01b031660009081526020819052604090205490565b6101886103b7565b61012b6101c936600461089c565b60066020526000908152604090205460ff1681565b6005546040516001600160a01b03909116815260200161010f565b6101026103c9565b61012b61020f366004610836565b6103d8565b61013f6102223660046108be565b6001600160a01b03918216600090815260016020908152604080832093909416825291909152205490565b61018861025b36600461089c565b6103e6565b60606003805461026f906108f1565b80601f016020809104026020016040519081016040528092919081815260200182805461029b906108f1565b80156102e85780601f106102bd576101008083540402835291602001916102e8565b820191906000526020600020905b8154815290600101906020018083116102cb57829003601f168201915b5050505050905090565b600033610300818585610424565b60019150505b92915050565b60003361031a858285610436565b6103258585856104b5565b506001949350505050565b3360009081526006602052604090205460ff16156103875760405162461bcd60e51b815260206004820152600f60248201526e105b1c9958591e4818db185a5b5959608a1b60448201526064015b60405180910390fd5b336000818152600660205260409020805460ff191660011790556103b59069152d02c7e14af6800000610514565b565b6103bf61054e565b6103b5600061057b565b60606004805461026f906108f1565b6000336103008185856104b5565b6103ee61054e565b6001600160a01b03811661041857604051631e4fbdf760e01b81526000600482015260240161037e565b6104218161057b565b50565b61043183838360016105cd565b505050565b6001600160a01b038381166000908152600160209081526040808320938616835292905220546000198110156104af57818110156104a057604051637dc7a0d960e11b81526001600160a01b0384166004820152602481018290526044810183905260640161037e565b6104af848484840360006105cd565b50505050565b6001600160a01b0383166104df57604051634b637e8f60e11b81526000600482015260240161037e565b6001600160a01b0382166105095760405163ec442f0560e01b81526000600482015260240161037e565b6104318383836106a2565b6001600160a01b03821661053e5760405163ec442f0560e01b81526000600482015260240161037e565b61054a600083836106a2565b5050565b6005546001600160a01b031633146103b55760405163118cdaa760e01b815233600482015260240161037e565b600580546001600160a01b038381166001600160a01b0319831681179093556040519116919082907f8be0079c531659141344cd1fd0a4f28419497f9722a3daafe3b4186f6b6457e090600090a35050565b6001600160a01b0384166105f75760405163e602df0560e01b81526000600482015260240161037e565b6001600160a01b03831661062157604051634a1406b160e11b81526000600482015260240161037e565b6001600160a01b03808516600090815260016020908152604080832093871683529290522082905580156104af57826001600160a01b0316846001600160a01b03167f8c5be1e5ebec7d5bd14f71427d1e84f3dd0314c0f7b2291e5b200ac8c7c3b9258460405161069491815260200190565b60405180910390a350505050565b6001600160a01b0383166106cd5780600260008282546106c2919061092b565b9091555061073f9050565b6001600160a01b038316600090815260208190526040902054818110156107205760405163391434e360e21b81526001600160a01b0385166004820152602481018290526044810183905260640161037e565b6001600160a01b03841660009081526020819052604090209082900390555b6001600160a01b03821661075b5760028054829003905561077a565b6001600160a01b03821660009081526020819052604090208054820190555b816001600160a01b0316836001600160a01b03167fddf252ad1be2c89b69c2b068fc378daa952ba7f163c4a11628f55a4df523b3ef836040516107bf91815260200190565b60405180910390a3505050565b600060208083528351808285015260005b818110156107f9578581018301518582016040015282016107dd565b506000604082860101526040601f19601f8301168501019250505092915050565b80356001600160a01b038116811461083157600080fd5b919050565b6000806040838503121561084957600080fd5b6108528361081a565b946020939093013593505050565b60008060006060848603121561087557600080fd5b61087e8461081a565b925061088c6020850161081a565b9150604084013590509250925092565b6000602082840312156108ae57600080fd5b6108b78261081a565b9392505050565b600080604083850312156108d157600080fd5b6108da8361081a565b91506108e86020840161081a565b90509250929050565b600181811c9082168061090557607f821691505b60208210810361092557634e487b7160e01b600052602260045260246000fd5b50919050565b8082018082111561030657634e487b7160e01b600052601160045260246000fdfea2646970667358221220a16cd1bca8727c011b95442a35be3422130874efcad00243a1c880f3332b293b64736f6c63430008140033",
  "linkReferences": {},
  "deployedLinkReferences": {}
}