{
  "_format": "hh-sol-artifact-1",
  "contractName": "EasyBet",
  "sourceName": "contracts/EasyBet.sol",
  "abi": [
    {
      "inputs": [
        {
          "internalType": "address",
          "name": "admin",
          "type": "address"
        },
        {
          "internalType": "address",
          "name": "_easyToken",
          "type": "address"
        }
      ],
      "stateMutability": "nonpayable",
      "type": "constructor"
    },
    {
      "inputs": [],
      "name": "AccessControlBadConfirmation",
      "type": "error"
    },
    {
      "inputs": [
        {
          "internalType": "address",
          "name": "account",
          "type": "address"
        },
        {
          "internalType": "bytes32",
          "name": "neededRole",
          "type": "bytes32"
        }
      ],
      "name": "AccessControlUnauthorizedAccount",
      "type": "error"
    },
    {
      "inputs": [],
      "name": "ReentrancyGuardReentrantCall",
      "type": "error"
    },
    {
      "anonymous": false,
      "inputs": [
        {
          "indexed": true,
          "internalType": "uint256",
          "name": "tokenId",
          "type": "uint256"
        },
        {
          "indexed": false,
          "internalType": "address",
          "name": "seller",
          "type": "address"
        },
        {
          "indexed": false,
          "internalType": "address",
          "name": "buyer",
          "type": "address"
        },
        {
          "indexed": false,
          "internalType": "uint256",
          "name": "priceWei",
          "type": "uint256"
        }
      ],
      "name": "Bought",
      "type": "event"
    },
    {
      "anonymous": false,
      "inputs": [
        {
          "indexed": true,
          "internalType": "uint256",
          "name": "tokenId",
          "type": "uint256"
        },
        {
          "indexed": false,
          "internalType": "address",
          "name": "claimer",
          "type": "address"
        },
        {
          "indexed": false,
          "internalType": "uint256",
          "name": "amountTokens",
          "type": "uint256"
        }
      ],
      "name": "Claimed",
      "type": "event"
    },
    {
      "anonymous": false,
      "inputs": [
        {
          "indexed": true,
          "internalType": "uint256",
          "name": "tokenId",
          "type": "uint256"
        },
        {
          "indexed": false,
          "internalType": "address",
          "name": "seller",
          "type": "address"
        },
        {
          "indexed": false,
          "internalType": "uint256",
          "name": "priceWei",
          "type": "uint256"
        }
      ],
      "name": "Listed",
      "type": "event"
    },
    {
      "anonymous": false,
      "inputs": [
        {
          "indexed": true,
          "internalType": "uint256",
          "name": "marketId",
          "type": "uint256"
        },
        {
          "indexed": false,
          "internalType": "string",
          "name": "title",
          "type": "string"
        },
        {
          "indexed": false,
          "internalType": "uint256",
          "name": "prizePoolTokens",
          "type": "uint256"
        }
      ],
      "name": "MarketCreated",
      "type": "event"
    },
    {
      "anonymous": false,
      "inputs": [
        {
          "indexed": true,
          "internalType": "uint256",
          "name": "marketId",
          "type": "uint256"
        },
        {
          "indexed": false,
          "internalType": "uint8",
          "name": "winningOption",
          "type": "uint8"
        },
        {
          "indexed": false,
          "internalType": "uint256",
          "name": "winners",
          "type": "uint256"
        },
        {
          "indexed": false,
          "internalType": "uint256",
          "name": "payoutPerTicketTokens",
          "type": "uint256"
        }
      ],
      "name": "MarketResolved",
      "type": "event"
    },
    {
      "anonymous": false,
      "inputs": [
        {
          "indexed": true,
          "internalType": "bytes32",
          "name": "role",
          "type": "bytes32"
        },
        {
          "indexed": true,
          "internalType": "bytes32",
          "name": "previousAdminRole",
          "type": "bytes32"
        },
        {
          "indexed": true,
          "internalType": "bytes32",
          "name": "newAdminRole",
          "type": "bytes32"
        }
      ],
      "name": "RoleAdminChanged",
      "type": "event"
    },
    {
      "anonymous": false,
      "inputs": [
        {
          "indexed": true,
          "internalType": "bytes32",
          "name": "role",
          "type": "bytes32"
        },
        {
          "indexed": true,
          "internalType": "address",
          "name": "account",
          "type": "address"
        },
        {
          "indexed": true,
          "internalType": "address",
          "name": "sender",
          "type": "address"
        }
      ],
      "name": "RoleGranted",
      "type": "event"
    },
    {
      "anonymous": false,
      "inputs": [
        {
          "indexed": true,
          "internalType": "bytes32",
          "name": "role",
          "type": "bytes32"
        },
        {
          "indexed": true,
          "internalType": "address",
          "name": "account",
          "type": "address"
        },
        {
          "indexed": true,
          "internalType": "address",
          "name": "sender",
          "type": "address"
        }
      ],
      "name": "RoleRevoked",
      "type": "event"
    },
    {
      "anonymous": false,
      "inputs": [
        {
          "indexed": true,
          "internalType": "uint256",
          "name": "marketId",
          "type": "uint256"
        },
        {
          "indexed": true,
          "internalType": "uint8",
          "name": "optionId",
          "type": "uint8"
        },
        {
          "indexed": true,
          "internalType": "uint256",
          "name": "tokenId",
          "type": "uint256"
        },
        {
          "indexed": false,
          "internalType": "address",
          "name": "buyer",
          "type": "address"
        },
        {
          "indexed": false,
          "internalType": "uint256",
          "name": "priceTokens",
          "type": "uint256"
        }
      ],
      "name": "TicketPurchased",
      "type": "event"
    },
    {
      "anonymous": false,
      "inputs": [
        {
          "indexed": true,
          "internalType": "uint256",
          "name": "tokenId",
          "type": "uint256"
        }
      ],
      "name": "Unlisted",
      "type": "event"
    },
    {
      "inputs": [],
      "name": "ADMIN_ROLE",
      "outputs": [
        {
          "internalType": "bytes32",
          "name": "",
          "type": "bytes32"
        }
      ],
      "stateMutability": "view",
      "type": "function"
    },
    {
      "inputs": [],
      "name": "DEFAULT_ADMIN_ROLE",
      "outputs": [
        {
          "internalType": "bytes32",
          "name": "",
          "type": "bytes32"
        }
      ],
      "stateMutability": "view",
      "type": "function"
    },
    {
      "inputs": [
        {
          "internalType": "uint256",
          "name": "marketId",
          "type": "uint256"
        },
        {
          "internalType": "uint8",
          "name": "optionId",
          "type": "uint8"
        }
      ],
      "name": "buy",
      "outputs": [
        {
          "internalType": "uint256",
          "name": "tokenId",
          "type": "uint256"
        }
      ],
      "stateMutability": "nonpayable",
      "type": "function"
    },
    {
      "inputs": [
        {
          "internalType": "uint256",
          "name": "tokenId",
          "type": "uint256"
        }
      ],
      "name": "buyListed",
      "outputs": [],
      "stateMutability": "payable",
      "type": "function"
    },
    {
      "inputs": [
        {
          "internalType": "uint256",
          "name": "tokenId",
          "type": "uint256"
        }
      ],
      "name": "cancelListing",
      "outputs": [],
      "stateMutability": "nonpayable",
      "type": "function"
    },
    {
      "inputs": [
        {
          "internalType": "uint256",
          "name": "tokenId",
          "type": "uint256"
        }
      ],
      "name": "claimPayout",
      "outputs": [],
      "stateMutability": "nonpayable",
      "type": "function"
    },
    {
      "inputs": [
        {
          "internalType": "uint256",
          "name": "",
          "type": "uint256"
        }
      ],
      "name": "claimed",
      "outputs": [
        {
          "internalType": "bool",
          "name": "",
          "type": "bool"
        }
      ],
      "stateMutability": "view",
      "type": "function"
    },
    {
      "inputs": [
        {
          "internalType": "string",
          "name": "title",
          "type": "string"
        },
        {
          "internalType": "string",
          "name": "description",
          "type": "string"
        },
        {
          "internalType": "address",
          "name": "oracle",
          "type": "address"
        },
        {
          "internalType": "uint64",
          "name": "resolveAt",
          "type": "uint64"
        },
        {
          "internalType": "string[]",
          "name": "optionLabels",
          "type": "string[]"
        },
        {
          "internalType": "uint256[]",
          "name": "optionPricesTokens",
          "type": "uint256[]"
        },
        {
          "internalType": "uint256",
          "name": "prizePoolTokens",
          "type": "uint256"
        }
      ],
      "name": "createMarket",
      "outputs": [
        {
          "internalType": "uint256",
          "name": "marketId",
          "type": "uint256"
        }
      ],
      "stateMutability": "nonpayable",
      "type": "function"
    },
    {
      "inputs": [],
      "name": "easyToken",
      "outputs": [
        {
          "internalType": "contract IERC20",
          "name": "",
          "type": "address"
        }
      ],
      "stateMutability": "view",
      "type": "function"
    },
    {
      "inputs": [
        {
          "internalType": "uint256",
          "name": "marketId",
          "type": "uint256"
        }
      ],
      "name": "getMarket",
      "outputs": [
        {
          "internalType": "string",
          "name": "title",
          "type": "string"
        },
        {
          "internalType": "string",
          "name": "description",
          "type": "string"
        },
        {
          "internalType": "address",
          "name": "oracle",
          "type": "address"
        },
        {
          "internalType": "uint256",
          "name": "prizePoolTokens",
          "type": "uint256"
        },
        {
          "internalType": "uint64",
          "name": "resolveAt",
          "type": "uint64"
        },
        {
          "internalType": "enum EasyBet.MarketStatus",
          "name": "status",
          "type": "uint8"
        },
        {
          "internalType": "uint8",
          "name": "winningOption",
          "type": "uint8"
        },
        {
          "internalType": "uint256",
          "name": "totalTickets",
          "type": "uint256"
        }
      ],
      "stateMutability": "view",
      "type": "function"
    },
    {
      "inputs": [
        {
          "internalType": "uint256",
          "name": "marketId",
          "type": "uint256"
        }
      ],
      "name": "getOptions",
      "outputs": [
        {
          "components": [
            {
              "internalType": "string",
              "name": "label",
              "type": "string"
            },
            {
              "internalType": "uint256",
              "name": "priceTokens",
              "type": "uint256"
            },
            {
              "internalType": "uint256",
              "name": "tickets",
              "type": "uint256"
            },
            {
              "internalType": "uint256",
              "name": "volumeTokens",
              "type": "uint256"
            }
          ],
          "internalType": "struct EasyBet.Option[]",
          "name": "",
          "type": "tuple[]"
        }
      ],
      "stateMutability": "view",
      "type": "function"
    },
    {
      "inputs": [
        {
          "internalType": "bytes32",
          "name": "role",
          "type": "bytes32"
        }
      ],
      "name": "getRoleAdmin",
      "outputs": [
        {
          "internalType": "bytes32",
          "name": "",
          "type": "bytes32"
        }
      ],
      "stateMutability": "view",
      "type": "function"
    },
    {
      "inputs": [
        {
          "internalType": "bytes32",
          "name": "role",
          "type": "bytes32"
        },
        {
          "internalType": "address",
          "name": "account",
          "type": "address"
        }
      ],
      "name": "grantRole",
      "outputs": [],
      "stateMutability": "nonpayable",
      "type": "function"
    },
    {
      "inputs": [
        {
          "internalType": "bytes32",
          "name": "role",
          "type": "bytes32"
        },
        {
          "internalType": "address",
          "name": "account",
          "type": "address"
        }
      ],
      "name": "hasRole",
      "outputs": [
        {
          "internalType": "bool",
          "name": "",
          "type": "bool"
        }
      ],
      "stateMutability": "view",
      "type": "function"
    },
    {
      "inputs": [
        {
          "internalType": "uint256",
          "name": "tokenId",
          "type": "uint256"
        },
        {
          "internalType": "uint256",
          "name": "priceWei",
          "type": "uint256"
        }
      ],
      "name": "listForSale",
      "outputs": [],
      "stateMutability": "nonpayable",
      "type": "function"
    },
    {
      "inputs": [
        {
          "internalType": "uint256",
          "name": "",
          "type": "uint256"
        }
      ],
      "name": "listings",
      "outputs": [
        {
          "internalType": "address",
          "name": "seller",
          "type": "address"
        },
        {
          "internalType": "uint256",
          "name": "priceWei",
          "type": "uint256"
        }
      ],
      "stateMutability": "view",
      "type": "function"
    },
    {
      "inputs": [],
      "name": "marketCount",
      "outputs": [
        {
          "internalType": "uint256",
          "name": "",
          "type": "uint256"
        }
      ],
      "stateMutability": "view",
      "type": "function"
    },
    {
      "inputs": [
        {
          "internalType": "bytes32",
          "name": "role",
          "type": "bytes32"
        },
        {
          "internalType": "address",
          "name": "callerConfirmation",
          "type": "address"
        }
      ],
      "name": "renounceRole",
      "outputs": [],
      "stateMutability": "nonpayable",
      "type": "function"
    },
    {
      "inputs": [
        {
          "internalType": "uint256",
          "name": "marketId",
          "type": "uint256"
        },
        {
          "internalType": "uint8",
          "name": "winningOption",
          "type": "uint8"
        }
      ],
      "name": "resolve",
      "outputs": [],
      "stateMutability": "nonpayable",
      "type": "function"
    },
    {
      "inputs": [
        {
          "internalType": "bytes32",
          "name": "role",
          "type": "bytes32"
        },
        {
          "internalType": "address",
          "name": "account",
          "type": "address"
        }
      ],
      "name": "revokeRole",
      "outputs": [],
      "stateMutability": "nonpayable",
      "type": "function"
    },
    {
      "inputs": [
        {
          "internalType": "bytes4",
          "name": "interfaceId",
          "type": "bytes4"
        }
      ],
      "name": "supportsInterface",
      "outputs": [
        {
          "internalType": "bool",
          "name": "",
          "type": "bool"
        }
      ],
      "stateMutability": "view",
      "type": "function"
    },
    {
      "inputs": [],
      "name": "ticket",
      "outputs": [
        {
          "internalType": "contract TicketNFT",
          "name": "",
          "type": "address"
        }
      ],
      "stateMutability": "view",
      "type": "function"
    }
  ],
  "bytecode": "0x60c06040523480156200001157600080fd5b5060405162007af538038062007af5833981810160405281019062000037919062000402565b60018081905550620000536000801b836200021560201b60201c565b50620000867fa49807205ce4d355092ef5a8a18f56e8913cf4a201fbe287825b095693c21775836200021560201b60201c565b508073ffffffffffffffffffffffffffffffffffffffff1660a08173ffffffffffffffffffffffffffffffffffffffff168152505030604051620000ca906200038a565b620000d691906200045a565b604051809103906000f080158015620000f3573d6000803e3d6000fd5b5073ffffffffffffffffffffffffffffffffffffffff1660808173ffffffffffffffffffffffffffffffffffffffff168152505060805173ffffffffffffffffffffffffffffffffffffffff16632f2ff15d60805173ffffffffffffffffffffffffffffffffffffffff1663d53913936040518163ffffffff1660e01b8152600401602060405180830381865afa15801562000193573d6000803e3d6000fd5b505050506040513d601f19601f82011682018060405250810190620001b99190620004b2565b306040518363ffffffff1660e01b8152600401620001d9929190620004f5565b600060405180830381600087803b158015620001f457600080fd5b505af115801562000209573d6000803e3d6000fd5b50505050505062000522565b60006200022983836200031860201b60201c565b6200030d57600160008085815260200190815260200160002060000160008473ffffffffffffffffffffffffffffffffffffffff1673ffffffffffffffffffffffffffffffffffffffff16815260200190815260200160002060006101000a81548160ff021916908315150217905550620002a96200038260201b60201c565b73ffffffffffffffffffffffffffffffffffffffff168273ffffffffffffffffffffffffffffffffffffffff16847f2f8788117e7eff1d82e926ec794901d17c78024a50270940304540a733656f0d60405160405180910390a46001905062000312565b600090505b92915050565b600080600084815260200190815260200160002060000160008373ffffffffffffffffffffffffffffffffffffffff1673ffffffffffffffffffffffffffffffffffffffff16815260200190815260200160002060009054906101000a900460ff16905092915050565b600033905090565b6136cb806200442a83390190565b600080fd5b600073ffffffffffffffffffffffffffffffffffffffff82169050919050565b6000620003ca826200039d565b9050919050565b620003dc81620003bd565b8114620003e857600080fd5b50565b600081519050620003fc81620003d1565b92915050565b600080604083850312156200041c576200041b62000398565b5b60006200042c85828601620003eb565b92505060206200043f85828601620003eb565b9150509250929050565b6200045481620003bd565b82525050565b600060208201905062000471600083018462000449565b92915050565b6000819050919050565b6200048c8162000477565b81146200049857600080fd5b50565b600081519050620004ac8162000481565b92915050565b600060208284031215620004cb57620004ca62000398565b5b6000620004db848285016200049b565b91505092915050565b620004ef8162000477565b82525050565b60006040820190506200050c6000830185620004e4565b6200051b602083018462000449565b9392505050565b60805160a051613eaa620005806000396000818161083f01528181610cc601528181611363015261195301526000818161081b015281816109c701528181610b1a0152818161168d01528181611a550152611fa90152613eaa6000f3fe6080604052600436106101355760003560e01c80639c0e1608116100ab578063dfa9ba851161006f578063dfa9ba851461044b578063e80d7fec14610488578063e90bc7b1146104b1578063eb44fdd3146104ee578063ec97908214610532578063fb374bcf1461055d57610135565b80639c0e160814610353578063a217fddf1461037c578063d547741f146103a7578063dbe7e3bd146103d0578063de74e57b1461040d57610135565b80636cc25db7116100fd5780636cc25db71461022f578063740513ea1461025a57806375b238fc146102855780638915b3fb146102b05780638a69614e146102ed57806391d148541461031657610135565b806301ffc9a71461013a578063248a9ca3146101775780632f2ff15d146101b4578063305a67a8146101dd57806336568abe14610206575b600080fd5b34801561014657600080fd5b50610161600480360381019061015c9190612467565b610579565b60405161016e91906124af565b60405180910390f35b34801561018357600080fd5b5061019e60048036038101906101999190612500565b6105f3565b6040516101ab919061253c565b60405180910390f35b3480156101c057600080fd5b506101db60048036038101906101d691906125b5565b610612565b005b3480156101e957600080fd5b5061020460048036038101906101ff919061262b565b610634565b005b34801561021257600080fd5b5061022d600480360381019061022891906125b5565b61079e565b005b34801561023b57600080fd5b50610244610819565b60405161025191906126b7565b60405180910390f35b34801561026657600080fd5b5061026f61083d565b60405161027c91906126f3565b60405180910390f35b34801561029157600080fd5b5061029a610861565b6040516102a7919061253c565b60405180910390f35b3480156102bc57600080fd5b506102d760048036038101906102d2919061262b565b610885565b6040516102e491906128d2565b60405180910390f35b3480156102f957600080fd5b50610314600480360381019061030f919061262b565b6109a6565b005b34801561032257600080fd5b5061033d600480360381019061033891906125b5565b610df0565b60405161034a91906124af565b60405180910390f35b34801561035f57600080fd5b5061037a6004803603810190610375919061292d565b610e5a565b005b34801561038857600080fd5b506103916111dc565b60405161039e919061253c565b60405180910390f35b3480156103b357600080fd5b506103ce60048036038101906103c991906125b5565b6111e3565b005b3480156103dc57600080fd5b506103f760048036038101906103f2919061262b565b611205565b60405161040491906124af565b60405180910390f35b34801561041957600080fd5b50610434600480360381019061042f919061262b565b611225565b60405161044292919061298b565b60405180910390f35b34801561045757600080fd5b50610472600480360381019061046d9190612cd2565b611269565b60405161047f9190612de4565b60405180910390f35b34801561049457600080fd5b506104af60048036038101906104aa9190612dff565b611674565b005b3480156104bd57600080fd5b506104d860048036038101906104d3919061292d565b61184b565b6040516104e59190612de4565b60405180910390f35b3480156104fa57600080fd5b506105156004803603810190610510919061262b565b611b9f565b604051610529989796959493929190612f1e565b60405180910390f35b34801561053e57600080fd5b50610547611d60565b6040516105549190612de4565b60405180910390f35b6105776004803603810190610572919061262b565b611d66565b005b60007f7965db0b000000000000000000000000000000000000000000000000000000007bffffffffffffffffffffffffffffffffffffffffffffffffffffffff1916827bffffffffffffffffffffffffffffffffffffffffffffffffffffffff191614806105ec57506105eb82612080565b5b9050919050565b6000806000838152602001908152602001600020600101549050919050565b61061b826105f3565b610624816120ea565b61062e83836120fe565b50505050565b6000600460008381526020019081526020016000206040518060400160405290816000820160009054906101000a900473ffffffffffffffffffffffffffffffffffffffff1673ffffffffffffffffffffffffffffffffffffffff1673ffffffffffffffffffffffffffffffffffffffff16815260200160018201548152505090503373ffffffffffffffffffffffffffffffffffffffff16816000015173ffffffffffffffffffffffffffffffffffffffff1614610728576040517f08c379a000000000000000000000000000000000000000000000000000000000815260040161071f90612ff6565b60405180910390fd5b60046000838152602001908152602001600020600080820160006101000a81549073ffffffffffffffffffffffffffffffffffffffff021916905560018201600090555050817f6318005f6dc5a71d3e4ad5b4d1fe455ef3402d62b64573777af55bb6bfe3daab60405160405180910390a25050565b6107a66121ef565b73ffffffffffffffffffffffffffffffffffffffff168173ffffffffffffffffffffffffffffffffffffffff161461080a576040517f6697b23200000000000000000000000000000000000000000000000000000000815260040160405180910390fd5b61081482826121f7565b505050565b7f000000000000000000000000000000000000000000000000000000000000000081565b7f000000000000000000000000000000000000000000000000000000000000000081565b7fa49807205ce4d355092ef5a8a18f56e8913cf4a201fbe287825b095693c2177581565b60606000610892836122e9565b905080600501805480602002602001604051908101604052809291908181526020016000905b8282101561099a57838290600052602060002090600402016040518060800160405290816000820180546108eb90613045565b80601f016020809104026020016040519081016040528092919081815260200182805461091790613045565b80156109645780601f1061093957610100808354040283529160200191610964565b820191906000526020600020905b81548152906001019060200180831161094757829003601f168201915b505050505081526020016001820154815260200160028201548152602001600382015481525050815260200190600101906108b8565b50505050915050919050565b6109ae61235b565b3373ffffffffffffffffffffffffffffffffffffffff167f000000000000000000000000000000000000000000000000000000000000000073ffffffffffffffffffffffffffffffffffffffff16636352211e836040518263ffffffff1660e01b8152600401610a1e9190612de4565b602060405180830381865afa158015610a3b573d6000803e3d6000fd5b505050506040513d601f19601f82011682018060405250810190610a5f919061308b565b73ffffffffffffffffffffffffffffffffffffffff1614610ab5576040517f08c379a0000000000000000000000000000000000000000000000000000000008152600401610aac90613104565b60405180910390fd5b6005600082815260200190815260200160002060009054906101000a900460ff1615610b16576040517f08c379a0000000000000000000000000000000000000000000000000000000008152600401610b0d90613170565b60405180910390fd5b60007f000000000000000000000000000000000000000000000000000000000000000073ffffffffffffffffffffffffffffffffffffffff1663ff99a063836040518263ffffffff1660e01b8152600401610b719190612de4565b6040805180830381865afa158015610b8d573d6000803e3d6000fd5b505050506040513d601f19601f82011682018060405250810190610bb1919061320f565b90506000610bc282600001516122e9565b9050600180811115610bd757610bd6612e98565b5b8160040160089054906101000a900460ff166001811115610bfb57610bfa612e98565b5b14610c3b576040517f08c379a0000000000000000000000000000000000000000000000000000000008152600401610c3290613288565b60405180910390fd5b8060040160099054906101000a900460ff1660ff16826020015160ff1614610c98576040517f08c379a0000000000000000000000000000000000000000000000000000000008152600401610c8f906132f4565b60405180910390fd5b60016005600085815260200190815260200160002060006101000a81548160ff0219169083151502179055507f000000000000000000000000000000000000000000000000000000000000000073ffffffffffffffffffffffffffffffffffffffff1663a9059cbb3383600901546040518363ffffffff1660e01b8152600401610d2392919061298b565b6020604051808303816000875af1158015610d42573d6000803e3d6000fd5b505050506040513d601f19601f82011682018060405250810190610d669190613340565b610da5576040517f08c379a0000000000000000000000000000000000000000000000000000000008152600401610d9c906133b9565b60405180910390fd5b827f4ec90e965519d92681267467f775ada5bd214aa92c0dc93d90a5e880ce9ed026338360090154604051610ddb92919061298b565b60405180910390a25050610ded6123a1565b50565b600080600084815260200190815260200160002060000160008373ffffffffffffffffffffffffffffffffffffffff1673ffffffffffffffffffffffffffffffffffffffff16815260200190815260200160002060009054906101000a900460ff16905092915050565b6000610e65836122e9565b90508060020160009054906101000a900473ffffffffffffffffffffffffffffffffffffffff1673ffffffffffffffffffffffffffffffffffffffff163373ffffffffffffffffffffffffffffffffffffffff161480610eeb5750610eea7fa49807205ce4d355092ef5a8a18f56e8913cf4a201fbe287825b095693c2177533610df0565b5b610f2a576040517f08c379a0000000000000000000000000000000000000000000000000000000008152600401610f2190613425565b60405180910390fd5b60006001811115610f3e57610f3d612e98565b5b8160040160089054906101000a900460ff166001811115610f6257610f61612e98565b5b14610fa2576040517f08c379a0000000000000000000000000000000000000000000000000000000008152600401610f9990613491565b60405180910390fd5b80600501805490508260ff1610610fee576040517f08c379a0000000000000000000000000000000000000000000000000000000008152600401610fe5906134fd565b60405180910390fd5b60008160040160009054906101000a900467ffffffffffffffff1667ffffffffffffffff161415801561104857506110467fa49807205ce4d355092ef5a8a18f56e8913cf4a201fbe287825b095693c2177533610df0565b155b156110b3578060040160009054906101000a900467ffffffffffffffff1667ffffffffffffffff164210156110b2576040517f08c379a00000000000000000000000000000000000000000000000000000000081526004016110a990613569565b60405180910390fd5b5b60018160040160086101000a81548160ff021916908360018111156110db576110da612e98565b5b0217905550818160040160096101000a81548160ff021916908360ff160217905550806005018260ff168154811061111657611115613589565b5b90600052602060002090600402016002015481600801819055506000816008015411611177576040517f08c379a000000000000000000000000000000000000000000000000000000000815260040161116e90613604565b60405180910390fd5b8060080154816003015461118b9190613682565b8160090181905550827f503d167e0856e2f40aaac2dac6550f9543efb837691cc189cde53b0172e4f32b83836008015484600901546040516111cf939291906136b3565b60405180910390a2505050565b6000801b81565b6111ec826105f3565b6111f5816120ea565b6111ff83836121f7565b50505050565b60056020528060005260406000206000915054906101000a900460ff1681565b60046020528060005260406000206000915090508060000160009054906101000a900473ffffffffffffffffffffffffffffffffffffffff16908060010154905082565b60007fa49807205ce4d355092ef5a8a18f56e8913cf4a201fbe287825b095693c21775611295816120ea565b6002855110156112da576040517f08c379a00000000000000000000000000000000000000000000000000000000081526004016112d190613736565b60405180910390fd5b835185511461131e576040517f08c379a0000000000000000000000000000000000000000000000000000000008152600401611315906137a2565b60405180910390fd5b60008311611361576040517f08c379a00000000000000000000000000000000000000000000000000000000081526004016113589061380e565b60405180910390fd5b7f000000000000000000000000000000000000000000000000000000000000000073ffffffffffffffffffffffffffffffffffffffff166323b872dd3330866040518463ffffffff1660e01b81526004016113be9392919061382e565b6020604051808303816000875af11580156113dd573d6000803e3d6000fd5b505050506040513d601f19601f820116820180604052508101906114019190613340565b611440576040517f08c379a0000000000000000000000000000000000000000000000000000000008152600401611437906133b9565b60405180910390fd5b60026000815461144f90613865565b919050819055915060006003600084815260200190815260200160002090508981600001908161147f9190613a4f565b50888160010190816114919190613a4f565b50878160020160006101000a81548173ffffffffffffffffffffffffffffffffffffffff021916908373ffffffffffffffffffffffffffffffffffffffff160217905550868160040160006101000a81548167ffffffffffffffff021916908367ffffffffffffffff16021790555060008160040160086101000a81548160ff0219169083600181111561152857611527612e98565b5b021790555060018160060160006101000a81548160ff02191690831515021790555083816003018190555060005b865181101561162c5781600501604051806080016040528089848151811061158157611580613589565b5b602002602001015181526020018884815181106115a1576115a0613589565b5b60200260200101518152602001600081526020016000815250908060018154018082558091505060019003906000526020600020906004020160009091909190915060008201518160000190816115f89190613a4f565b506020820151816001015560408201518160020155606082015181600301555050808061162490613865565b915050611556565b50827f2d1e9ad45dbe8e898e0374deebf2a661b2ae7c1855d2a29507d584c35d287c758b8660405161165f929190613b21565b60405180910390a25050979650505050505050565b3373ffffffffffffffffffffffffffffffffffffffff167f000000000000000000000000000000000000000000000000000000000000000073ffffffffffffffffffffffffffffffffffffffff16636352211e846040518263ffffffff1660e01b81526004016116e49190612de4565b602060405180830381865afa158015611701573d6000803e3d6000fd5b505050506040513d601f19601f82011682018060405250810190611725919061308b565b73ffffffffffffffffffffffffffffffffffffffff161461177b576040517f08c379a000000000000000000000000000000000000000000000000000000000815260040161177290613104565b60405180910390fd5b60405180604001604052803373ffffffffffffffffffffffffffffffffffffffff168152602001828152506004600084815260200190815260200160002060008201518160000160006101000a81548173ffffffffffffffffffffffffffffffffffffffff021916908373ffffffffffffffffffffffffffffffffffffffff16021790555060208201518160010155905050817f50955776c5778c3b7d968d86d8c51fb6b29a7a74c20866b533268e209fc08343338360405161183f92919061298b565b60405180910390a25050565b600061185561235b565b6000611860846122e9565b90506000600181111561187657611875612e98565b5b8160040160089054906101000a900460ff16600181111561189a57611899612e98565b5b146118da576040517f08c379a00000000000000000000000000000000000000000000000000000000081526004016118d190613b9d565b60405180910390fd5b80600501805490508360ff1610611926576040517f08c379a000000000000000000000000000000000000000000000000000000000815260040161191d906134fd565b60405180910390fd5b6000816005018460ff168154811061194157611940613589565b5b906000526020600020906004020190507f000000000000000000000000000000000000000000000000000000000000000073ffffffffffffffffffffffffffffffffffffffff166323b872dd333084600101546040518463ffffffff1660e01b81526004016119b29392919061382e565b6020604051808303816000875af11580156119d1573d6000803e3d6000fd5b505050506040513d601f19601f820116820180604052508101906119f59190613340565b611a34576040517f08c379a0000000000000000000000000000000000000000000000000000000008152600401611a2b906133b9565b60405180910390fd5b8060010154826003016000828254611a4c9190613bbd565b925050819055507f000000000000000000000000000000000000000000000000000000000000000073ffffffffffffffffffffffffffffffffffffffff16636112e8ac3387876040518463ffffffff1660e01b8152600401611ab093929190613bf1565b6020604051808303816000875af1158015611acf573d6000803e3d6000fd5b505050506040513d601f19601f82011682018060405250810190611af39190613c28565b92506001816002016000828254611b0a9190613bbd565b925050819055508060010154816003016000828254611b299190613bbd565b925050819055506001826007016000828254611b459190613bbd565b92505081905550828460ff16867f0ce7fdbfb76393ae1f4ca6b4abe1d046e7b87a6d253e03fdf67e1fcf200ffe5e338560010154604051611b8792919061298b565b60405180910390a45050611b996123a1565b92915050565b6060806000806000806000806000611bb68a6122e9565b905080600001816001018260020160009054906101000a900473ffffffffffffffffffffffffffffffffffffffff1683600301548460040160009054906101000a900467ffffffffffffffff168560040160089054906101000a900460ff168660040160099054906101000a900460ff168760070154878054611c3890613045565b80601f0160208091040260200160405190810160405280929190818152602001828054611c6490613045565b8015611cb15780601f10611c8657610100808354040283529160200191611cb1565b820191906000526020600020905b815481529060010190602001808311611c9457829003601f168201915b50505050509750868054611cc490613045565b80601f0160208091040260200160405190810160405280929190818152602001828054611cf090613045565b8015611d3d5780601f10611d1257610100808354040283529160200191611d3d565b820191906000526020600020905b815481529060010190602001808311611d2057829003601f168201915b505050505096509850985098509850985098509850985050919395975091939597565b60025481565b611d6e61235b565b6000600460008381526020019081526020016000206040518060400160405290816000820160009054906101000a900473ffffffffffffffffffffffffffffffffffffffff1673ffffffffffffffffffffffffffffffffffffffff1673ffffffffffffffffffffffffffffffffffffffff1681526020016001820154815250509050600073ffffffffffffffffffffffffffffffffffffffff16816000015173ffffffffffffffffffffffffffffffffffffffff1603611e63576040517f08c379a0000000000000000000000000000000000000000000000000000000008152600401611e5a90613ca1565b60405180910390fd5b80602001513414611ea9576040517f08c379a0000000000000000000000000000000000000000000000000000000008152600401611ea090613d0d565b60405180910390fd5b60046000838152602001908152602001600020600080820160006101000a81549073ffffffffffffffffffffffffffffffffffffffff0219169055600182016000905550506000816000015173ffffffffffffffffffffffffffffffffffffffff1634604051611f1890613d5e565b60006040518083038185875af1925050503d8060008114611f55576040519150601f19603f3d011682016040523d82523d6000602084013e611f5a565b606091505b5050905080611f9e576040517f08c379a0000000000000000000000000000000000000000000000000000000008152600401611f9590613dbf565b60405180910390fd5b6000826000015190507f000000000000000000000000000000000000000000000000000000000000000073ffffffffffffffffffffffffffffffffffffffff166342842e0e8233876040518463ffffffff1660e01b81526004016120049392919061382e565b600060405180830381600087803b15801561201e57600080fd5b505af1158015612032573d6000803e3d6000fd5b50505050837f888231f55a3cd8fd72276bc1b12ed5a60f8d92e62d288e64bf29dd6e5fc7809a82333460405161206a9392919061382e565b60405180910390a250505061207d6123a1565b50565b60007f01ffc9a7000000000000000000000000000000000000000000000000000000007bffffffffffffffffffffffffffffffffffffffffffffffffffffffff1916827bffffffffffffffffffffffffffffffffffffffffffffffffffffffff1916149050919050565b6120fb816120f66121ef565b6123aa565b50565b600061210a8383610df0565b6121e457600160008085815260200190815260200160002060000160008473ffffffffffffffffffffffffffffffffffffffff1673ffffffffffffffffffffffffffffffffffffffff16815260200190815260200160002060006101000a81548160ff0219169083151502179055506121816121ef565b73ffffffffffffffffffffffffffffffffffffffff168273ffffffffffffffffffffffffffffffffffffffff16847f2f8788117e7eff1d82e926ec794901d17c78024a50270940304540a733656f0d60405160405180910390a4600190506121e9565b600090505b92915050565b600033905090565b60006122038383610df0565b156122de57600080600085815260200190815260200160002060000160008473ffffffffffffffffffffffffffffffffffffffff1673ffffffffffffffffffffffffffffffffffffffff16815260200190815260200160002060006101000a81548160ff02191690831515021790555061227b6121ef565b73ffffffffffffffffffffffffffffffffffffffff168273ffffffffffffffffffffffffffffffffffffffff16847ff6391f5c32d9c69d2a47ea670b442974b53935d1edc7fd64eb21e047a839171b60405160405180910390a4600190506122e3565b600090505b92915050565b6000806003600084815260200190815260200160002090508060060160009054906101000a900460ff16612352576040517f08c379a000000000000000000000000000000000000000000000000000000000815260040161234990613e2b565b60405180910390fd5b80915050919050565b600260015403612397576040517f3ee5aeb500000000000000000000000000000000000000000000000000000000815260040160405180910390fd5b6002600181905550565b60018081905550565b6123b48282610df0565b6123f75780826040517fe2517d3f0000000000000000000000000000000000000000000000000000000081526004016123ee929190613e4b565b60405180910390fd5b5050565b6000604051905090565b600080fd5b600080fd5b60007fffffffff0000000000000000000000000000000000000000000000000000000082169050919050565b6124448161240f565b811461244f57600080fd5b50565b6000813590506124618161243b565b92915050565b60006020828403121561247d5761247c612405565b5b600061248b84828501612452565b91505092915050565b60008115159050919050565b6124a981612494565b82525050565b60006020820190506124c460008301846124a0565b92915050565b6000819050919050565b6124dd816124ca565b81146124e857600080fd5b50565b6000813590506124fa816124d4565b92915050565b60006020828403121561251657612515612405565b5b6000612524848285016124eb565b91505092915050565b612536816124ca565b82525050565b6000602082019050612551600083018461252d565b92915050565b600073ffffffffffffffffffffffffffffffffffffffff82169050919050565b600061258282612557565b9050919050565b61259281612577565b811461259d57600080fd5b50565b6000813590506125af81612589565b92915050565b600080604083850312156125cc576125cb612405565b5b60006125da858286016124eb565b92505060206125eb858286016125a0565b9150509250929050565b6000819050919050565b612608816125f5565b811461261357600080fd5b50565b600081359050612625816125ff565b92915050565b60006020828403121561264157612640612405565b5b600061264f84828501612616565b91505092915050565b6000819050919050565b600061267d61267861267384612557565b612658565b612557565b9050919050565b600061268f82612662565b9050919050565b60006126a182612684565b9050919050565b6126b181612696565b82525050565b60006020820190506126cc60008301846126a8565b92915050565b60006126dd82612684565b9050919050565b6126ed816126d2565b82525050565b600060208201905061270860008301846126e4565b92915050565b600081519050919050565b600082825260208201905092915050565b6000819050602082019050919050565b600081519050919050565b600082825260208201905092915050565b60005b83811015612774578082015181840152602081019050612759565b60008484015250505050565b6000601f19601f8301169050919050565b600061279c8261273a565b6127a68185612745565b93506127b6818560208601612756565b6127bf81612780565b840191505092915050565b6127d3816125f5565b82525050565b600060808301600083015184820360008601526127f68282612791565b915050602083015161280b60208601826127ca565b50604083015161281e60408601826127ca565b50606083015161283160608601826127ca565b508091505092915050565b600061284883836127d9565b905092915050565b6000602082019050919050565b60006128688261270e565b6128728185612719565b9350836020820285016128848561272a565b8060005b858110156128c057848403895281516128a1858261283c565b94506128ac83612850565b925060208a01995050600181019050612888565b50829750879550505050505092915050565b600060208201905081810360008301526128ec818461285d565b905092915050565b600060ff82169050919050565b61290a816128f4565b811461291557600080fd5b50565b60008135905061292781612901565b92915050565b6000806040838503121561294457612943612405565b5b600061295285828601612616565b925050602061296385828601612918565b9150509250929050565b61297681612577565b82525050565b612985816125f5565b82525050565b60006040820190506129a0600083018561296d565b6129ad602083018461297c565b9392505050565b600080fd5b600080fd5b7f4e487b7100000000000000000000000000000000000000000000000000000000600052604160045260246000fd5b6129f682612780565b810181811067ffffffffffffffff82111715612a1557612a146129be565b5b80604052505050565b6000612a286123fb565b9050612a3482826129ed565b919050565b600067ffffffffffffffff821115612a5457612a536129be565b5b612a5d82612780565b9050602081019050919050565b82818337600083830152505050565b6000612a8c612a8784612a39565b612a1e565b905082815260208101848484011115612aa857612aa76129b9565b5b612ab3848285612a6a565b509392505050565b600082601f830112612ad057612acf6129b4565b5b8135612ae0848260208601612a79565b91505092915050565b600067ffffffffffffffff82169050919050565b612b0681612ae9565b8114612b1157600080fd5b50565b600081359050612b2381612afd565b92915050565b600067ffffffffffffffff821115612b4457612b436129be565b5b602082029050602081019050919050565b600080fd5b6000612b6d612b6884612b29565b612a1e565b90508083825260208201905060208402830185811115612b9057612b8f612b55565b5b835b81811015612bd757803567ffffffffffffffff811115612bb557612bb46129b4565b5b808601612bc28982612abb565b85526020850194505050602081019050612b92565b5050509392505050565b600082601f830112612bf657612bf56129b4565b5b8135612c06848260208601612b5a565b91505092915050565b600067ffffffffffffffff821115612c2a57612c296129be565b5b602082029050602081019050919050565b6000612c4e612c4984612c0f565b612a1e565b90508083825260208201905060208402830185811115612c7157612c70612b55565b5b835b81811015612c9a5780612c868882612616565b845260208401935050602081019050612c73565b5050509392505050565b600082601f830112612cb957612cb86129b4565b5b8135612cc9848260208601612c3b565b91505092915050565b600080600080600080600060e0888a031215612cf157612cf0612405565b5b600088013567ffffffffffffffff811115612d0f57612d0e61240a565b5b612d1b8a828b01612abb565b975050602088013567ffffffffffffffff811115612d3c57612d3b61240a565b5b612d488a828b01612abb565b9650506040612d598a828b016125a0565b9550506060612d6a8a828b01612b14565b945050608088013567ffffffffffffffff811115612d8b57612d8a61240a565b5b612d978a828b01612be1565b93505060a088013567ffffffffffffffff811115612db857612db761240a565b5b612dc48a828b01612ca4565b92505060c0612dd58a828b01612616565b91505092959891949750929550565b6000602082019050612df9600083018461297c565b92915050565b60008060408385031215612e1657612e15612405565b5b6000612e2485828601612616565b9250506020612e3585828601612616565b9150509250929050565b600082825260208201905092915050565b6000612e5b8261273a565b612e658185612e3f565b9350612e75818560208601612756565b612e7e81612780565b840191505092915050565b612e9281612ae9565b82525050565b7f4e487b7100000000000000000000000000000000000000000000000000000000600052602160045260246000fd5b60028110612ed857612ed7612e98565b5b50565b6000819050612ee982612ec7565b919050565b6000612ef982612edb565b9050919050565b612f0981612eee565b82525050565b612f18816128f4565b82525050565b6000610100820190508181036000830152612f39818b612e50565b90508181036020830152612f4d818a612e50565b9050612f5c604083018961296d565b612f69606083018861297c565b612f766080830187612e89565b612f8360a0830186612f00565b612f9060c0830185612f0f565b612f9d60e083018461297c565b9998505050505050505050565b7f6e6f742073656c6c657200000000000000000000000000000000000000000000600082015250565b6000612fe0600a83612e3f565b9150612feb82612faa565b602082019050919050565b6000602082019050818103600083015261300f81612fd3565b9050919050565b7f4e487b7100000000000000000000000000000000000000000000000000000000600052602260045260246000fd5b6000600282049050600182168061305d57607f821691505b6020821081036130705761306f613016565b5b50919050565b60008151905061308581612589565b92915050565b6000602082840312156130a1576130a0612405565b5b60006130af84828501613076565b91505092915050565b7f6e6f74206f776e65720000000000000000000000000000000000000000000000600082015250565b60006130ee600983612e3f565b91506130f9826130b8565b602082019050919050565b6000602082019050818103600083015261311d816130e1565b9050919050565b7f616c726561647920636c61696d65640000000000000000000000000000000000600082015250565b600061315a600f83612e3f565b915061316582613124565b602082019050919050565b600060208201905081810360008301526131898161314d565b9050919050565b600080fd5b6000815190506131a4816125ff565b92915050565b6000815190506131b981612901565b92915050565b6000604082840312156131d5576131d4613190565b5b6131df6040612a1e565b905060006131ef84828501613195565b6000830152506020613203848285016131aa565b60208301525092915050565b60006040828403121561322557613224612405565b5b6000613233848285016131bf565b91505092915050565b7f6e6f74207265736f6c7665640000000000000000000000000000000000000000600082015250565b6000613272600c83612e3f565b915061327d8261323c565b602082019050919050565b600060208201905081810360008301526132a181613265565b9050919050565b7f6c6f73696e67207469636b657400000000000000000000000000000000000000600082015250565b60006132de600d83612e3f565b91506132e9826132a8565b602082019050919050565b6000602082019050818103600083015261330d816132d1565b9050919050565b61331d81612494565b811461332857600080fd5b50565b60008151905061333a81613314565b92915050565b60006020828403121561335657613355612405565b5b60006133648482850161332b565b91505092915050565b7f7472616e73666572206661696c65640000000000000000000000000000000000600082015250565b60006133a3600f83612e3f565b91506133ae8261336d565b602082019050919050565b600060208201905081810360008301526133d281613396565b9050919050565b7f6e6f74206f7261636c652f61646d696e00000000000000000000000000000000600082015250565b600061340f601083612e3f565b915061341a826133d9565b602082019050919050565b6000602082019050818103600083015261343e81613402565b9050919050565b7f616c7265616479207265736f6c76656400000000000000000000000000000000600082015250565b600061347b601083612e3f565b915061348682613445565b602082019050919050565b600060208201905081810360008301526134aa8161346e565b9050919050565b7f626164206f7074696f6e00000000000000000000000000000000000000000000600082015250565b60006134e7600a83612e3f565b91506134f2826134b1565b602082019050919050565b60006020820190508181036000830152613516816134da565b9050919050565b7f746f6f206561726c790000000000000000000000000000000000000000000000600082015250565b6000613553600983612e3f565b915061355e8261351d565b602082019050919050565b6000602082019050818103600083015261358281613546565b9050919050565b7f4e487b7100000000000000000000000000000000000000000000000000000000600052603260045260246000fd5b7f6e6f2077696e6e65727300000000000000000000000000000000000000000000600082015250565b60006135ee600a83612e3f565b91506135f9826135b8565b602082019050919050565b6000602082019050818103600083015261361d816135e1565b9050919050565b7f4e487b7100000000000000000000000000000000000000000000000000000000600052601260045260246000fd5b7f4e487b7100000000000000000000000000000000000000000000000000000000600052601160045260246000fd5b600061368d826125f5565b9150613698836125f5565b9250826136a8576136a7613624565b5b828204905092915050565b60006060820190506136c86000830186612f0f565b6136d5602083018561297c565b6136e2604083018461297c565b949350505050565b7f6e65656420322b206f7074696f6e730000000000000000000000000000000000600082015250565b6000613720600f83612e3f565b915061372b826136ea565b602082019050919050565b6000602082019050818103600083015261374f81613713565b9050919050565b7f6c656e677468206d69736d617463680000000000000000000000000000000000600082015250565b600061378c600f83612e3f565b915061379782613756565b602082019050919050565b600060208201905081810360008301526137bb8161377f565b9050919050565b7f7072697a6520706f6f6c206d757374206265203e203000000000000000000000600082015250565b60006137f8601683612e3f565b9150613803826137c2565b602082019050919050565b60006020820190508181036000830152613827816137eb565b9050919050565b6000606082019050613843600083018661296d565b613850602083018561296d565b61385d604083018461297c565b949350505050565b6000613870826125f5565b91507fffffffffffffffffffffffffffffffffffffffffffffffffffffffffffffffff82036138a2576138a1613653565b5b600182019050919050565b60008190508160005260206000209050919050565b60006020601f8301049050919050565b600082821b905092915050565b60006008830261390f7fffffffffffffffffffffffffffffffffffffffffffffffffffffffffffffffff826138d2565b61391986836138d2565b95508019841693508086168417925050509392505050565b600061394c613947613942846125f5565b612658565b6125f5565b9050919050565b6000819050919050565b61396683613931565b61397a61397282613953565b8484546138df565b825550505050565b600090565b61398f613982565b61399a81848461395d565b505050565b5b818110156139be576139b3600082613987565b6001810190506139a0565b5050565b601f821115613a03576139d4816138ad565b6139dd846138c2565b810160208510156139ec578190505b613a006139f8856138c2565b83018261399f565b50505b505050565b600082821c905092915050565b6000613a2660001984600802613a08565b1980831691505092915050565b6000613a3f8383613a15565b9150826002028217905092915050565b613a588261273a565b67ffffffffffffffff811115613a7157613a706129be565b5b613a7b8254613045565b613a868282856139c2565b600060209050601f831160018114613ab95760008415613aa7578287015190505b613ab18582613a33565b865550613b19565b601f198416613ac7866138ad565b60005b82811015613aef57848901518255600182019150602085019450602081019050613aca565b86831015613b0c5784890151613b08601f891682613a15565b8355505b6001600288020188555050505b505050505050565b60006040820190508181036000830152613b3b8185612e50565b9050613b4a602083018461297c565b9392505050565b7f6e6f74206f70656e000000000000000000000000000000000000000000000000600082015250565b6000613b87600883612e3f565b9150613b9282613b51565b602082019050919050565b60006020820190508181036000830152613bb681613b7a565b9050919050565b6000613bc8826125f5565b9150613bd3836125f5565b9250828201905080821115613beb57613bea613653565b5b92915050565b6000606082019050613c06600083018661296d565b613c13602083018561297c565b613c206040830184612f0f565b949350505050565b600060208284031215613c3e57613c3d612405565b5b6000613c4c84828501613195565b91505092915050565b7f6e6f74206c697374656400000000000000000000000000000000000000000000600082015250565b6000613c8b600a83612e3f565b9150613c9682613c55565b602082019050919050565b60006020820190508181036000830152613cba81613c7e565b9050919050565b7f6261642070726963650000000000000000000000000000000000000000000000600082015250565b6000613cf7600983612e3f565b9150613d0282613cc1565b602082019050919050565b60006020820190508181036000830152613d2681613cea565b9050919050565b600081905092915050565b50565b6000613d48600083613d2d565b9150613d5382613d38565b600082019050919050565b6000613d6982613d3b565b9150819050919050565b7f706179206661696c000000000000000000000000000000000000000000000000600082015250565b6000613da9600883612e3f565b9150613db482613d73565b602082019050919050565b60006020820190508181036000830152613dd881613d9c565b9050919050565b7f6e6f206d61726b65740000000000000000000000000000000000000000000000600082015250565b6000613e15600983612e3f565b9150613e2082613ddf565b602082019050919050565b60006020820190508181036000830152613e4481613e08565b9050919050565b6000604082019050613e60600083018561296d565b613e6d602083018461252d565b939250505056fea264697066735822122068c0a0d4d162d9b1fb20bdeda53458b54f7639591a2ed50b93751e0b1ab6148764736f6c6343000814003360806040526001600c553480156200001657600080fd5b50604051620036cb380380620036cb83398181016040528101906200003c9190620002cc565b6040518060400160405280600e81526020017f45617379426574205469636b65740000000000000000000000000000000000008152506040518060400160405280600381526020017f45425400000000000000000000000000000000000000000000000000000000008152508160009081620000b9919062000578565b508060019081620000cb919062000578565b505050620000e36000801b82620000eb60201b60201c565b50506200065f565b6000620000ff8383620001ef60201b60201c565b620001e4576001600a600085815260200190815260200160002060000160008473ffffffffffffffffffffffffffffffffffffffff1673ffffffffffffffffffffffffffffffffffffffff16815260200190815260200160002060006101000a81548160ff021916908315150217905550620001806200025a60201b60201c565b73ffffffffffffffffffffffffffffffffffffffff168273ffffffffffffffffffffffffffffffffffffffff16847f2f8788117e7eff1d82e926ec794901d17c78024a50270940304540a733656f0d60405160405180910390a460019050620001e9565b600090505b92915050565b6000600a600084815260200190815260200160002060000160008373ffffffffffffffffffffffffffffffffffffffff1673ffffffffffffffffffffffffffffffffffffffff16815260200190815260200160002060009054906101000a900460ff16905092915050565b600033905090565b600080fd5b600073ffffffffffffffffffffffffffffffffffffffff82169050919050565b6000620002948262000267565b9050919050565b620002a68162000287565b8114620002b257600080fd5b50565b600081519050620002c6816200029b565b92915050565b600060208284031215620002e557620002e462000262565b5b6000620002f584828501620002b5565b91505092915050565b600081519050919050565b7f4e487b7100000000000000000000000000000000000000000000000000000000600052604160045260246000fd5b7f4e487b7100000000000000000000000000000000000000000000000000000000600052602260045260246000fd5b600060028204905060018216806200038057607f821691505b60208210810362000396576200039562000338565b5b50919050565b60008190508160005260206000209050919050565b60006020601f8301049050919050565b600082821b905092915050565b600060088302620004007fffffffffffffffffffffffffffffffffffffffffffffffffffffffffffffffff82620003c1565b6200040c8683620003c1565b95508019841693508086168417925050509392505050565b6000819050919050565b6000819050919050565b600062000459620004536200044d8462000424565b6200042e565b62000424565b9050919050565b6000819050919050565b620004758362000438565b6200048d620004848262000460565b848454620003ce565b825550505050565b600090565b620004a462000495565b620004b18184846200046a565b505050565b5b81811015620004d957620004cd6000826200049a565b600181019050620004b7565b5050565b601f8211156200052857620004f2816200039c565b620004fd84620003b1565b810160208510156200050d578190505b620005256200051c85620003b1565b830182620004b6565b50505b505050565b600082821c905092915050565b60006200054d600019846008026200052d565b1980831691505092915050565b60006200056883836200053a565b9150826002028217905092915050565b6200058382620002fe565b67ffffffffffffffff8111156200059f576200059e62000309565b5b620005ab825462000367565b620005b8828285620004dd565b600060209050601f831160018114620005f05760008415620005db578287015190505b620005e785826200055a565b86555062000657565b601f19841662000600866200039c565b60005b828110156200062a5784890151825560018201915060208501945060208101905062000603565b868310156200064a578489015162000646601f8916826200053a565b8355505b6001600288020188555050505b505050505050565b61305c806200066f6000396000f3fe608060405234801561001057600080fd5b50600436106101a95760003560e01c80636352211e116100f9578063b88d4fde11610097578063d547741f11610071578063d547741f14610518578063e985e9c514610534578063fa71308314610564578063ff99a06314610595576101a9565b8063b88d4fde146104ae578063c87b56dd146104ca578063d5391393146104fa576101a9565b806391d14854116100d357806391d148541461042657806395d89b4114610456578063a217fddf14610474578063a22cb46514610492576101a9565b80636352211e1461039657806370a08231146103c65780638462151c146103f6576101a9565b8063248a9ca31161016657806336568abe1161014057806336568abe146102fe57806342842e0e1461031a5780634f6ccce7146103365780636112e8ac14610366576101a9565b8063248a9ca3146102825780632f2ff15d146102b25780632f745c59146102ce576101a9565b806301ffc9a7146101ae57806306fdde03146101de578063081812fc146101fc578063095ea7b31461022c57806318160ddd1461024857806323b872dd14610266575b600080fd5b6101c860048036038101906101c391906124aa565b6105c5565b6040516101d591906124f2565b60405180910390f35b6101e66105d7565b6040516101f3919061259d565b60405180910390f35b610216600480360381019061021191906125f5565b610669565b6040516102239190612663565b60405180910390f35b610246600480360381019061024191906126aa565b610685565b005b61025061069b565b60405161025d91906126f9565b60405180910390f35b610280600480360381019061027b9190612714565b6106a8565b005b61029c6004803603810190610297919061279d565b6107aa565b6040516102a991906127d9565b60405180910390f35b6102cc60048036038101906102c791906127f4565b6107ca565b005b6102e860048036038101906102e391906126aa565b6107ec565b6040516102f591906126f9565b60405180910390f35b610318600480360381019061031391906127f4565b610895565b005b610334600480360381019061032f9190612714565b610910565b005b610350600480360381019061034b91906125f5565b610930565b60405161035d91906126f9565b60405180910390f35b610380600480360381019061037b919061286d565b6109a6565b60405161038d91906126f9565b60405180910390f35b6103b060048036038101906103ab91906125f5565b610a56565b6040516103bd9190612663565b60405180910390f35b6103e060048036038101906103db91906128c0565b610a68565b6040516103ed91906126f9565b60405180910390f35b610410600480360381019061040b91906128c0565b610b22565b60405161041d91906129ab565b60405180910390f35b610440600480360381019061043b91906127f4565b610bd0565b60405161044d91906124f2565b60405180910390f35b61045e610c3b565b60405161046b919061259d565b60405180910390f35b61047c610ccd565b60405161048991906127d9565b60405180910390f35b6104ac60048036038101906104a791906129f9565b610cd4565b005b6104c860048036038101906104c39190612b6e565b610cea565b005b6104e460048036038101906104df91906125f5565b610d0f565b6040516104f1919061259d565b60405180910390f35b610502610d78565b60405161050f91906127d9565b60405180910390f35b610532600480360381019061052d91906127f4565b610d9c565b005b61054e60048036038101906105499190612bf1565b610dbe565b60405161055b91906124f2565b60405180910390f35b61057e600480360381019061057991906125f5565b610e52565b60405161058c929190612c40565b60405180910390f35b6105af60048036038101906105aa91906125f5565b610e83565b6040516105bc9190612ca7565b60405180910390f35b60006105d082610ed7565b9050919050565b6060600080546105e690612cf1565b80601f016020809104026020016040519081016040528092919081815260200182805461061290612cf1565b801561065f5780601f106106345761010080835404028352916020019161065f565b820191906000526020600020905b81548152906001019060200180831161064257829003601f168201915b5050505050905090565b600061067482610f51565b5061067e82610fd9565b9050919050565b6106978282610692611016565b61101e565b5050565b6000600880549050905090565b600073ffffffffffffffffffffffffffffffffffffffff168273ffffffffffffffffffffffffffffffffffffffff160361071a5760006040517f64a0ae920000000000000000000000000000000000000000000000000000000081526004016107119190612663565b60405180910390fd5b600061072e8383610729611016565b611030565b90508373ffffffffffffffffffffffffffffffffffffffff168173ffffffffffffffffffffffffffffffffffffffff16146107a4578382826040517f64283d7b00000000000000000000000000000000000000000000000000000000815260040161079b93929190612d22565b60405180910390fd5b50505050565b6000600a6000838152602001908152602001600020600101549050919050565b6107d3826107aa565b6107dc8161114d565b6107e68383611161565b50505050565b60006107f783610a68565b821061083c5782826040517fa57d13dc000000000000000000000000000000000000000000000000000000008152600401610833929190612d59565b60405180910390fd5b600660008473ffffffffffffffffffffffffffffffffffffffff1673ffffffffffffffffffffffffffffffffffffffff168152602001908152602001600020600083815260200190815260200160002054905092915050565b61089d611016565b73ffffffffffffffffffffffffffffffffffffffff168173ffffffffffffffffffffffffffffffffffffffff1614610901576040517f6697b23200000000000000000000000000000000000000000000000000000000815260040160405180910390fd5b61090b8282611253565b505050565b61092b83838360405180602001604052806000815250610cea565b505050565b600061093a61069b565b8210610980576000826040517fa57d13dc000000000000000000000000000000000000000000000000000000008152600401610977929190612d59565b60405180910390fd5b6008828154811061099457610993612d82565b5b90600052602060002001549050919050565b60007f9f2df0fed2c77648de5860a4cc508cd0818c85b8b8a1ab4ceeef8d981c8956a66109d28161114d565b600c60008154809291906109e590612de0565b9190505591506109f58583611346565b60405180604001604052808581526020018460ff16815250600b60008481526020019081526020016000206000820151816000015560208201518160010160006101000a81548160ff021916908360ff160217905550905050509392505050565b6000610a6182610f51565b9050919050565b60008073ffffffffffffffffffffffffffffffffffffffff168273ffffffffffffffffffffffffffffffffffffffff1603610adb5760006040517f89c62b64000000000000000000000000000000000000000000000000000000008152600401610ad29190612663565b60405180910390fd5b600360008373ffffffffffffffffffffffffffffffffffffffff1673ffffffffffffffffffffffffffffffffffffffff168152602001908152602001600020549050919050565b60606000610b2f83610a68565b905060008167ffffffffffffffff811115610b4d57610b4c612a43565b5b604051908082528060200260200182016040528015610b7b5781602001602082028036833780820191505090505b50905060005b82811015610bc557610b9385826107ec565b828281518110610ba657610ba5612d82565b5b6020026020010181815250508080610bbd90612de0565b915050610b81565b508092505050919050565b6000600a600084815260200190815260200160002060000160008373ffffffffffffffffffffffffffffffffffffffff1673ffffffffffffffffffffffffffffffffffffffff16815260200190815260200160002060009054906101000a900460ff16905092915050565b606060018054610c4a90612cf1565b80601f0160208091040260200160405190810160405280929190818152602001828054610c7690612cf1565b8015610cc35780601f10610c9857610100808354040283529160200191610cc3565b820191906000526020600020905b815481529060010190602001808311610ca657829003601f168201915b5050505050905090565b6000801b81565b610ce6610cdf611016565b8383611364565b5050565b610cf58484846106a8565b610d09610d00611016565b858585856114d3565b50505050565b6060610d1a82610f51565b506000610d25611684565b90506000815111610d455760405180602001604052806000815250610d70565b80610d4f8461169b565b604051602001610d60929190612e64565b6040516020818303038152906040525b915050919050565b7f9f2df0fed2c77648de5860a4cc508cd0818c85b8b8a1ab4ceeef8d981c8956a681565b610da5826107aa565b610dae8161114d565b610db88383611253565b50505050565b6000600560008473ffffffffffffffffffffffffffffffffffffffff1673ffffffffffffffffffffffffffffffffffffffff16815260200190815260200160002060008373ffffffffffffffffffffffffffffffffffffffff1673ffffffffffffffffffffffffffffffffffffffff16815260200190815260200160002060009054906101000a900460ff16905092915050565b600b6020528060005260406000206000915090508060000154908060010160009054906101000a900460ff16905082565b610e8b612421565b600b6000838152602001908152602001600020604051806040016040529081600082015481526020016001820160009054906101000a900460ff1660ff1660ff16815250509050919050565b60007f7965db0b000000000000000000000000000000000000000000000000000000007bffffffffffffffffffffffffffffffffffffffffffffffffffffffff1916827bffffffffffffffffffffffffffffffffffffffffffffffffffffffff19161480610f4a5750610f4982611769565b5b9050919050565b600080610f5d836117e3565b9050600073ffffffffffffffffffffffffffffffffffffffff168173ffffffffffffffffffffffffffffffffffffffff1603610fd057826040517f7e273289000000000000000000000000000000000000000000000000000000008152600401610fc791906126f9565b60405180910390fd5b80915050919050565b60006004600083815260200190815260200160002060009054906101000a900473ffffffffffffffffffffffffffffffffffffffff169050919050565b600033905090565b61102b8383836001611820565b505050565b60008061103e8585856119e5565b9050600073ffffffffffffffffffffffffffffffffffffffff168173ffffffffffffffffffffffffffffffffffffffff16036110825761107d84611bff565b6110c1565b8473ffffffffffffffffffffffffffffffffffffffff168173ffffffffffffffffffffffffffffffffffffffff16146110c0576110bf8185611c48565b5b5b600073ffffffffffffffffffffffffffffffffffffffff168573ffffffffffffffffffffffffffffffffffffffff1603611103576110fe84611d33565b611142565b8473ffffffffffffffffffffffffffffffffffffffff168173ffffffffffffffffffffffffffffffffffffffff1614611141576111408585611e04565b5b5b809150509392505050565b61115e81611159611016565b611e8f565b50565b600061116d8383610bd0565b611248576001600a600085815260200190815260200160002060000160008473ffffffffffffffffffffffffffffffffffffffff1673ffffffffffffffffffffffffffffffffffffffff16815260200190815260200160002060006101000a81548160ff0219169083151502179055506111e5611016565b73ffffffffffffffffffffffffffffffffffffffff168273ffffffffffffffffffffffffffffffffffffffff16847f2f8788117e7eff1d82e926ec794901d17c78024a50270940304540a733656f0d60405160405180910390a46001905061124d565b600090505b92915050565b600061125f8383610bd0565b1561133b576000600a600085815260200190815260200160002060000160008473ffffffffffffffffffffffffffffffffffffffff1673ffffffffffffffffffffffffffffffffffffffff16815260200190815260200160002060006101000a81548160ff0219169083151502179055506112d8611016565b73ffffffffffffffffffffffffffffffffffffffff168273ffffffffffffffffffffffffffffffffffffffff16847ff6391f5c32d9c69d2a47ea670b442974b53935d1edc7fd64eb21e047a839171b60405160405180910390a460019050611340565b600090505b92915050565b611360828260405180602001604052806000815250611ee0565b5050565b600073ffffffffffffffffffffffffffffffffffffffff168273ffffffffffffffffffffffffffffffffffffffff16036113d557816040517f5b08ba180000000000000000000000000000000000000000000000000000000081526004016113cc9190612663565b60405180910390fd5b80600560008573ffffffffffffffffffffffffffffffffffffffff1673ffffffffffffffffffffffffffffffffffffffff16815260200190815260200160002060008473ffffffffffffffffffffffffffffffffffffffff1673ffffffffffffffffffffffffffffffffffffffff16815260200190815260200160002060006101000a81548160ff0219169083151502179055508173ffffffffffffffffffffffffffffffffffffffff168373ffffffffffffffffffffffffffffffffffffffff167f17307eab39ab6107e8899845ad3d59bd9653f200f220920489ca2b5937696c31836040516114c691906124f2565b60405180910390a3505050565b60008373ffffffffffffffffffffffffffffffffffffffff163b111561167d578273ffffffffffffffffffffffffffffffffffffffff1663150b7a02868685856040518563ffffffff1660e01b81526004016115329493929190612edd565b6020604051808303816000875af192505050801561156e57506040513d601f19601f8201168201806040525081019061156b9190612f3e565b60015b6115f2573d806000811461159e576040519150601f19603f3d011682016040523d82523d6000602084013e6115a3565b606091505b5060008151036115ea57836040517f64a0ae920000000000000000000000000000000000000000000000000000000081526004016115e19190612663565b60405180910390fd5b805160208201fd5b63150b7a0260e01b7bffffffffffffffffffffffffffffffffffffffffffffffffffffffff1916817bffffffffffffffffffffffffffffffffffffffffffffffffffffffff19161461167b57836040517f64a0ae920000000000000000000000000000000000000000000000000000000081526004016116729190612663565b60405180910390fd5b505b5050505050565b606060405180602001604052806000815250905090565b6060600060016116aa84611f04565b01905060008167ffffffffffffffff8111156116c9576116c8612a43565b5b6040519080825280601f01601f1916602001820160405280156116fb5781602001600182028036833780820191505090505b509050600082602083010190505b60011561175e578080600190039150507f3031323334353637383961626364656600000000000000000000000000000000600a86061a8153600a858161175257611751612f6b565b5b04945060008503611709575b819350505050919050565b60007f780e9d63000000000000000000000000000000000000000000000000000000007bffffffffffffffffffffffffffffffffffffffffffffffffffffffff1916827bffffffffffffffffffffffffffffffffffffffffffffffffffffffff191614806117dc57506117db82612057565b5b9050919050565b60006002600083815260200190815260200160002060009054906101000a900473ffffffffffffffffffffffffffffffffffffffff169050919050565b80806118595750600073ffffffffffffffffffffffffffffffffffffffff168273ffffffffffffffffffffffffffffffffffffffff1614155b1561198d57600061186984610f51565b9050600073ffffffffffffffffffffffffffffffffffffffff168373ffffffffffffffffffffffffffffffffffffffff16141580156118d457508273ffffffffffffffffffffffffffffffffffffffff168173ffffffffffffffffffffffffffffffffffffffff1614155b80156118e757506118e58184610dbe565b155b1561192957826040517fa9fbf51f0000000000000000000000000000000000000000000000000000000081526004016119209190612663565b60405180910390fd5b811561198b57838573ffffffffffffffffffffffffffffffffffffffff168273ffffffffffffffffffffffffffffffffffffffff167f8c5be1e5ebec7d5bd14f71427d1e84f3dd0314c0f7b2291e5b200ac8c7c3b92560405160405180910390a45b505b836004600085815260200190815260200160002060006101000a81548173ffffffffffffffffffffffffffffffffffffffff021916908373ffffffffffffffffffffffffffffffffffffffff16021790555050505050565b6000806119f1846117e3565b9050600073ffffffffffffffffffffffffffffffffffffffff168373ffffffffffffffffffffffffffffffffffffffff1614611a3357611a32818486612139565b5b600073ffffffffffffffffffffffffffffffffffffffff168173ffffffffffffffffffffffffffffffffffffffff1614611ac457611a75600085600080611820565b6001600360008373ffffffffffffffffffffffffffffffffffffffff1673ffffffffffffffffffffffffffffffffffffffff168152602001908152602001600020600082825403925050819055505b600073ffffffffffffffffffffffffffffffffffffffff168573ffffffffffffffffffffffffffffffffffffffff1614611b47576001600360008773ffffffffffffffffffffffffffffffffffffffff1673ffffffffffffffffffffffffffffffffffffffff168152602001908152602001600020600082825401925050819055505b846002600086815260200190815260200160002060006101000a81548173ffffffffffffffffffffffffffffffffffffffff021916908373ffffffffffffffffffffffffffffffffffffffff160217905550838573ffffffffffffffffffffffffffffffffffffffff168273ffffffffffffffffffffffffffffffffffffffff167fddf252ad1be2c89b69c2b068fc378daa952ba7f163c4a11628f55a4df523b3ef60405160405180910390a4809150509392505050565b6008805490506009600083815260200190815260200160002081905550600881908060018154018082558091505060019003906000526020600020016000909190919091505550565b6000611c5383610a68565b90506000600760008481526020019081526020016000205490506000600660008673ffffffffffffffffffffffffffffffffffffffff1673ffffffffffffffffffffffffffffffffffffffff1681526020019081526020016000209050828214611cff5760008160008581526020019081526020016000205490508082600085815260200190815260200160002081905550826007600083815260200190815260200160002081905550505b6007600085815260200190815260200160002060009055806000848152602001908152602001600020600090555050505050565b60006001600880549050611d479190612f9a565b9050600060096000848152602001908152602001600020549050600060088381548110611d7757611d76612d82565b5b906000526020600020015490508060088381548110611d9957611d98612d82565b5b906000526020600020018190555081600960008381526020019081526020016000208190555060096000858152602001908152602001600020600090556008805480611de857611de7612fce565b5b6001900381819060005260206000200160009055905550505050565b60006001611e1184610a68565b611e1b9190612f9a565b905081600660008573ffffffffffffffffffffffffffffffffffffffff1673ffffffffffffffffffffffffffffffffffffffff168152602001908152602001600020600083815260200190815260200160002081905550806007600084815260200190815260200160002081905550505050565b611e998282610bd0565b611edc5780826040517fe2517d3f000000000000000000000000000000000000000000000000000000008152600401611ed3929190612ffd565b60405180910390fd5b5050565b611eea83836121fd565b611eff611ef5611016565b60008585856114d3565b505050565b600080600090507a184f03e93ff9f4daa797ed6e38ed64bf6a1f0100000000000000008310611f62577a184f03e93ff9f4daa797ed6e38ed64bf6a1f0100000000000000008381611f5857611f57612f6b565b5b0492506040810190505b6d04ee2d6d415b85acef81000000008310611f9f576d04ee2d6d415b85acef81000000008381611f9557611f94612f6b565b5b0492506020810190505b662386f26fc100008310611fce57662386f26fc100008381611fc457611fc3612f6b565b5b0492506010810190505b6305f5e1008310611ff7576305f5e1008381611fed57611fec612f6b565b5b0492506008810190505b612710831061201c57612710838161201257612011612f6b565b5b0492506004810190505b6064831061203f576064838161203557612034612f6b565b5b0492506002810190505b600a831061204e576001810190505b80915050919050565b60007f80ac58cd000000000000000000000000000000000000000000000000000000007bffffffffffffffffffffffffffffffffffffffffffffffffffffffff1916827bffffffffffffffffffffffffffffffffffffffffffffffffffffffff1916148061212257507f5b5e139f000000000000000000000000000000000000000000000000000000007bffffffffffffffffffffffffffffffffffffffffffffffffffffffff1916827bffffffffffffffffffffffffffffffffffffffffffffffffffffffff1916145b806121325750612131826122f6565b5b9050919050565b612144838383612360565b6121f857600073ffffffffffffffffffffffffffffffffffffffff168373ffffffffffffffffffffffffffffffffffffffff16036121b957806040517f7e2732890000000000000000000000000000000000000000000000000000000081526004016121b091906126f9565b60405180910390fd5b81816040517f177e802f0000000000000000000000000000000000000000000000000000000081526004016121ef929190612d59565b60405180910390fd5b505050565b600073ffffffffffffffffffffffffffffffffffffffff168273ffffffffffffffffffffffffffffffffffffffff160361226f5760006040517f64a0ae920000000000000000000000000000000000000000000000000000000081526004016122669190612663565b60405180910390fd5b600061227d83836000611030565b9050600073ffffffffffffffffffffffffffffffffffffffff168173ffffffffffffffffffffffffffffffffffffffff16146122f15760006040517f73c6ac6e0000000000000000000000000000000000000000000000000000000081526004016122e89190612663565b60405180910390fd5b505050565b60007f01ffc9a7000000000000000000000000000000000000000000000000000000007bffffffffffffffffffffffffffffffffffffffffffffffffffffffff1916827bffffffffffffffffffffffffffffffffffffffffffffffffffffffff1916149050919050565b60008073ffffffffffffffffffffffffffffffffffffffff168373ffffffffffffffffffffffffffffffffffffffff161415801561241857508273ffffffffffffffffffffffffffffffffffffffff168473ffffffffffffffffffffffffffffffffffffffff1614806123d957506123d88484610dbe565b5b8061241757508273ffffffffffffffffffffffffffffffffffffffff166123ff83610fd9565b73ffffffffffffffffffffffffffffffffffffffff16145b5b90509392505050565b604051806040016040528060008152602001600060ff1681525090565b6000604051905090565b600080fd5b600080fd5b60007fffffffff0000000000000000000000000000000000000000000000000000000082169050919050565b61248781612452565b811461249257600080fd5b50565b6000813590506124a48161247e565b92915050565b6000602082840312156124c0576124bf612448565b5b60006124ce84828501612495565b91505092915050565b60008115159050919050565b6124ec816124d7565b82525050565b600060208201905061250760008301846124e3565b92915050565b600081519050919050565b600082825260208201905092915050565b60005b8381101561254757808201518184015260208101905061252c565b60008484015250505050565b6000601f19601f8301169050919050565b600061256f8261250d565b6125798185612518565b9350612589818560208601612529565b61259281612553565b840191505092915050565b600060208201905081810360008301526125b78184612564565b905092915050565b6000819050919050565b6125d2816125bf565b81146125dd57600080fd5b50565b6000813590506125ef816125c9565b92915050565b60006020828403121561260b5761260a612448565b5b6000612619848285016125e0565b91505092915050565b600073ffffffffffffffffffffffffffffffffffffffff82169050919050565b600061264d82612622565b9050919050565b61265d81612642565b82525050565b60006020820190506126786000830184612654565b92915050565b61268781612642565b811461269257600080fd5b50565b6000813590506126a48161267e565b92915050565b600080604083850312156126c1576126c0612448565b5b60006126cf85828601612695565b92505060206126e0858286016125e0565b9150509250929050565b6126f3816125bf565b82525050565b600060208201905061270e60008301846126ea565b92915050565b60008060006060848603121561272d5761272c612448565b5b600061273b86828701612695565b935050602061274c86828701612695565b925050604061275d868287016125e0565b9150509250925092565b6000819050919050565b61277a81612767565b811461278557600080fd5b50565b60008135905061279781612771565b92915050565b6000602082840312156127b3576127b2612448565b5b60006127c184828501612788565b91505092915050565b6127d381612767565b82525050565b60006020820190506127ee60008301846127ca565b92915050565b6000806040838503121561280b5761280a612448565b5b600061281985828601612788565b925050602061282a85828601612695565b9150509250929050565b600060ff82169050919050565b61284a81612834565b811461285557600080fd5b50565b60008135905061286781612841565b92915050565b60008060006060848603121561288657612885612448565b5b600061289486828701612695565b93505060206128a5868287016125e0565b92505060406128b686828701612858565b9150509250925092565b6000602082840312156128d6576128d5612448565b5b60006128e484828501612695565b91505092915050565b600081519050919050565b600082825260208201905092915050565b6000819050602082019050919050565b612922816125bf565b82525050565b60006129348383612919565b60208301905092915050565b6000602082019050919050565b6000612958826128ed565b61296281856128f8565b935061296d83612909565b8060005b8381101561299e5781516129858882612928565b975061299083612940565b925050600181019050612971565b5085935050505092915050565b600060208201905081810360008301526129c5818461294d565b905092915050565b6129d6816124d7565b81146129e157600080fd5b50565b6000813590506129f3816129cd565b92915050565b60008060408385031215612a1057612a0f612448565b5b6000612a1e85828601612695565b9250506020612a2f858286016129e4565b9150509250929050565b600080fd5b600080fd5b7f4e487b7100000000000000000000000000000000000000000000000000000000600052604160045260246000fd5b612a7b82612553565b810181811067ffffffffffffffff82111715612a9a57612a99612a43565b5b80604052505050565b6000612aad61243e565b9050612ab98282612a72565b919050565b600067ffffffffffffffff821115612ad957612ad8612a43565b5b612ae282612553565b9050602081019050919050565b82818337600083830152505050565b6000612b11612b0c84612abe565b612aa3565b905082815260208101848484011115612b2d57612b2c612a3e565b5b612b38848285612aef565b509392505050565b600082601f830112612b5557612b54612a39565b5b8135612b65848260208601612afe565b91505092915050565b60008060008060808587031215612b8857612b87612448565b5b6000612b9687828801612695565b9450506020612ba787828801612695565b9350506040612bb8878288016125e0565b925050606085013567ffffffffffffffff811115612bd957612bd861244d565b5b612be587828801612b40565b91505092959194509250565b60008060408385031215612c0857612c07612448565b5b6000612c1685828601612695565b9250506020612c2785828601612695565b9150509250929050565b612c3a81612834565b82525050565b6000604082019050612c5560008301856126ea565b612c626020830184612c31565b9392505050565b612c7281612834565b82525050565b604082016000820151612c8e6000850182612919565b506020820151612ca16020850182612c69565b50505050565b6000604082019050612cbc6000830184612c78565b92915050565b7f4e487b7100000000000000000000000000000000000000000000000000000000600052602260045260246000fd5b60006002820490506001821680612d0957607f821691505b602082108103612d1c57612d1b612cc2565b5b50919050565b6000606082019050612d376000830186612654565b612d4460208301856126ea565b612d516040830184612654565b949350505050565b6000604082019050612d6e6000830185612654565b612d7b60208301846126ea565b9392505050565b7f4e487b7100000000000000000000000000000000000000000000000000000000600052603260045260246000fd5b7f4e487b7100000000000000000000000000000000000000000000000000000000600052601160045260246000fd5b6000612deb826125bf565b91507fffffffffffffffffffffffffffffffffffffffffffffffffffffffffffffffff8203612e1d57612e1c612db1565b5b600182019050919050565b600081905092915050565b6000612e3e8261250d565b612e488185612e28565b9350612e58818560208601612529565b80840191505092915050565b6000612e708285612e33565b9150612e7c8284612e33565b91508190509392505050565b600081519050919050565b600082825260208201905092915050565b6000612eaf82612e88565b612eb98185612e93565b9350612ec9818560208601612529565b612ed281612553565b840191505092915050565b6000608082019050612ef26000830187612654565b612eff6020830186612654565b612f0c60408301856126ea565b8181036060830152612f1e8184612ea4565b905095945050505050565b600081519050612f388161247e565b92915050565b600060208284031215612f5457612f53612448565b5b6000612f6284828501612f29565b91505092915050565b7f4e487b7100000000000000000000000000000000000000000000000000000000600052601260045260246000fd5b6000612fa5826125bf565b9150612fb0836125bf565b9250828203905081811115612fc857612fc7612db1565b5b92915050565b7f4e487b7100000000000000000000000000000000000000000000000000000000600052603160045260246000fd5b60006040820190506130126000830185612654565b61301f60208301846127ca565b939250505056fea26469706673582212200a9aa46f48237191a704a31b2b06d8f5411f8d7dfbee1c1ba6147bf096d307a564736f6c63430008140033",
  "linkReferences": {},
  "deployedLinkReferences": {}
}