{
  "_format": "hh-sol-artifact-1",
  "contractName": "EasyBet",
  "sourceName": "contracts/EasyBet.sol",
  "abi": [
    {
      "inputs": [
        {
          "internalType": "address",
          "name": "admin",
          "type": "address"
        },
        {
          "internalType": "address",
          "name": "_easyToken",
          "type": "address"
        }
      ],
      "stateMutability": "nonpayable",
      "type": "constructor"
    },
    {
      "inputs": [],
      "name": "AccessControlBadConfirmation",
      "type": "error"
    },
    {
      "inputs": [
        {
          "internalType": "address",
          "name": "account",
          "type": "address"
        },
        {
          "internalType": "bytes32",
          "name": "neededRole",
          "type": "bytes32"
        }
      ],
      "name": "AccessControlUnauthorizedAccount",
      "type": "error"
    },
    {
      "inputs": [],
      "name": "ReentrancyGuardReentrantCall",
      "type": "error"
    },
    {
      "anonymous": false,
      "inputs": [
        {
          "indexed": true,
          "internalType": "uint256",
          "name": "tokenId",
          "type": "uint256"
        },
        {
          "indexed": false,
          "internalType": "address",
          "name": "seller",
          "type": "address"
        },
        {
          "indexed": false,
          "internalType": "address",
          "name": "buyer",
          "type": "address"
        },
        {
          "indexed": false,
          "internalType": "uint256",
          "name": "priceTokens",
          "type": "uint256"
        }
      ],
      "name": "Bought",
      "type": "event"
    },
    {
      "anonymous": false,
      "inputs": [
        {
          "indexed": true,
          "internalType": "uint256",
          "name": "tokenId",
          "type": "uint256"
        },
        {
          "indexed": false,
          "internalType": "address",
          "name": "claimer",
          "type": "address"
        },
        {
          "indexed": false,
          "internalType": "uint256",
          "name": "amountTokens",
          "type": "uint256"
        }
      ],
      "name": "Claimed",
      "type": "event"
    },
    {
      "anonymous": false,
      "inputs": [
        {
          "indexed": true,
          "internalType": "uint256",
          "name": "tokenId",
          "type": "uint256"
        },
        {
          "indexed": false,
          "internalType": "address",
          "name": "seller",
          "type": "address"
        },
        {
          "indexed": false,
          "internalType": "uint256",
          "name": "priceTokens",
          "type": "uint256"
        }
      ],
      "name": "Listed",
      "type": "event"
    },
    {
      "anonymous": false,
      "inputs": [
        {
          "indexed": true,
          "internalType": "uint256",
          "name": "marketId",
          "type": "uint256"
        },
        {
          "indexed": false,
          "internalType": "string",
          "name": "title",
          "type": "string"
        },
        {
          "indexed": false,
          "internalType": "uint256",
          "name": "prizePoolTokens",
          "type": "uint256"
        }
      ],
      "name": "MarketCreated",
      "type": "event"
    },
    {
      "anonymous": false,
      "inputs": [
        {
          "indexed": true,
          "internalType": "uint256",
          "name": "marketId",
          "type": "uint256"
        },
        {
          "indexed": false,
          "internalType": "uint8",
          "name": "winningOption",
          "type": "uint8"
        },
        {
          "indexed": false,
          "internalType": "uint256",
          "name": "winners",
          "type": "uint256"
        },
        {
          "indexed": false,
          "internalType": "uint256",
          "name": "payoutPerTicketTokens",
          "type": "uint256"
        }
      ],
      "name": "MarketResolved",
      "type": "event"
    },
    {
      "anonymous": false,
      "inputs": [
        {
          "indexed": true,
          "internalType": "bytes32",
          "name": "role",
          "type": "bytes32"
        },
        {
          "indexed": true,
          "internalType": "bytes32",
          "name": "previousAdminRole",
          "type": "bytes32"
        },
        {
          "indexed": true,
          "internalType": "bytes32",
          "name": "newAdminRole",
          "type": "bytes32"
        }
      ],
      "name": "RoleAdminChanged",
      "type": "event"
    },
    {
      "anonymous": false,
      "inputs": [
        {
          "indexed": true,
          "internalType": "bytes32",
          "name": "role",
          "type": "bytes32"
        },
        {
          "indexed": true,
          "internalType": "address",
          "name": "account",
          "type": "address"
        },
        {
          "indexed": true,
          "internalType": "address",
          "name": "sender",
          "type": "address"
        }
      ],
      "name": "RoleGranted",
      "type": "event"
    },
    {
      "anonymous": false,
      "inputs": [
        {
          "indexed": true,
          "internalType": "bytes32",
          "name": "role",
          "type": "bytes32"
        },
        {
          "indexed": true,
          "internalType": "address",
          "name": "account",
          "type": "address"
        },
        {
          "indexed": true,
          "internalType": "address",
          "name": "sender",
          "type": "address"
        }
      ],
      "name": "RoleRevoked",
      "type": "event"
    },
    {
      "anonymous": false,
      "inputs": [
        {
          "indexed": true,
          "internalType": "uint256",
          "name": "marketId",
          "type": "uint256"
        },
        {
          "indexed": true,
          "internalType": "uint8",
          "name": "optionId",
          "type": "uint8"
        },
        {
          "indexed": true,
          "internalType": "uint256",
          "name": "tokenId",
          "type": "uint256"
        },
        {
          "indexed": false,
          "internalType": "address",
          "name": "buyer",
          "type": "address"
        },
        {
          "indexed": false,
          "internalType": "uint256",
          "name": "priceTokens",
          "type": "uint256"
        }
      ],
      "name": "TicketPurchased",
      "type": "event"
    },
    {
      "anonymous": false,
      "inputs": [
        {
          "indexed": true,
          "internalType": "uint256",
          "name": "tokenId",
          "type": "uint256"
        }
      ],
      "name": "Unlisted",
      "type": "event"
    },
    {
      "inputs": [],
      "name": "ADMIN_ROLE",
      "outputs": [
        {
          "internalType": "bytes32",
          "name": "",
          "type": "bytes32"
        }
      ],
      "stateMutability": "view",
      "type": "function"
    },
    {
      "inputs": [],
      "name": "DEFAULT_ADMIN_ROLE",
      "outputs": [
        {
          "internalType": "bytes32",
          "name": "",
          "type": "bytes32"
        }
      ],
      "stateMutability": "view",
      "type": "function"
    },
    {
      "inputs": [
        {
          "internalType": "uint256",
          "name": "marketId",
          "type": "uint256"
        },
        {
          "internalType": "uint8",
          "name": "optionId",
          "type": "uint8"
        }
      ],
      "name": "buy",
      "outputs": [
        {
          "internalType": "uint256",
          "name": "tokenId",
          "type": "uint256"
        }
      ],
      "stateMutability": "nonpayable",
      "type": "function"
    },
    {
      "inputs": [
        {
          "internalType": "uint256",
          "name": "marketId",
          "type": "uint256"
        },
        {
          "internalType": "uint8",
          "name": "optionId",
          "type": "uint8"
        }
      ],
      "name": "buyAtBestPrice",
      "outputs": [
        {
          "internalType": "uint256",
          "name": "tokenId",
          "type": "uint256"
        }
      ],
      "stateMutability": "nonpayable",
      "type": "function"
    },
    {
      "inputs": [
        {
          "internalType": "uint256",
          "name": "tokenId",
          "type": "uint256"
        }
      ],
      "name": "buyListed",
      "outputs": [],
      "stateMutability": "nonpayable",
      "type": "function"
    },
    {
      "inputs": [
        {
          "internalType": "uint256",
          "name": "tokenId",
          "type": "uint256"
        }
      ],
      "name": "cancelListing",
      "outputs": [],
      "stateMutability": "nonpayable",
      "type": "function"
    },
    {
      "inputs": [
        {
          "internalType": "uint256",
          "name": "tokenId",
          "type": "uint256"
        }
      ],
      "name": "claimPayout",
      "outputs": [],
      "stateMutability": "nonpayable",
      "type": "function"
    },
    {
      "inputs": [
        {
          "internalType": "uint256",
          "name": "",
          "type": "uint256"
        }
      ],
      "name": "claimed",
      "outputs": [
        {
          "internalType": "bool",
          "name": "",
          "type": "bool"
        }
      ],
      "stateMutability": "view",
      "type": "function"
    },
    {
      "inputs": [
        {
          "internalType": "string",
          "name": "title",
          "type": "string"
        },
        {
          "internalType": "string",
          "name": "description",
          "type": "string"
        },
        {
          "internalType": "address",
          "name": "oracle",
          "type": "address"
        },
        {
          "internalType": "uint64",
          "name": "resolveAt",
          "type": "uint64"
        },
        {
          "internalType": "string[]",
          "name": "optionLabels",
          "type": "string[]"
        },
        {
          "internalType": "uint256[]",
          "name": "optionPricesTokens",
          "type": "uint256[]"
        },
        {
          "internalType": "uint256",
          "name": "prizePoolTokens",
          "type": "uint256"
        }
      ],
      "name": "createMarket",
      "outputs": [
        {
          "internalType": "uint256",
          "name": "marketId",
          "type": "uint256"
        }
      ],
      "stateMutability": "nonpayable",
      "type": "function"
    },
    {
      "inputs": [],
      "name": "easyToken",
      "outputs": [
        {
          "internalType": "contract IERC20",
          "name": "",
          "type": "address"
        }
      ],
      "stateMutability": "view",
      "type": "function"
    },
    {
      "inputs": [
        {
          "internalType": "uint256",
          "name": "marketId",
          "type": "uint256"
        }
      ],
      "name": "getMarket",
      "outputs": [
        {
          "internalType": "string",
          "name": "title",
          "type": "string"
        },
        {
          "internalType": "string",
          "name": "description",
          "type": "string"
        },
        {
          "internalType": "address",
          "name": "oracle",
          "type": "address"
        },
        {
          "internalType": "uint256",
          "name": "prizePoolTokens",
          "type": "uint256"
        },
        {
          "internalType": "uint64",
          "name": "resolveAt",
          "type": "uint64"
        },
        {
          "internalType": "enum EasyBet.MarketStatus",
          "name": "status",
          "type": "uint8"
        },
        {
          "internalType": "uint8",
          "name": "winningOption",
          "type": "uint8"
        },
        {
          "internalType": "uint256",
          "name": "totalTickets",
          "type": "uint256"
        }
      ],
      "stateMutability": "view",
      "type": "function"
    },
    {
      "inputs": [
        {
          "internalType": "uint256",
          "name": "marketId",
          "type": "uint256"
        }
      ],
      "name": "getOptions",
      "outputs": [
        {
          "components": [
            {
              "internalType": "string",
              "name": "label",
              "type": "string"
            },
            {
              "internalType": "uint256",
              "name": "priceTokens",
              "type": "uint256"
            },
            {
              "internalType": "uint256",
              "name": "tickets",
              "type": "uint256"
            },
            {
              "internalType": "uint256",
              "name": "volumeTokens",
              "type": "uint256"
            }
          ],
          "internalType": "struct EasyBet.Option[]",
          "name": "",
          "type": "tuple[]"
        }
      ],
      "stateMutability": "view",
      "type": "function"
    },
    {
      "inputs": [
        {
          "internalType": "uint256",
          "name": "marketId",
          "type": "uint256"
        },
        {
          "internalType": "uint8",
          "name": "optionId",
          "type": "uint8"
        }
      ],
      "name": "getOrderBookPriceLevels",
      "outputs": [
        {
          "internalType": "uint256[]",
          "name": "prices",
          "type": "uint256[]"
        }
      ],
      "stateMutability": "view",
      "type": "function"
    },
    {
      "inputs": [
        {
          "internalType": "uint256",
          "name": "marketId",
          "type": "uint256"
        },
        {
          "internalType": "uint8",
          "name": "optionId",
          "type": "uint8"
        },
        {
          "internalType": "uint256",
          "name": "price",
          "type": "uint256"
        }
      ],
      "name": "getOrderBookQuantityAtPrice",
      "outputs": [
        {
          "internalType": "uint256",
          "name": "",
          "type": "uint256"
        }
      ],
      "stateMutability": "view",
      "type": "function"
    },
    {
      "inputs": [
        {
          "internalType": "uint256",
          "name": "marketId",
          "type": "uint256"
        },
        {
          "internalType": "uint8",
          "name": "optionId",
          "type": "uint8"
        },
        {
          "internalType": "uint256",
          "name": "price",
          "type": "uint256"
        }
      ],
      "name": "getOrderBookTokensAtPrice",
      "outputs": [
        {
          "internalType": "uint256[]",
          "name": "tokenIds",
          "type": "uint256[]"
        }
      ],
      "stateMutability": "view",
      "type": "function"
    },
    {
      "inputs": [
        {
          "internalType": "bytes32",
          "name": "role",
          "type": "bytes32"
        }
      ],
      "name": "getRoleAdmin",
      "outputs": [
        {
          "internalType": "bytes32",
          "name": "",
          "type": "bytes32"
        }
      ],
      "stateMutability": "view",
      "type": "function"
    },
    {
      "inputs": [
        {
          "internalType": "bytes32",
          "name": "role",
          "type": "bytes32"
        },
        {
          "internalType": "address",
          "name": "account",
          "type": "address"
        }
      ],
      "name": "grantRole",
      "outputs": [],
      "stateMutability": "nonpayable",
      "type": "function"
    },
    {
      "inputs": [
        {
          "internalType": "bytes32",
          "name": "role",
          "type": "bytes32"
        },
        {
          "internalType": "address",
          "name": "account",
          "type": "address"
        }
      ],
      "name": "hasRole",
      "outputs": [
        {
          "internalType": "bool",
          "name": "",
          "type": "bool"
        }
      ],
      "stateMutability": "view",
      "type": "function"
    },
    {
      "inputs": [
        {
          "internalType": "uint256",
          "name": "tokenId",
          "type": "uint256"
        },
        {
          "internalType": "uint256",
          "name": "priceTokens",
          "type": "uint256"
        }
      ],
      "name": "listForSale",
      "outputs": [],
      "stateMutability": "nonpayable",
      "type": "function"
    },
    {
      "inputs": [
        {
          "internalType": "uint256",
          "name": "",
          "type": "uint256"
        }
      ],
      "name": "listings",
      "outputs": [
        {
          "internalType": "address",
          "name": "seller",
          "type": "address"
        },
        {
          "internalType": "uint256",
          "name": "priceTokens",
          "type": "uint256"
        }
      ],
      "stateMutability": "view",
      "type": "function"
    },
    {
      "inputs": [],
      "name": "marketCount",
      "outputs": [
        {
          "internalType": "uint256",
          "name": "",
          "type": "uint256"
        }
      ],
      "stateMutability": "view",
      "type": "function"
    },
    {
      "inputs": [
        {
          "internalType": "bytes32",
          "name": "role",
          "type": "bytes32"
        },
        {
          "internalType": "address",
          "name": "callerConfirmation",
          "type": "address"
        }
      ],
      "name": "renounceRole",
      "outputs": [],
      "stateMutability": "nonpayable",
      "type": "function"
    },
    {
      "inputs": [
        {
          "internalType": "uint256",
          "name": "marketId",
          "type": "uint256"
        },
        {
          "internalType": "uint8",
          "name": "winningOption",
          "type": "uint8"
        }
      ],
      "name": "resolve",
      "outputs": [],
      "stateMutability": "nonpayable",
      "type": "function"
    },
    {
      "inputs": [
        {
          "internalType": "bytes32",
          "name": "role",
          "type": "bytes32"
        },
        {
          "internalType": "address",
          "name": "account",
          "type": "address"
        }
      ],
      "name": "revokeRole",
      "outputs": [],
      "stateMutability": "nonpayable",
      "type": "function"
    },
    {
      "inputs": [
        {
          "internalType": "bytes4",
          "name": "interfaceId",
          "type": "bytes4"
        }
      ],
      "name": "supportsInterface",
      "outputs": [
        {
          "internalType": "bool",
          "name": "",
          "type": "bool"
        }
      ],
      "stateMutability": "view",
      "type": "function"
    },
    {
      "inputs": [],
      "name": "ticket",
      "outputs": [
        {
          "internalType": "contract TicketNFT",
          "name": "",
          "type": "address"
        }
      ],
      "stateMutability": "view",
      "type": "function"
    }
  ],
  "bytecode": "0x60c06040523480156200001157600080fd5b5060405162004fe238038062004fe2833981016040819052620000349162000271565b600180556200004560008362000197565b50620000727fa49807205ce4d355092ef5a8a18f56e8913cf4a201fbe287825b095693c217758362000197565b506001600160a01b03811660a0526040513090620000909062000246565b6001600160a01b039091168152602001604051809103906000f080158015620000bd573d6000803e3d6000fd5b506001600160a01b031660808190526040805163d539139360e01b81529051632f2ff15d91839163d5391393916004808201926020929091908290030181865afa15801562000110573d6000803e3d6000fd5b505050506040513d601f19601f82011682018060405250810190620001369190620002a9565b6040516001600160e01b031960e084901b1681526004810191909152306024820152604401600060405180830381600087803b1580156200017657600080fd5b505af11580156200018b573d6000803e3d6000fd5b505050505050620002c3565b6000828152602081815260408083206001600160a01b038516845290915281205460ff166200023c576000838152602081815260408083206001600160a01b03861684529091529020805460ff19166001179055620001f33390565b6001600160a01b0316826001600160a01b0316847f2f8788117e7eff1d82e926ec794901d17c78024a50270940304540a733656f0d60405160405180910390a450600162000240565b5060005b92915050565b611cbb806200332783390190565b80516001600160a01b03811681146200026c57600080fd5b919050565b600080604083850312156200028557600080fd5b620002908362000254565b9150620002a06020840162000254565b90509250929050565b600060208284031215620002bc57600080fd5b5051919050565b60805160a051612fdc6200034b6000396000818161026b01528181610b04015281816114220152818161167401528181611c16015261219d01526000818161022c015281816105530152818161086e01528181610988015281816114d8015281816118c70152818161199001528181611d09015281816120d701526122530152612fdc6000f3fe608060405234801561001057600080fd5b506004361061018e5760003560e01c80639c0e1608116100de578063dfa9ba8511610097578063eb44fdd311610071578063eb44fdd31461040a578063ec97908214610431578063f495360d1461043a578063fb374bcf1461044d57600080fd5b8063dfa9ba85146103d1578063e80d7fec146103e4578063e90bc7b1146103f757600080fd5b80639c0e16081461031b578063a217fddf1461032e578063cbffab2814610336578063d547741f14610349578063dbe7e3bd1461035c578063de74e57b1461037f57600080fd5b8063740513ea1161014b5780638915b3fb116101255780638915b3fb146102c25780638a69614e146102e25780638ffabf87146102f557806391d148541461030857600080fd5b8063740513ea1461026657806375b238fc1461028d578063873a3773146102a257600080fd5b806301ffc9a714610193578063248a9ca3146101bb5780632f2ff15d146101ec578063305a67a81461020157806336568abe146102145780636cc25db714610227575b600080fd5b6101a66101a13660046126ef565b610460565b60405190151581526020015b60405180910390f35b6101de6101c9366004612719565b60009081526020819052604090206001015490565b6040519081526020016101b2565b6101ff6101fa366004612757565b610497565b005b6101ff61020f366004612719565b6104c2565b6101ff610222366004612757565b61062d565b61024e7f000000000000000000000000000000000000000000000000000000000000000081565b6040516001600160a01b0390911681526020016101b2565b61024e7f000000000000000000000000000000000000000000000000000000000000000081565b6101de600080516020612f8783398151915281565b6102b56102b0366004612796565b610665565b6040516101b291906127ce565b6102d56102d0366004612719565b610729565b6040516101b29190612858565b6101ff6102f0366004612719565b610846565b6102b56103033660046128e3565b610bdc565b6101a6610316366004612757565b610d8b565b6101ff6103293660046128e3565b610db4565b6101de600081565b6101de6103443660046128e3565b611057565b6101ff610357366004612757565b611591565b6101a661036a366004612719565b60056020526000908152604090205460ff1681565b6103b261038d366004612719565b600460205260009081526040902080546001909101546001600160a01b039091169082565b604080516001600160a01b0390931683526020830191909152016101b2565b6101de6103df366004612ae1565b6115b6565b6101ff6103f2366004612bb8565b6118a7565b6101de6104053660046128e3565b611b36565b61041d610418366004612719565b611e27565b6040516101b2989796959493929190612bf0565b6101de60025481565b6101de610448366004612796565b611fbd565b6101ff61045b366004612719565b611ff2565b60006001600160e01b03198216637965db0b60e01b148061049157506301ffc9a760e01b6001600160e01b03198316145b92915050565b6000828152602081905260409020600101546104b28161230a565b6104bc8383612314565b50505050565b600081815260046020908152604091829020825180840190935280546001600160a01b03168084526001909101549183019190915233146105375760405162461bcd60e51b815260206004820152600a6024820152693737ba1039b2b63632b960b11b60448201526064015b60405180910390fd5b604051600162665f9d60e01b03198152600481018390526000907f00000000000000000000000000000000000000000000000000000000000000006001600160a01b03169063ff99a063906024016040805180830381865afa1580156105a1573d6000803e3d6000fd5b505050506040513d601f19601f820116820180604052508101906105c59190612c80565b90506105df816000015182602001518460200151866123a6565b60008381526004602052604080822080546001600160a01b03191681556001018290555184917f6318005f6dc5a71d3e4ad5b4d1fe455ef3402d62b64573777af55bb6bfe3daab91a2505050565b6001600160a01b03811633146106565760405163334bd91960e11b815260040160405180910390fd5b6106608282612436565b505050565b600083815260076020908152604080832060ff8616845282528083208484529091528120606091610695826124a1565b9050806001600160401b038111156106af576106af612908565b6040519080825280602002602001820160405280156106d8578160200160208202803683370190505b50925060005b8181101561071f576106f083826124ab565b84828151811061070257610702612cd5565b60209081029190910101528061071781612d01565b9150506106de565b5050509392505050565b60606000610736836124be565b6005810180546040805160208084028201810190925282815293945060009084015b8282101561083a578382906000526020600020906004020160405180608001604052908160008201805461078b90612d1a565b80601f01602080910402602001604051908101604052809291908181526020018280546107b790612d1a565b80156108045780601f106107d957610100808354040283529160200191610804565b820191906000526020600020905b8154815290600101906020018083116107e757829003601f168201915b50505050508152602001600182015481526020016002820154815260200160038201548152505081526020019060010190610758565b50505050915050919050565b61084e61250c565b6040516331a9108f60e11b81526004810182905233906001600160a01b037f00000000000000000000000000000000000000000000000000000000000000001690636352211e90602401602060405180830381865afa1580156108b5573d6000803e3d6000fd5b505050506040513d601f19601f820116820180604052508101906108d99190612d54565b6001600160a01b03161461091b5760405162461bcd60e51b81526020600482015260096024820152683737ba1037bbb732b960b91b604482015260640161052e565b60008181526005602052604090205460ff161561096c5760405162461bcd60e51b815260206004820152600f60248201526e185b1c9958591e4818db185a5b5959608a1b604482015260640161052e565b604051600162665f9d60e01b03198152600481018290526000907f00000000000000000000000000000000000000000000000000000000000000006001600160a01b03169063ff99a063906024016040805180830381865afa1580156109d6573d6000803e3d6000fd5b505050506040513d601f19601f820116820180604052508101906109fa9190612c80565b90506000610a0b82600001516124be565b905060016004820154600160401b900460ff166001811115610a2f57610a2f612bda565b14610a6b5760405162461bcd60e51b815260206004820152600c60248201526b1b9bdd081c995cdbdb1d995960a21b604482015260640161052e565b6004810154602083015160ff908116600160481b9092041614610ac05760405162461bcd60e51b815260206004820152600d60248201526c1b1bdcda5b99c81d1a58dad95d609a1b604482015260640161052e565b60008381526005602052604090819020805460ff191660011790556009820154905163a9059cbb60e01b815233600482015260248101919091526001600160a01b037f0000000000000000000000000000000000000000000000000000000000000000169063a9059cbb906044016020604051808303816000875af1158015610b4d573d6000803e3d6000fd5b505050506040513d601f19601f82011682018060405250810190610b719190612d71565b610b8d5760405162461bcd60e51b815260040161052e90612d93565b600981015460408051338152602081019290925284917f4ec90e965519d92681267467f775ada5bd214aa92c0dc93d90a5e880ce9ed026910160405180910390a25050610bd960018055565b50565b600082815260086020908152604080832060ff851684529091528120606091610c04826124a1565b9050806001600160401b03811115610c1e57610c1e612908565b604051908082528060200260200182016040528015610c47578160200160208202803683370190505b50925060005b81811015610c8e57610c5f83826124ab565b848281518110610c7157610c71612cd5565b602090810291909101015280610c8681612d01565b915050610c4d565b5060005b8351811015610d82576000610ca8826001612dbc565b90505b8451811015610d6f57848181518110610cc657610cc6612cd5565b6020026020010151858381518110610ce057610ce0612cd5565b60200260200101511115610d5d57848181518110610d0057610d00612cd5565b6020026020010151858381518110610d1a57610d1a612cd5565b6020026020010151868481518110610d3457610d34612cd5565b60200260200101878481518110610d4d57610d4d612cd5565b6020908102919091010191909152525b80610d6781612d01565b915050610cab565b5080610d7a81612d01565b915050610c92565b50505092915050565b6000918252602082815260408084206001600160a01b0393909316845291905290205460ff1690565b6000610dbf836124be565b60028101549091506001600160a01b0316331480610df05750610df0600080516020612f8783398151915233610d8b565b610e2f5760405162461bcd60e51b815260206004820152601060248201526f3737ba1037b930b1b63297b0b236b4b760811b604482015260640161052e565b60006004820154600160401b900460ff166001811115610e5157610e51612bda565b14610e915760405162461bcd60e51b815260206004820152601060248201526f185b1c9958591e481c995cdbdb1d995960821b604482015260640161052e565b600581015460ff831610610ed45760405162461bcd60e51b815260206004820152600a6024820152693130b21037b83a34b7b760b11b604482015260640161052e565b60048101546001600160401b031615801590610f055750610f03600080516020612f8783398151915233610d8b565b155b15610f535760048101546001600160401b0316421015610f535760405162461bcd60e51b8152602060048201526009602482015268746f6f206561726c7960b81b604482015260640161052e565b60048101805460ff8416600160481b810269ffff00000000000000001990921691909117600160401b179091556005820180549091908110610f9757610f97612cd5565b600091825260209091206002600490920201015460088201819055610feb5760405162461bcd60e51b815260206004820152600a6024820152696e6f2077696e6e65727360b01b604482015260640161052e565b80600801548160030154610fff9190612dcf565b6009820181905560088201546040805160ff86168152602081019290925281019190915283907f503d167e0856e2f40aaac2dac6550f9543efb837691cc189cde53b0172e4f32b9060600160405180910390a2505050565b600061106161250c565b600083815260086020908152604080832060ff86168452909152812090611087826124a1565b116110c25760405162461bcd60e51b815260206004820152600b60248201526a6e6f206c697374696e677360a81b604482015260640161052e565b60006110cd826124a1565b6001600160401b038111156110e4576110e4612908565b60405190808252806020026020018201604052801561110d578160200160208202803683370190505b50905060005b61111c836124a1565b81101561115c5761112d83826124ab565b82828151811061113f5761113f612cd5565b60209081029190910101528061115481612d01565b915050611113565b5060005b8151811015611250576000611176826001612dbc565b90505b825181101561123d5782818151811061119457611194612cd5565b60200260200101518383815181106111ae576111ae612cd5565b6020026020010151111561122b578281815181106111ce576111ce612cd5565b60200260200101518383815181106111e8576111e8612cd5565b602002602001015184848151811061120257611202612cd5565b6020026020010185848151811061121b5761121b612cd5565b6020908102919091010191909152525b8061123581612d01565b915050611179565b508061124881612d01565b915050611160565b506000805b825181101561135b57600083828151811061127257611272612cd5565b60209081029190910181015160008a815260078352604080822060ff8c1683528452808220838352909352918220909250905b6112ae826124a1565b8110156113385760006112c183836124ab565b600081815260046020908152604091829020825180840190935280546001600160a01b0316808452600190910154918301919091529192509015801590611312575080516001600160a01b03163314155b156113235750975060019450611338565b5050808061133090612d01565b9150506112a5565b50831561134657505061135b565b5050808061135390612d01565b915050611255565b50806113a95760405162461bcd60e51b815260206004820152601e60248201527f6e6f206c697374696e67732066726f6d206f746865722073656c6c6572730000604482015260640161052e565b600084815260046020908152604091829020825180840190935280546001600160a01b03168352600101549082018190526113e89088908890886123a6565b600085815260046020818152604080842080546001600160a01b03191681556001019390935583519084015192516323b872dd60e01b81527f00000000000000000000000000000000000000000000000000000000000000006001600160a01b0316936323b872dd9361146093339390929101612df1565b6020604051808303816000875af115801561147f573d6000803e3d6000fd5b505050506040513d601f19601f820116820180604052508101906114a39190612d71565b6114bf5760405162461bcd60e51b815260040161052e90612d93565b8051604051632142170760e11b81526001600160a01b037f000000000000000000000000000000000000000000000000000000000000000016906342842e0e9061151190849033908b90600401612df1565b600060405180830381600087803b15801561152b57600080fd5b505af115801561153f573d6000803e3d6000fd5b50505050857f888231f55a3cd8fd72276bc1b12ed5a60f8d92e62d288e64bf29dd6e5fc7809a8233856020015160405161157b93929190612df1565b60405180910390a2505050505061049160018055565b6000828152602081905260409020600101546115ac8161230a565b6104bc8383612436565b6000600080516020612f878339815191526115d08161230a565b6002855110156116145760405162461bcd60e51b815260206004820152600f60248201526e6e65656420322b206f7074696f6e7360881b604482015260640161052e565b83518551146116575760405162461bcd60e51b815260206004820152600f60248201526e0d8cadccee8d040dad2e6dac2e8c6d608b1b604482015260640161052e565b821561170c576040516323b872dd60e01b81526001600160a01b037f000000000000000000000000000000000000000000000000000000000000000016906323b872dd906116ad90339030908890600401612df1565b6020604051808303816000875af11580156116cc573d6000803e3d6000fd5b505050506040513d601f19601f820116820180604052508101906116f09190612d71565b61170c5760405162461bcd60e51b815260040161052e90612d93565b60026000815461171b90612d01565b918290555060008181526003602052604090209092508061173c8b82612e63565b506001810161174b8a82612e63565b506002810180546001600160a01b038a166001600160a01b031990911617905560048101805468ffffffffffffffffff19166001600160401b03891617905560068101805460ff191660011790556003810184905560005b865181101561185f578160050160405180608001604052808984815181106117cd576117cd612cd5565b602002602001015181526020018884815181106117ec576117ec612cd5565b60209081029190910181015182526000828201819052604090920182905283546001810185559382529020815191926004020190819061182c9082612e63565b5060208201516001820155604082015160028201556060909101516003909101558061185781612d01565b9150506117a3565b50827f2d1e9ad45dbe8e898e0374deebf2a661b2ae7c1855d2a29507d584c35d287c758b86604051611892929190612f22565b60405180910390a25050979650505050505050565b6040516331a9108f60e11b81526004810183905233906001600160a01b037f00000000000000000000000000000000000000000000000000000000000000001690636352211e90602401602060405180830381865afa15801561190e573d6000803e3d6000fd5b505050506040513d601f19601f820116820180604052508101906119329190612d54565b6001600160a01b0316146119745760405162461bcd60e51b81526020600482015260096024820152683737ba1037bbb732b960b91b604482015260640161052e565b604051600162665f9d60e01b03198152600481018390526000907f00000000000000000000000000000000000000000000000000000000000000006001600160a01b03169063ff99a063906024016040805180830381865afa1580156119de573d6000803e3d6000fd5b505050506040513d601f19601f82011682018060405250810190611a029190612c80565b600084815260046020908152604091829020825180840190935280546001600160a01b0316808452600190910154918301919091529192509015611a5857611a58826000015183602001518360200151876123a6565b6040805180820182523381526020808201868152600088815260048352848120935184546001600160a01b0319166001600160a01b03909116178455905160019093019290925584518252600781528282208582015160ff1683528152828220868352905220611ac89085612536565b50815160009081526008602090815260408083208286015160ff1684529091529020611af49084612536565b50604080513381526020810185905285917f50955776c5778c3b7d968d86d8c51fb6b29a7a74c20866b533268e209fc08343910160405180910390a250505050565b6000611b4061250c565b6000611b4b846124be565b905060006004820154600160401b900460ff166001811115611b6f57611b6f612bda565b14611ba75760405162461bcd60e51b81526020600482015260086024820152673737ba1037b832b760c11b604482015260640161052e565b600581015460ff841610611bea5760405162461bcd60e51b815260206004820152600a6024820152693130b21037b83a34b7b760b11b604482015260640161052e565b6000816005018460ff1681548110611c0457611c04612cd5565b906000526020600020906004020190507f00000000000000000000000000000000000000000000000000000000000000006001600160a01b03166323b872dd333084600101546040518463ffffffff1660e01b8152600401611c6893929190612df1565b6020604051808303816000875af1158015611c87573d6000803e3d6000fd5b505050506040513d601f19601f82011682018060405250810190611cab9190612d71565b611cc75760405162461bcd60e51b815260040161052e90612d93565b8060010154826003016000828254611cdf9190612dbc565b9091555050604051631844ba2b60e21b81523360048201526024810186905260ff851660448201527f00000000000000000000000000000000000000000000000000000000000000006001600160a01b031690636112e8ac906064016020604051808303816000875af1158015611d5a573d6000803e3d6000fd5b505050506040513d601f19601f82011682018060405250810190611d7e9190612f44565b92506001816002016000828254611d959190612dbc565b90915550506001810154600382018054600090611db3908490612dbc565b925050819055506001826007016000828254611dcf9190612dbc565b90915550506001810154604080513381526020810192909252849160ff87169188917f0ce7fdbfb76393ae1f4ca6b4abe1d046e7b87a6d253e03fdf67e1fcf200ffe5e910160405180910390a4505061049160018055565b6060806000806000806000806000611e3e8a6124be565b60028101546003820154600483015460078401548454949550859460018601946001600160a01b031693926001600160401b0381169260ff600160401b8304811693600160481b90930416918890611e9590612d1a565b80601f0160208091040260200160405190810160405280929190818152602001828054611ec190612d1a565b8015611f0e5780601f10611ee357610100808354040283529160200191611f0e565b820191906000526020600020905b815481529060010190602001808311611ef157829003601f168201915b50505050509750868054611f2190612d1a565b80601f0160208091040260200160405190810160405280929190818152602001828054611f4d90612d1a565b8015611f9a5780601f10611f6f57610100808354040283529160200191611f9a565b820191906000526020600020905b815481529060010190602001808311611f7d57829003601f168201915b505050505096509850985098509850985098509850985050919395975091939597565b600083815260076020908152604080832060ff8616845282528083208484529091528120611fea906124a1565b949350505050565b611ffa61250c565b600081815260046020908152604091829020825180840190935280546001600160a01b0316808452600190910154918301919091526120685760405162461bcd60e51b815260206004820152600a6024820152691b9bdd081b1a5cdd195960b21b604482015260640161052e565b8051336001600160a01b03909116036120bb5760405162461bcd60e51b815260206004820152601560248201527418d85b9b9bdd08189d5e481bdddb881d1a58dad95d605a1b604482015260640161052e565b604051600162665f9d60e01b03198152600481018390526000907f00000000000000000000000000000000000000000000000000000000000000006001600160a01b03169063ff99a063906024016040805180830381865afa158015612125573d6000803e3d6000fd5b505050506040513d601f19601f820116820180604052508101906121499190612c80565b9050612163816000015182602001518460200151866123a6565b600083815260046020818152604080842080546001600160a01b03191681556001019390935584519085015192516323b872dd60e01b81527f00000000000000000000000000000000000000000000000000000000000000006001600160a01b0316936323b872dd936121db93339390929101612df1565b6020604051808303816000875af11580156121fa573d6000803e3d6000fd5b505050506040513d601f19601f8201168201806040525081019061221e9190612d71565b61223a5760405162461bcd60e51b815260040161052e90612d93565b8151604051632142170760e11b81526001600160a01b037f000000000000000000000000000000000000000000000000000000000000000016906342842e0e9061228c90849033908990600401612df1565b600060405180830381600087803b1580156122a657600080fd5b505af11580156122ba573d6000803e3d6000fd5b50505050837f888231f55a3cd8fd72276bc1b12ed5a60f8d92e62d288e64bf29dd6e5fc7809a823386602001516040516122f693929190612df1565b60405180910390a2505050610bd960018055565b610bd98133612542565b60006123208383610d8b565b61239e576000838152602081815260408083206001600160a01b03861684529091529020805460ff191660011790556123563390565b6001600160a01b0316826001600160a01b0316847f2f8788117e7eff1d82e926ec794901d17c78024a50270940304540a733656f0d60405160405180910390a4506001610491565b506000610491565b600084815260076020908152604080832060ff87168452825280832085845290915290206123d4908261257f565b50600084815260076020908152604080832060ff8716845282528083208584529091529020612402906124a1565b6000036104bc57600084815260086020908152604080832060ff87168452909152902061242f908361257f565b5050505050565b60006124428383610d8b565b1561239e576000838152602081815260408083206001600160a01b0386168085529252808320805460ff1916905551339286917ff6391f5c32d9c69d2a47ea670b442974b53935d1edc7fd64eb21e047a839171b9190a4506001610491565b6000610491825490565b60006124b7838361258b565b9392505050565b6000818152600360205260408120600681015460ff166104915760405162461bcd60e51b81526020600482015260096024820152681b9bc81b585c9ad95d60ba1b604482015260640161052e565b60026001540361252f57604051633ee5aeb560e01b815260040160405180910390fd5b6002600155565b60006124b783836125b5565b61254c8282610d8b565b61257b5760405163e2517d3f60e01b81526001600160a01b03821660048201526024810183905260440161052e565b5050565b60006124b783836125fc565b60008260000182815481106125a2576125a2612cd5565b9060005260206000200154905092915050565b600081815260018301602052604081205461239e57508154600181810184556000848152602080822090930184905584548482528286019093526040902091909155610491565b600081815260018301602052604081205480156126e5576000612620600183612f5d565b855490915060009061263490600190612f5d565b905080821461269957600086600001828154811061265457612654612cd5565b906000526020600020015490508087600001848154811061267757612677612cd5565b6000918252602080832090910192909255918252600188019052604090208390555b85548690806126aa576126aa612f70565b600190038181906000526020600020016000905590558560010160008681526020019081526020016000206000905560019350505050610491565b6000915050610491565b60006020828403121561270157600080fd5b81356001600160e01b0319811681146124b757600080fd5b60006020828403121561272b57600080fd5b5035919050565b6001600160a01b0381168114610bd957600080fd5b803561275281612732565b919050565b6000806040838503121561276a57600080fd5b82359150602083013561277c81612732565b809150509250929050565b60ff81168114610bd957600080fd5b6000806000606084860312156127ab57600080fd5b8335925060208401356127bd81612787565b929592945050506040919091013590565b6020808252825182820181905260009190848201906040850190845b81811015612806578351835292840192918401916001016127ea565b50909695505050505050565b6000815180845260005b818110156128385760208185018101518683018201520161281c565b506000602082860101526020601f19601f83011685010191505092915050565b60006020808301818452808551808352604092508286019150828160051b87010184880160005b838110156128d557603f198984030185528151608081518186526128a582870182612812565b838b0151878c0152898401518a88015260609384015193909601929092525050938601939086019060010161287f565b509098975050505050505050565b600080604083850312156128f657600080fd5b82359150602083013561277c81612787565b634e487b7160e01b600052604160045260246000fd5b604051601f8201601f191681016001600160401b038111828210171561294657612946612908565b604052919050565b600082601f83011261295f57600080fd5b81356001600160401b0381111561297857612978612908565b61298b601f8201601f191660200161291e565b8181528460208386010111156129a057600080fd5b816020850160208301376000918101602001919091529392505050565b80356001600160401b038116811461275257600080fd5b60006001600160401b038211156129ed576129ed612908565b5060051b60200190565b600082601f830112612a0857600080fd5b81356020612a1d612a18836129d4565b61291e565b82815260059290921b84018101918181019086841115612a3c57600080fd5b8286015b84811015612a7b5780356001600160401b03811115612a5f5760008081fd5b612a6d8986838b010161294e565b845250918301918301612a40565b509695505050505050565b600082601f830112612a9757600080fd5b81356020612aa7612a18836129d4565b82815260059290921b84018101918181019086841115612ac657600080fd5b8286015b84811015612a7b5780358352918301918301612aca565b600080600080600080600060e0888a031215612afc57600080fd5b87356001600160401b0380821115612b1357600080fd5b612b1f8b838c0161294e565b985060208a0135915080821115612b3557600080fd5b612b418b838c0161294e565b9750612b4f60408b01612747565b9650612b5d60608b016129bd565b955060808a0135915080821115612b7357600080fd5b612b7f8b838c016129f7565b945060a08a0135915080821115612b9557600080fd5b50612ba28a828b01612a86565b92505060c0880135905092959891949750929550565b60008060408385031215612bcb57600080fd5b50508035926020909101359150565b634e487b7160e01b600052602160045260246000fd5b6000610100808352612c048184018c612812565b90508281036020840152612c18818b612812565b6001600160a01b038a166040850152606084018990526001600160401b038816608085015291505060028510612c5e57634e487b7160e01b600052602160045260246000fd5b8460a083015260ff841660c08301528260e08301529998505050505050505050565b600060408284031215612c9257600080fd5b604051604081018181106001600160401b0382111715612cb457612cb4612908565b604052825181526020830151612cc981612787565b60208201529392505050565b634e487b7160e01b600052603260045260246000fd5b634e487b7160e01b600052601160045260246000fd5b600060018201612d1357612d13612ceb565b5060010190565b600181811c90821680612d2e57607f821691505b602082108103612d4e57634e487b7160e01b600052602260045260246000fd5b50919050565b600060208284031215612d6657600080fd5b81516124b781612732565b600060208284031215612d8357600080fd5b815180151581146124b757600080fd5b6020808252600f908201526e1d1c985b9cd9995c8819985a5b1959608a1b604082015260600190565b8082018082111561049157610491612ceb565b600082612dec57634e487b7160e01b600052601260045260246000fd5b500490565b6001600160a01b039384168152919092166020820152604081019190915260600190565b601f82111561066057600081815260208120601f850160051c81016020861015612e3c5750805b601f850160051c820191505b81811015612e5b57828155600101612e48565b505050505050565b81516001600160401b03811115612e7c57612e7c612908565b612e9081612e8a8454612d1a565b84612e15565b602080601f831160018114612ec55760008415612ead5750858301515b600019600386901b1c1916600185901b178555612e5b565b600085815260208120601f198616915b82811015612ef457888601518255948401946001909101908401612ed5565b5085821015612f125787850151600019600388901b60f8161c191681555b5050505050600190811b01905550565b604081526000612f356040830185612812565b90508260208301529392505050565b600060208284031215612f5657600080fd5b5051919050565b8181038181111561049157610491612ceb565b634e487b7160e01b600052603160045260246000fdfea49807205ce4d355092ef5a8a18f56e8913cf4a201fbe287825b095693c21775a26469706673582212204deb66d55e3d43eeb96228792389beeb195f17122e22b7efd6e14714380e307f64736f6c6343000814003360806040526001600c553480156200001657600080fd5b5060405162001cbb38038062001cbb833981016040819052620000399162000169565b6040518060400160405280600e81526020016d11585cde50995d08151a58dad95d60921b8152506040518060400160405280600381526020016211509560ea1b81525081600090816200008d919062000240565b5060016200009c828262000240565b50620000ae91506000905082620000b6565b50506200030c565b6000828152600a602090815260408083206001600160a01b038516845290915281205460ff166200015f576000838152600a602090815260408083206001600160a01b03861684529091529020805460ff19166001179055620001163390565b6001600160a01b0316826001600160a01b0316847f2f8788117e7eff1d82e926ec794901d17c78024a50270940304540a733656f0d60405160405180910390a450600162000163565b5060005b92915050565b6000602082840312156200017c57600080fd5b81516001600160a01b03811681146200019457600080fd5b9392505050565b634e487b7160e01b600052604160045260246000fd5b600181811c90821680620001c657607f821691505b602082108103620001e757634e487b7160e01b600052602260045260246000fd5b50919050565b601f8211156200023b57600081815260208120601f850160051c81016020861015620002165750805b601f850160051c820191505b81811015620002375782815560010162000222565b5050505b505050565b81516001600160401b038111156200025c576200025c6200019b565b62000274816200026d8454620001b1565b84620001ed565b602080601f831160018114620002ac5760008415620002935750858301515b600019600386901b1c1916600185901b17855562000237565b600085815260208120601f198616915b82811015620002dd57888601518255948401946001909101908401620002bc565b5085821015620002fc5787850151600019600388901b60f8161c191681555b5050505050600190811b01905550565b61199f806200031c6000396000f3fe608060405234801561001057600080fd5b50600436106101a95760003560e01c80636352211e116100f9578063b88d4fde11610097578063d547741f11610071578063d547741f146103ae578063e985e9c5146103c1578063fa713083146103d4578063ff99a0631461041557600080fd5b8063b88d4fde14610361578063c87b56dd14610374578063d53913931461038757600080fd5b806391d14854116100d357806391d148541461032b57806395d89b411461033e578063a217fddf14610346578063a22cb4651461034e57600080fd5b80636352211e146102e557806370a08231146102f85780638462151c1461030b57600080fd5b8063248a9ca31161016657806336568abe1161014057806336568abe1461029957806342842e0e146102ac5780634f6ccce7146102bf5780636112e8ac146102d257600080fd5b8063248a9ca3146102505780632f2ff15d146102735780632f745c591461028657600080fd5b806301ffc9a7146101ae57806306fdde03146101d6578063081812fc146101eb578063095ea7b31461021657806318160ddd1461022b57806323b872dd1461023d575b600080fd5b6101c16101bc3660046114f4565b610482565b60405190151581526020015b60405180910390f35b6101de610493565b6040516101cd9190611561565b6101fe6101f9366004611574565b610525565b6040516001600160a01b0390911681526020016101cd565b6102296102243660046115a9565b61054e565b005b6008545b6040519081526020016101cd565b61022961024b3660046115d3565b61055d565b61022f61025e366004611574565b6000908152600a602052604090206001015490565b61022961028136600461160f565b6105ed565b61022f6102943660046115a9565b610612565b6102296102a736600461160f565b610677565b6102296102ba3660046115d3565b6106af565b61022f6102cd366004611574565b6106ca565b61022f6102e036600461163b565b610723565b6101fe6102f3366004611574565b6107b6565b61022f610306366004611681565b6107c1565b61031e610319366004611681565b610809565b6040516101cd919061169c565b6101c161033936600461160f565b6108ab565b6101de6108d6565b61022f600081565b61022961035c3660046116e0565b6108e5565b61022961036f366004611732565b6108f0565b6101de610382366004611574565b610908565b61022f7f9f2df0fed2c77648de5860a4cc508cd0818c85b8b8a1ab4ceeef8d981c8956a681565b6102296103bc36600461160f565b61097d565b6101c16103cf36600461180e565b6109a2565b6103fe6103e2366004611574565b600b602052600090815260409020805460019091015460ff1682565b6040805192835260ff9091166020830152016101cd565b610464610423366004611574565b6040805180820190915260008082526020820152506000908152600b60209081526040918290208251808401909352805483526001015460ff169082015290565b604080518251815260209283015160ff1692810192909252016101cd565b600061048d826109d0565b92915050565b6060600080546104a290611838565b80601f01602080910402602001604051908101604052809291908181526020018280546104ce90611838565b801561051b5780601f106104f05761010080835404028352916020019161051b565b820191906000526020600020905b8154815290600101906020018083116104fe57829003601f168201915b5050505050905090565b6000610530826109f5565b506000828152600460205260409020546001600160a01b031661048d565b610559828233610a2e565b5050565b6001600160a01b03821661058c57604051633250574960e11b8152600060048201526024015b60405180910390fd5b6000610599838333610a3b565b9050836001600160a01b0316816001600160a01b0316146105e7576040516364283d7b60e01b81526001600160a01b0380861660048301526024820184905282166044820152606401610583565b50505050565b6000828152600a602052604090206001015461060881610b10565b6105e78383610b1d565b600061061d836107c1565b821061064e5760405163295f44f760e21b81526001600160a01b038416600482015260248101839052604401610583565b506001600160a01b03919091166000908152600660209081526040808320938352929052205490565b6001600160a01b03811633146106a05760405163334bd91960e11b815260040160405180910390fd5b6106aa8282610bb1565b505050565b6106aa838383604051806020016040528060008152506108f0565b60006106d560085490565b82106106fe5760405163295f44f760e21b81526000600482015260248101839052604401610583565b6008828154811061071157610711611872565b90600052602060002001549050919050565b60007f9f2df0fed2c77648de5860a4cc508cd0818c85b8b8a1ab4ceeef8d981c8956a661074f81610b10565b600c805490600061075f8361189e565b91905055915061076f8583610c1e565b5060408051808201825293845260ff92831660208086019182526000848152600b9091529190912093518455516001909301805460ff191693909216929092179055919050565b600061048d826109f5565b60006001600160a01b0382166107ed576040516322718ad960e21b815260006004820152602401610583565b506001600160a01b031660009081526003602052604090205490565b60606000610816836107c1565b905060008167ffffffffffffffff8111156108335761083361171c565b60405190808252806020026020018201604052801561085c578160200160208202803683370190505b50905060005b828110156108a3576108748582610612565b82828151811061088657610886611872565b60209081029190910101528061089b8161189e565b915050610862565b509392505050565b6000918252600a602090815260408084206001600160a01b0393909316845291905290205460ff1690565b6060600180546104a290611838565b610559338383610c38565b6108fb84848461055d565b6105e73385858585610cd7565b6060610913826109f5565b50600061092b60408051602081019091526000815290565b9050600081511161094b5760405180602001604052806000815250610976565b8061095584610e02565b6040516020016109669291906118b7565b6040516020818303038152906040525b9392505050565b6000828152600a602052604090206001015461099881610b10565b6105e78383610bb1565b6001600160a01b03918216600090815260056020908152604080832093909416825291909152205460ff1690565b60006001600160e01b03198216637965db0b60e01b148061048d575061048d82610e95565b6000818152600260205260408120546001600160a01b03168061048d57604051637e27328960e01b815260048101849052602401610583565b6106aa8383836001610eba565b600080610a49858585610fc0565b90506001600160a01b038116610aa657610aa184600880546000838152600960205260408120829055600182018355919091527ff3f7a9fe364faab93b216da50a3214154f22a0a2b415b23a84c8169e8b636ee30155565b610ac9565b846001600160a01b0316816001600160a01b031614610ac957610ac981856110b9565b6001600160a01b038516610ae557610ae08461113a565b610b08565b846001600160a01b0316816001600160a01b031614610b0857610b0885856111e9565b949350505050565b610b1a8133611239565b50565b6000610b2983836108ab565b610ba9576000838152600a602090815260408083206001600160a01b03861684529091529020805460ff19166001179055610b613390565b6001600160a01b0316826001600160a01b0316847f2f8788117e7eff1d82e926ec794901d17c78024a50270940304540a733656f0d60405160405180910390a450600161048d565b50600061048d565b6000610bbd83836108ab565b15610ba9576000838152600a602090815260408083206001600160a01b0386168085529252808320805460ff1916905551339286917ff6391f5c32d9c69d2a47ea670b442974b53935d1edc7fd64eb21e047a839171b9190a450600161048d565b610559828260405180602001604052806000815250611272565b6001600160a01b038216610c6a57604051630b61174360e31b81526001600160a01b0383166004820152602401610583565b6001600160a01b03838116600081815260056020908152604080832094871680845294825291829020805460ff191686151590811790915591519182527f17307eab39ab6107e8899845ad3d59bd9653f200f220920489ca2b5937696c31910160405180910390a3505050565b6001600160a01b0383163b15610dfb57604051630a85bd0160e11b81526001600160a01b0384169063150b7a0290610d199088908890879087906004016118e6565b6020604051808303816000875af1925050508015610d54575060408051601f3d908101601f19168201909252610d5191810190611923565b60015b610dbd573d808015610d82576040519150601f19603f3d011682016040523d82523d6000602084013e610d87565b606091505b508051600003610db557604051633250574960e11b81526001600160a01b0385166004820152602401610583565b805160208201fd5b6001600160e01b03198116630a85bd0160e11b14610df957604051633250574960e11b81526001600160a01b0385166004820152602401610583565b505b5050505050565b60606000610e0f8361128a565b600101905060008167ffffffffffffffff811115610e2f57610e2f61171c565b6040519080825280601f01601f191660200182016040528015610e59576020820181803683370190505b5090508181016020015b600019016f181899199a1a9b1b9c1cb0b131b232b360811b600a86061a8153600a8504945084610e6357509392505050565b60006001600160e01b0319821663780e9d6360e01b148061048d575061048d82611362565b8080610ece57506001600160a01b03821615155b15610f90576000610ede846109f5565b90506001600160a01b03831615801590610f0a5750826001600160a01b0316816001600160a01b031614155b8015610f1d5750610f1b81846109a2565b155b15610f465760405163a9fbf51f60e01b81526001600160a01b0384166004820152602401610583565b8115610f8e5783856001600160a01b0316826001600160a01b03167f8c5be1e5ebec7d5bd14f71427d1e84f3dd0314c0f7b2291e5b200ac8c7c3b92560405160405180910390a45b505b5050600090815260046020526040902080546001600160a01b0319166001600160a01b0392909216919091179055565b6000828152600260205260408120546001600160a01b0390811690831615610fed57610fed8184866113b2565b6001600160a01b0381161561102b5761100a600085600080610eba565b6001600160a01b038116600090815260036020526040902080546000190190555b6001600160a01b0385161561105a576001600160a01b0385166000908152600360205260409020805460010190555b60008481526002602052604080822080546001600160a01b0319166001600160a01b0389811691821790925591518793918516917fddf252ad1be2c89b69c2b068fc378daa952ba7f163c4a11628f55a4df523b3ef91a4949350505050565b60006110c4836107c1565b6000838152600760209081526040808320546001600160a01b038816845260069092529091209192509081831461111b57600083815260208281526040808320548584528184208190558352600790915290208290555b6000938452600760209081526040808620869055938552525081205550565b60085460009061114c90600190611940565b6000838152600960205260408120546008805493945090928490811061117457611174611872565b90600052602060002001549050806008838154811061119557611195611872565b60009182526020808320909101929092558281526009909152604080822084905585825281205560088054806111cd576111cd611953565b6001900381819060005260206000200160009055905550505050565b600060016111f6846107c1565b6112009190611940565b6001600160a01b039093166000908152600660209081526040808320868452825280832085905593825260079052919091209190915550565b61124382826108ab565b6105595760405163e2517d3f60e01b81526001600160a01b038216600482015260248101839052604401610583565b61127c8383611416565b6106aa336000858585610cd7565b60008072184f03e93ff9f4daa797ed6e38ed64bf6a1f0160401b83106112c95772184f03e93ff9f4daa797ed6e38ed64bf6a1f0160401b830492506040015b6d04ee2d6d415b85acef810000000083106112f5576d04ee2d6d415b85acef8100000000830492506020015b662386f26fc10000831061131357662386f26fc10000830492506010015b6305f5e100831061132b576305f5e100830492506008015b612710831061133f57612710830492506004015b60648310611351576064830492506002015b600a831061048d5760010192915050565b60006001600160e01b031982166380ac58cd60e01b148061139357506001600160e01b03198216635b5e139f60e01b145b8061048d57506301ffc9a760e01b6001600160e01b031983161461048d565b6113bd83838361147b565b6106aa576001600160a01b0383166113eb57604051637e27328960e01b815260048101829052602401610583565b60405163177e802f60e01b81526001600160a01b038316600482015260248101829052604401610583565b6001600160a01b03821661144057604051633250574960e11b815260006004820152602401610583565b600061144e83836000610a3b565b90506001600160a01b038116156106aa576040516339e3563760e11b815260006004820152602401610583565b60006001600160a01b03831615801590610b085750826001600160a01b0316846001600160a01b031614806114b557506114b584846109a2565b80610b085750506000908152600460205260409020546001600160a01b03908116911614919050565b6001600160e01b031981168114610b1a57600080fd5b60006020828403121561150657600080fd5b8135610976816114de565b60005b8381101561152c578181015183820152602001611514565b50506000910152565b6000815180845261154d816020860160208601611511565b601f01601f19169290920160200192915050565b6020815260006109766020830184611535565b60006020828403121561158657600080fd5b5035919050565b80356001600160a01b03811681146115a457600080fd5b919050565b600080604083850312156115bc57600080fd5b6115c58361158d565b946020939093013593505050565b6000806000606084860312156115e857600080fd5b6115f18461158d565b92506115ff6020850161158d565b9150604084013590509250925092565b6000806040838503121561162257600080fd5b823591506116326020840161158d565b90509250929050565b60008060006060848603121561165057600080fd5b6116598461158d565b925060208401359150604084013560ff8116811461167657600080fd5b809150509250925092565b60006020828403121561169357600080fd5b6109768261158d565b6020808252825182820181905260009190848201906040850190845b818110156116d4578351835292840192918401916001016116b8565b50909695505050505050565b600080604083850312156116f357600080fd5b6116fc8361158d565b91506020830135801515811461171157600080fd5b809150509250929050565b634e487b7160e01b600052604160045260246000fd5b6000806000806080858703121561174857600080fd5b6117518561158d565b935061175f6020860161158d565b925060408501359150606085013567ffffffffffffffff8082111561178357600080fd5b818701915087601f83011261179757600080fd5b8135818111156117a9576117a961171c565b604051601f8201601f19908116603f011681019083821181831017156117d1576117d161171c565b816040528281528a60208487010111156117ea57600080fd5b82602086016020830137600060208483010152809550505050505092959194509250565b6000806040838503121561182157600080fd5b61182a8361158d565b91506116326020840161158d565b600181811c9082168061184c57607f821691505b60208210810361186c57634e487b7160e01b600052602260045260246000fd5b50919050565b634e487b7160e01b600052603260045260246000fd5b634e487b7160e01b600052601160045260246000fd5b6000600182016118b0576118b0611888565b5060010190565b600083516118c9818460208801611511565b8351908301906118dd818360208801611511565b01949350505050565b6001600160a01b038581168252841660208201526040810183905260806060820181905260009061191990830184611535565b9695505050505050565b60006020828403121561193557600080fd5b8151610976816114de565b8181038181111561048d5761048d611888565b634e487b7160e01b600052603160045260246000fdfea26469706673582212209325443a70b6305f707753c86720ac32955ba4230311725edf399d5f575e30b064736f6c63430008140033",
  "linkReferences": {},
  "deployedLinkReferences": {}
}