{
  "_format": "hh-sol-artifact-1",
  "contractName": "TicketNFT",
  "sourceName": "contracts/TicketNFT.sol",
  "abi": [
    {
      "inputs": [
        {
          "internalType": "address",
          "name": "admin",
          "type": "address"
        }
      ],
      "stateMutability": "nonpayable",
      "type": "constructor"
    },
    {
      "inputs": [],
      "name": "AccessControlBadConfirmation",
      "type": "error"
    },
    {
      "inputs": [
        {
          "internalType": "address",
          "name": "account",
          "type": "address"
        },
        {
          "internalType": "bytes32",
          "name": "neededRole",
          "type": "bytes32"
        }
      ],
      "name": "AccessControlUnauthorizedAccount",
      "type": "error"
    },
    {
      "inputs": [],
      "name": "ERC721EnumerableForbiddenBatchMint",
      "type": "error"
    },
    {
      "inputs": [
        {
          "internalType": "address",
          "name": "sender",
          "type": "address"
        },
        {
          "internalType": "uint256",
          "name": "tokenId",
          "type": "uint256"
        },
        {
          "internalType": "address",
          "name": "owner",
          "type": "address"
        }
      ],
      "name": "ERC721IncorrectOwner",
      "type": "error"
    },
    {
      "inputs": [
        {
          "internalType": "address",
          "name": "operator",
          "type": "address"
        },
        {
          "internalType": "uint256",
          "name": "tokenId",
          "type": "uint256"
        }
      ],
      "name": "ERC721InsufficientApproval",
      "type": "error"
    },
    {
      "inputs": [
        {
          "internalType": "address",
          "name": "approver",
          "type": "address"
        }
      ],
      "name": "ERC721InvalidApprover",
      "type": "error"
    },
    {
      "inputs": [
        {
          "internalType": "address",
          "name": "operator",
          "type": "address"
        }
      ],
      "name": "ERC721InvalidOperator",
      "type": "error"
    },
    {
      "inputs": [
        {
          "internalType": "address",
          "name": "owner",
          "type": "address"
        }
      ],
      "name": "ERC721InvalidOwner",
      "type": "error"
    },
    {
      "inputs": [
        {
          "internalType": "address",
          "name": "receiver",
          "type": "address"
        }
      ],
      "name": "ERC721InvalidReceiver",
      "type": "error"
    },
    {
      "inputs": [
        {
          "internalType": "address",
          "name": "sender",
          "type": "address"
        }
      ],
      "name": "ERC721InvalidSender",
      "type": "error"
    },
    {
      "inputs": [
        {
          "internalType": "uint256",
          "name": "tokenId",
          "type": "uint256"
        }
      ],
      "name": "ERC721NonexistentToken",
      "type": "error"
    },
    {
      "inputs": [
        {
          "internalType": "address",
          "name": "owner",
          "type": "address"
        },
        {
          "internalType": "uint256",
          "name": "index",
          "type": "uint256"
        }
      ],
      "name": "ERC721OutOfBoundsIndex",
      "type": "error"
    },
    {
      "anonymous": false,
      "inputs": [
        {
          "indexed": true,
          "internalType": "address",
          "name": "owner",
          "type": "address"
        },
        {
          "indexed": true,
          "internalType": "address",
          "name": "approved",
          "type": "address"
        },
        {
          "indexed": true,
          "internalType": "uint256",
          "name": "tokenId",
          "type": "uint256"
        }
      ],
      "name": "Approval",
      "type": "event"
    },
    {
      "anonymous": false,
      "inputs": [
        {
          "indexed": true,
          "internalType": "address",
          "name": "owner",
          "type": "address"
        },
        {
          "indexed": true,
          "internalType": "address",
          "name": "operator",
          "type": "address"
        },
        {
          "indexed": false,
          "internalType": "bool",
          "name": "approved",
          "type": "bool"
        }
      ],
      "name": "ApprovalForAll",
      "type": "event"
    },
    {
      "anonymous": false,
      "inputs": [
        {
          "indexed": true,
          "internalType": "bytes32",
          "name": "role",
          "type": "bytes32"
        },
        {
          "indexed": true,
          "internalType": "bytes32",
          "name": "previousAdminRole",
          "type": "bytes32"
        },
        {
          "indexed": true,
          "internalType": "bytes32",
          "name": "newAdminRole",
          "type": "bytes32"
        }
      ],
      "name": "RoleAdminChanged",
      "type": "event"
    },
    {
      "anonymous": false,
      "inputs": [
        {
          "indexed": true,
          "internalType": "bytes32",
          "name": "role",
          "type": "bytes32"
        },
        {
          "indexed": true,
          "internalType": "address",
          "name": "account",
          "type": "address"
        },
        {
          "indexed": true,
          "internalType": "address",
          "name": "sender",
          "type": "address"
        }
      ],
      "name": "RoleGranted",
      "type": "event"
    },
    {
      "anonymous": false,
      "inputs": [
        {
          "indexed": true,
          "internalType": "bytes32",
          "name": "role",
          "type": "bytes32"
        },
        {
          "indexed": true,
          "internalType": "address",
          "name": "account",
          "type": "address"
        },
        {
          "indexed": true,
          "internalType": "address",
          "name": "sender",
          "type": "address"
        }
      ],
      "name": "RoleRevoked",
      "type": "event"
    },
    {
      "anonymous": false,
      "inputs": [
        {
          "indexed": true,
          "internalType": "address",
          "name": "from",
          "type": "address"
        },
        {
          "indexed": true,
          "internalType": "address",
          "name": "to",
          "type": "address"
        },
        {
          "indexed": true,
          "internalType": "uint256",
          "name": "tokenId",
          "type": "uint256"
        }
      ],
      "name": "Transfer",
      "type": "event"
    },
    {
      "inputs": [],
      "name": "DEFAULT_ADMIN_ROLE",
      "outputs": [
        {
          "internalType": "bytes32",
          "name": "",
          "type": "bytes32"
        }
      ],
      "stateMutability": "view",
      "type": "function"
    },
    {
      "inputs": [],
      "name": "MINTER_ROLE",
      "outputs": [
        {
          "internalType": "bytes32",
          "name": "",
          "type": "bytes32"
        }
      ],
      "stateMutability": "view",
      "type": "function"
    },
    {
      "inputs": [
        {
          "internalType": "address",
          "name": "to",
          "type": "address"
        },
        {
          "internalType": "uint256",
          "name": "tokenId",
          "type": "uint256"
        }
      ],
      "name": "approve",
      "outputs": [],
      "stateMutability": "nonpayable",
      "type": "function"
    },
    {
      "inputs": [
        {
          "internalType": "address",
          "name": "owner",
          "type": "address"
        }
      ],
      "name": "balanceOf",
      "outputs": [
        {
          "internalType": "uint256",
          "name": "",
          "type": "uint256"
        }
      ],
      "stateMutability": "view",
      "type": "function"
    },
    {
      "inputs": [
        {
          "internalType": "uint256",
          "name": "tokenId",
          "type": "uint256"
        }
      ],
      "name": "getApproved",
      "outputs": [
        {
          "internalType": "address",
          "name": "",
          "type": "address"
        }
      ],
      "stateMutability": "view",
      "type": "function"
    },
    {
      "inputs": [
        {
          "internalType": "bytes32",
          "name": "role",
          "type": "bytes32"
        }
      ],
      "name": "getRoleAdmin",
      "outputs": [
        {
          "internalType": "bytes32",
          "name": "",
          "type": "bytes32"
        }
      ],
      "stateMutability": "view",
      "type": "function"
    },
    {
      "inputs": [
        {
          "internalType": "uint256",
          "name": "tokenId",
          "type": "uint256"
        }
      ],
      "name": "getTicketInfo",
      "outputs": [
        {
          "components": [
            {
              "internalType": "uint256",
              "name": "marketId",
              "type": "uint256"
            },
            {
              "internalType": "uint8",
              "name": "optionId",
              "type": "uint8"
            }
          ],
          "internalType": "struct TicketNFT.TicketInfo",
          "name": "",
          "type": "tuple"
        }
      ],
      "stateMutability": "view",
      "type": "function"
    },
    {
      "inputs": [
        {
          "internalType": "bytes32",
          "name": "role",
          "type": "bytes32"
        },
        {
          "internalType": "address",
          "name": "account",
          "type": "address"
        }
      ],
      "name": "grantRole",
      "outputs": [],
      "stateMutability": "nonpayable",
      "type": "function"
    },
    {
      "inputs": [
        {
          "internalType": "bytes32",
          "name": "role",
          "type": "bytes32"
        },
        {
          "internalType": "address",
          "name": "account",
          "type": "address"
        }
      ],
      "name": "hasRole",
      "outputs": [
        {
          "internalType": "bool",
          "name": "",
          "type": "bool"
        }
      ],
      "stateMutability": "view",
      "type": "function"
    },
    {
      "inputs": [
        {
          "internalType": "address",
          "name": "owner",
          "type": "address"
        },
        {
          "internalType": "address",
          "name": "operator",
          "type": "address"
        }
      ],
      "name": "isApprovedForAll",
      "outputs": [
        {
          "internalType": "bool",
          "name": "",
          "type": "bool"
        }
      ],
      "stateMutability": "view",
      "type": "function"
    },
    {
      "inputs": [
        {
          "internalType": "address",
          "name": "to",
          "type": "address"
        },
        {
          "internalType": "uint256",
          "name": "marketId",
          "type": "uint256"
        },
        {
          "internalType": "uint8",
          "name": "optionId",
          "type": "uint8"
        }
      ],
      "name": "mint",
      "outputs": [
        {
          "internalType": "uint256",
          "name": "tokenId",
          "type": "uint256"
        }
      ],
      "stateMutability": "nonpayable",
      "type": "function"
    },
    {
      "inputs": [],
      "name": "name",
      "outputs": [
        {
          "internalType": "string",
          "name": "",
          "type": "string"
        }
      ],
      "stateMutability": "view",
      "type": "function"
    },
    {
      "inputs": [
        {
          "internalType": "uint256",
          "name": "tokenId",
          "type": "uint256"
        }
      ],
      "name": "ownerOf",
      "outputs": [
        {
          "internalType": "address",
          "name": "",
          "type": "address"
        }
      ],
      "stateMutability": "view",
      "type": "function"
    },
    {
      "inputs": [
        {
          "internalType": "bytes32",
          "name": "role",
          "type": "bytes32"
        },
        {
          "internalType": "address",
          "name": "callerConfirmation",
          "type": "address"
        }
      ],
      "name": "renounceRole",
      "outputs": [],
      "stateMutability": "nonpayable",
      "type": "function"
    },
    {
      "inputs": [
        {
          "internalType": "bytes32",
          "name": "role",
          "type": "bytes32"
        },
        {
          "internalType": "address",
          "name": "account",
          "type": "address"
        }
      ],
      "name": "revokeRole",
      "outputs": [],
      "stateMutability": "nonpayable",
      "type": "function"
    },
    {
      "inputs": [
        {
          "internalType": "address",
          "name": "from",
          "type": "address"
        },
        {
          "internalType": "address",
          "name": "to",
          "type": "address"
        },
        {
          "internalType": "uint256",
          "name": "tokenId",
          "type": "uint256"
        }
      ],
      "name": "safeTransferFrom",
      "outputs": [],
      "stateMutability": "nonpayable",
      "type": "function"
    },
    {
      "inputs": [
        {
          "internalType": "address",
          "name": "from",
          "type": "address"
        },
        {
          "internalType": "address",
          "name": "to",
          "type": "address"
        },
        {
          "internalType": "uint256",
          "name": "tokenId",
          "type": "uint256"
        },
        {
          "internalType": "bytes",
          "name": "data",
          "type": "bytes"
        }
      ],
      "name": "safeTransferFrom",
      "outputs": [],
      "stateMutability": "nonpayable",
      "type": "function"
    },
    {
      "inputs": [
        {
          "internalType": "address",
          "name": "operator",
          "type": "address"
        },
        {
          "internalType": "bool",
          "name": "approved",
          "type": "bool"
        }
      ],
      "name": "setApprovalForAll",
      "outputs": [],
      "stateMutability": "nonpayable",
      "type": "function"
    },
    {
      "inputs": [
        {
          "internalType": "bytes4",
          "name": "interfaceId",
          "type": "bytes4"
        }
      ],
      "name": "supportsInterface",
      "outputs": [
        {
          "internalType": "bool",
          "name": "",
          "type": "bool"
        }
      ],
      "stateMutability": "view",
      "type": "function"
    },
    {
      "inputs": [],
      "name": "symbol",
      "outputs": [
        {
          "internalType": "string",
          "name": "",
          "type": "string"
        }
      ],
      "stateMutability": "view",
      "type": "function"
    },
    {
      "inputs": [
        {
          "internalType": "uint256",
          "name": "",
          "type": "uint256"
        }
      ],
      "name": "ticketInfo",
      "outputs": [
        {
          "internalType": "uint256",
          "name": "marketId",
          "type": "uint256"
        },
        {
          "internalType": "uint8",
          "name": "optionId",
          "type": "uint8"
        }
      ],
      "stateMutability": "view",
      "type": "function"
    },
    {
      "inputs": [
        {
          "internalType": "uint256",
          "name": "index",
          "type": "uint256"
        }
      ],
      "name": "tokenByIndex",
      "outputs": [
        {
          "internalType": "uint256",
          "name": "",
          "type": "uint256"
        }
      ],
      "stateMutability": "view",
      "type": "function"
    },
    {
      "inputs": [
        {
          "internalType": "address",
          "name": "owner",
          "type": "address"
        },
        {
          "internalType": "uint256",
          "name": "index",
          "type": "uint256"
        }
      ],
      "name": "tokenOfOwnerByIndex",
      "outputs": [
        {
          "internalType": "uint256",
          "name": "",
          "type": "uint256"
        }
      ],
      "stateMutability": "view",
      "type": "function"
    },
    {
      "inputs": [
        {
          "internalType": "uint256",
          "name": "tokenId",
          "type": "uint256"
        }
      ],
      "name": "tokenURI",
      "outputs": [
        {
          "internalType": "string",
          "name": "",
          "type": "string"
        }
      ],
      "stateMutability": "view",
      "type": "function"
    },
    {
      "inputs": [
        {
          "internalType": "address",
          "name": "owner",
          "type": "address"
        }
      ],
      "name": "tokensOfOwner",
      "outputs": [
        {
          "internalType": "uint256[]",
          "name": "",
          "type": "uint256[]"
        }
      ],
      "stateMutability": "view",
      "type": "function"
    },
    {
      "inputs": [],
      "name": "totalSupply",
      "outputs": [
        {
          "internalType": "uint256",
          "name": "",
          "type": "uint256"
        }
      ],
      "stateMutability": "view",
      "type": "function"
    },
    {
      "inputs": [
        {
          "internalType": "address",
          "name": "from",
          "type": "address"
        },
        {
          "internalType": "address",
          "name": "to",
          "type": "address"
        },
        {
          "internalType": "uint256",
          "name": "tokenId",
          "type": "uint256"
        }
      ],
      "name": "transferFrom",
      "outputs": [],
      "stateMutability": "nonpayable",
      "type": "function"
    }
  ],
  "bytecode": "0x60806040526001600c553480156200001657600080fd5b50604051620036cb380380620036cb83398181016040528101906200003c9190620002cc565b6040518060400160405280600e81526020017f45617379426574205469636b65740000000000000000000000000000000000008152506040518060400160405280600381526020017f45425400000000000000000000000000000000000000000000000000000000008152508160009081620000b9919062000578565b508060019081620000cb919062000578565b505050620000e36000801b82620000eb60201b60201c565b50506200065f565b6000620000ff8383620001ef60201b60201c565b620001e4576001600a600085815260200190815260200160002060000160008473ffffffffffffffffffffffffffffffffffffffff1673ffffffffffffffffffffffffffffffffffffffff16815260200190815260200160002060006101000a81548160ff021916908315150217905550620001806200025a60201b60201c565b73ffffffffffffffffffffffffffffffffffffffff168273ffffffffffffffffffffffffffffffffffffffff16847f2f8788117e7eff1d82e926ec794901d17c78024a50270940304540a733656f0d60405160405180910390a460019050620001e9565b600090505b92915050565b6000600a600084815260200190815260200160002060000160008373ffffffffffffffffffffffffffffffffffffffff1673ffffffffffffffffffffffffffffffffffffffff16815260200190815260200160002060009054906101000a900460ff16905092915050565b600033905090565b600080fd5b600073ffffffffffffffffffffffffffffffffffffffff82169050919050565b6000620002948262000267565b9050919050565b620002a68162000287565b8114620002b257600080fd5b50565b600081519050620002c6816200029b565b92915050565b600060208284031215620002e557620002e462000262565b5b6000620002f584828501620002b5565b91505092915050565b600081519050919050565b7f4e487b7100000000000000000000000000000000000000000000000000000000600052604160045260246000fd5b7f4e487b7100000000000000000000000000000000000000000000000000000000600052602260045260246000fd5b600060028204905060018216806200038057607f821691505b60208210810362000396576200039562000338565b5b50919050565b60008190508160005260206000209050919050565b60006020601f8301049050919050565b600082821b905092915050565b600060088302620004007fffffffffffffffffffffffffffffffffffffffffffffffffffffffffffffffff82620003c1565b6200040c8683620003c1565b95508019841693508086168417925050509392505050565b6000819050919050565b6000819050919050565b600062000459620004536200044d8462000424565b6200042e565b62000424565b9050919050565b6000819050919050565b620004758362000438565b6200048d620004848262000460565b848454620003ce565b825550505050565b600090565b620004a462000495565b620004b18184846200046a565b505050565b5b81811015620004d957620004cd6000826200049a565b600181019050620004b7565b5050565b601f8211156200052857620004f2816200039c565b620004fd84620003b1565b810160208510156200050d578190505b620005256200051c85620003b1565b830182620004b6565b50505b505050565b600082821c905092915050565b60006200054d600019846008026200052d565b1980831691505092915050565b60006200056883836200053a565b9150826002028217905092915050565b6200058382620002fe565b67ffffffffffffffff8111156200059f576200059e62000309565b5b620005ab825462000367565b620005b8828285620004dd565b600060209050601f831160018114620005f05760008415620005db578287015190505b620005e785826200055a565b86555062000657565b601f19841662000600866200039c565b60005b828110156200062a5784890151825560018201915060208501945060208101905062000603565b868310156200064a578489015162000646601f8916826200053a565b8355505b6001600288020188555050505b505050505050565b61305c806200066f6000396000f3fe608060405234801561001057600080fd5b50600436106101a95760003560e01c80636352211e116100f9578063b88d4fde11610097578063d547741f11610071578063d547741f14610518578063e985e9c514610534578063fa71308314610564578063ff99a06314610595576101a9565b8063b88d4fde146104ae578063c87b56dd146104ca578063d5391393146104fa576101a9565b806391d14854116100d357806391d148541461042657806395d89b4114610456578063a217fddf14610474578063a22cb46514610492576101a9565b80636352211e1461039657806370a08231146103c65780638462151c146103f6576101a9565b8063248a9ca31161016657806336568abe1161014057806336568abe146102fe57806342842e0e1461031a5780634f6ccce7146103365780636112e8ac14610366576101a9565b8063248a9ca3146102825780632f2ff15d146102b25780632f745c59146102ce576101a9565b806301ffc9a7146101ae57806306fdde03146101de578063081812fc146101fc578063095ea7b31461022c57806318160ddd1461024857806323b872dd14610266575b600080fd5b6101c860048036038101906101c391906124aa565b6105c5565b6040516101d591906124f2565b60405180910390f35b6101e66105d7565b6040516101f3919061259d565b60405180910390f35b610216600480360381019061021191906125f5565b610669565b6040516102239190612663565b60405180910390f35b610246600480360381019061024191906126aa565b610685565b005b61025061069b565b60405161025d91906126f9565b60405180910390f35b610280600480360381019061027b9190612714565b6106a8565b005b61029c6004803603810190610297919061279d565b6107aa565b6040516102a991906127d9565b60405180910390f35b6102cc60048036038101906102c791906127f4565b6107ca565b005b6102e860048036038101906102e391906126aa565b6107ec565b6040516102f591906126f9565b60405180910390f35b610318600480360381019061031391906127f4565b610895565b005b610334600480360381019061032f9190612714565b610910565b005b610350600480360381019061034b91906125f5565b610930565b60405161035d91906126f9565b60405180910390f35b610380600480360381019061037b919061286d565b6109a6565b60405161038d91906126f9565b60405180910390f35b6103b060048036038101906103ab91906125f5565b610a56565b6040516103bd9190612663565b60405180910390f35b6103e060048036038101906103db91906128c0565b610a68565b6040516103ed91906126f9565b60405180910390f35b610410600480360381019061040b91906128c0565b610b22565b60405161041d91906129ab565b60405180910390f35b610440600480360381019061043b91906127f4565b610bd0565b60405161044d91906124f2565b60405180910390f35b61045e610c3b565b60405161046b919061259d565b60405180910390f35b61047c610ccd565b60405161048991906127d9565b60405180910390f35b6104ac60048036038101906104a791906129f9565b610cd4565b005b6104c860048036038101906104c39190612b6e565b610cea565b005b6104e460048036038101906104df91906125f5565b610d0f565b6040516104f1919061259d565b60405180910390f35b610502610d78565b60405161050f91906127d9565b60405180910390f35b610532600480360381019061052d91906127f4565b610d9c565b005b61054e60048036038101906105499190612bf1565b610dbe565b60405161055b91906124f2565b60405180910390f35b61057e600480360381019061057991906125f5565b610e52565b60405161058c929190612c40565b60405180910390f35b6105af60048036038101906105aa91906125f5565b610e83565b6040516105bc9190612ca7565b60405180910390f35b60006105d082610ed7565b9050919050565b6060600080546105e690612cf1565b80601f016020809104026020016040519081016040528092919081815260200182805461061290612cf1565b801561065f5780601f106106345761010080835404028352916020019161065f565b820191906000526020600020905b81548152906001019060200180831161064257829003601f168201915b5050505050905090565b600061067482610f51565b5061067e82610fd9565b9050919050565b6106978282610692611016565b61101e565b5050565b6000600880549050905090565b600073ffffffffffffffffffffffffffffffffffffffff168273ffffffffffffffffffffffffffffffffffffffff160361071a5760006040517f64a0ae920000000000000000000000000000000000000000000000000000000081526004016107119190612663565b60405180910390fd5b600061072e8383610729611016565b611030565b90508373ffffffffffffffffffffffffffffffffffffffff168173ffffffffffffffffffffffffffffffffffffffff16146107a4578382826040517f64283d7b00000000000000000000000000000000000000000000000000000000815260040161079b93929190612d22565b60405180910390fd5b50505050565b6000600a6000838152602001908152602001600020600101549050919050565b6107d3826107aa565b6107dc8161114d565b6107e68383611161565b50505050565b60006107f783610a68565b821061083c5782826040517fa57d13dc000000000000000000000000000000000000000000000000000000008152600401610833929190612d59565b60405180910390fd5b600660008473ffffffffffffffffffffffffffffffffffffffff1673ffffffffffffffffffffffffffffffffffffffff168152602001908152602001600020600083815260200190815260200160002054905092915050565b61089d611016565b73ffffffffffffffffffffffffffffffffffffffff168173ffffffffffffffffffffffffffffffffffffffff1614610901576040517f6697b23200000000000000000000000000000000000000000000000000000000815260040160405180910390fd5b61090b8282611253565b505050565b61092b83838360405180602001604052806000815250610cea565b505050565b600061093a61069b565b8210610980576000826040517fa57d13dc000000000000000000000000000000000000000000000000000000008152600401610977929190612d59565b60405180910390fd5b6008828154811061099457610993612d82565b5b90600052602060002001549050919050565b60007f9f2df0fed2c77648de5860a4cc508cd0818c85b8b8a1ab4ceeef8d981c8956a66109d28161114d565b600c60008154809291906109e590612de0565b9190505591506109f58583611346565b60405180604001604052808581526020018460ff16815250600b60008481526020019081526020016000206000820151816000015560208201518160010160006101000a81548160ff021916908360ff160217905550905050509392505050565b6000610a6182610f51565b9050919050565b60008073ffffffffffffffffffffffffffffffffffffffff168273ffffffffffffffffffffffffffffffffffffffff1603610adb5760006040517f89c62b64000000000000000000000000000000000000000000000000000000008152600401610ad29190612663565b60405180910390fd5b600360008373ffffffffffffffffffffffffffffffffffffffff1673ffffffffffffffffffffffffffffffffffffffff168152602001908152602001600020549050919050565b60606000610b2f83610a68565b905060008167ffffffffffffffff811115610b4d57610b4c612a43565b5b604051908082528060200260200182016040528015610b7b5781602001602082028036833780820191505090505b50905060005b82811015610bc557610b9385826107ec565b828281518110610ba657610ba5612d82565b5b6020026020010181815250508080610bbd90612de0565b915050610b81565b508092505050919050565b6000600a600084815260200190815260200160002060000160008373ffffffffffffffffffffffffffffffffffffffff1673ffffffffffffffffffffffffffffffffffffffff16815260200190815260200160002060009054906101000a900460ff16905092915050565b606060018054610c4a90612cf1565b80601f0160208091040260200160405190810160405280929190818152602001828054610c7690612cf1565b8015610cc35780601f10610c9857610100808354040283529160200191610cc3565b820191906000526020600020905b815481529060010190602001808311610ca657829003601f168201915b5050505050905090565b6000801b81565b610ce6610cdf611016565b8383611364565b5050565b610cf58484846106a8565b610d09610d00611016565b858585856114d3565b50505050565b6060610d1a82610f51565b506000610d25611684565b90506000815111610d455760405180602001604052806000815250610d70565b80610d4f8461169b565b604051602001610d60929190612e64565b6040516020818303038152906040525b915050919050565b7f9f2df0fed2c77648de5860a4cc508cd0818c85b8b8a1ab4ceeef8d981c8956a681565b610da5826107aa565b610dae8161114d565b610db88383611253565b50505050565b6000600560008473ffffffffffffffffffffffffffffffffffffffff1673ffffffffffffffffffffffffffffffffffffffff16815260200190815260200160002060008373ffffffffffffffffffffffffffffffffffffffff1673ffffffffffffffffffffffffffffffffffffffff16815260200190815260200160002060009054906101000a900460ff16905092915050565b600b6020528060005260406000206000915090508060000154908060010160009054906101000a900460ff16905082565b610e8b612421565b600b6000838152602001908152602001600020604051806040016040529081600082015481526020016001820160009054906101000a900460ff1660ff1660ff16815250509050919050565b60007f7965db0b000000000000000000000000000000000000000000000000000000007bffffffffffffffffffffffffffffffffffffffffffffffffffffffff1916827bffffffffffffffffffffffffffffffffffffffffffffffffffffffff19161480610f4a5750610f4982611769565b5b9050919050565b600080610f5d836117e3565b9050600073ffffffffffffffffffffffffffffffffffffffff168173ffffffffffffffffffffffffffffffffffffffff1603610fd057826040517f7e273289000000000000000000000000000000000000000000000000000000008152600401610fc791906126f9565b60405180910390fd5b80915050919050565b60006004600083815260200190815260200160002060009054906101000a900473ffffffffffffffffffffffffffffffffffffffff169050919050565b600033905090565b61102b8383836001611820565b505050565b60008061103e8585856119e5565b9050600073ffffffffffffffffffffffffffffffffffffffff168173ffffffffffffffffffffffffffffffffffffffff16036110825761107d84611bff565b6110c1565b8473ffffffffffffffffffffffffffffffffffffffff168173ffffffffffffffffffffffffffffffffffffffff16146110c0576110bf8185611c48565b5b5b600073ffffffffffffffffffffffffffffffffffffffff168573ffffffffffffffffffffffffffffffffffffffff1603611103576110fe84611d33565b611142565b8473ffffffffffffffffffffffffffffffffffffffff168173ffffffffffffffffffffffffffffffffffffffff1614611141576111408585611e04565b5b5b809150509392505050565b61115e81611159611016565b611e8f565b50565b600061116d8383610bd0565b611248576001600a600085815260200190815260200160002060000160008473ffffffffffffffffffffffffffffffffffffffff1673ffffffffffffffffffffffffffffffffffffffff16815260200190815260200160002060006101000a81548160ff0219169083151502179055506111e5611016565b73ffffffffffffffffffffffffffffffffffffffff168273ffffffffffffffffffffffffffffffffffffffff16847f2f8788117e7eff1d82e926ec794901d17c78024a50270940304540a733656f0d60405160405180910390a46001905061124d565b600090505b92915050565b600061125f8383610bd0565b1561133b576000600a600085815260200190815260200160002060000160008473ffffffffffffffffffffffffffffffffffffffff1673ffffffffffffffffffffffffffffffffffffffff16815260200190815260200160002060006101000a81548160ff0219169083151502179055506112d8611016565b73ffffffffffffffffffffffffffffffffffffffff168273ffffffffffffffffffffffffffffffffffffffff16847ff6391f5c32d9c69d2a47ea670b442974b53935d1edc7fd64eb21e047a839171b60405160405180910390a460019050611340565b600090505b92915050565b611360828260405180602001604052806000815250611ee0565b5050565b600073ffffffffffffffffffffffffffffffffffffffff168273ffffffffffffffffffffffffffffffffffffffff16036113d557816040517f5b08ba180000000000000000000000000000000000000000000000000000000081526004016113cc9190612663565b60405180910390fd5b80600560008573ffffffffffffffffffffffffffffffffffffffff1673ffffffffffffffffffffffffffffffffffffffff16815260200190815260200160002060008473ffffffffffffffffffffffffffffffffffffffff1673ffffffffffffffffffffffffffffffffffffffff16815260200190815260200160002060006101000a81548160ff0219169083151502179055508173ffffffffffffffffffffffffffffffffffffffff168373ffffffffffffffffffffffffffffffffffffffff167f17307eab39ab6107e8899845ad3d59bd9653f200f220920489ca2b5937696c31836040516114c691906124f2565b60405180910390a3505050565b60008373ffffffffffffffffffffffffffffffffffffffff163b111561167d578273ffffffffffffffffffffffffffffffffffffffff1663150b7a02868685856040518563ffffffff1660e01b81526004016115329493929190612edd565b6020604051808303816000875af192505050801561156e57506040513d601f19601f8201168201806040525081019061156b9190612f3e565b60015b6115f2573d806000811461159e576040519150601f19603f3d011682016040523d82523d6000602084013e6115a3565b606091505b5060008151036115ea57836040517f64a0ae920000000000000000000000000000000000000000000000000000000081526004016115e19190612663565b60405180910390fd5b805160208201fd5b63150b7a0260e01b7bffffffffffffffffffffffffffffffffffffffffffffffffffffffff1916817bffffffffffffffffffffffffffffffffffffffffffffffffffffffff19161461167b57836040517f64a0ae920000000000000000000000000000000000000000000000000000000081526004016116729190612663565b60405180910390fd5b505b5050505050565b606060405180602001604052806000815250905090565b6060600060016116aa84611f04565b01905060008167ffffffffffffffff8111156116c9576116c8612a43565b5b6040519080825280601f01601f1916602001820160405280156116fb5781602001600182028036833780820191505090505b509050600082602083010190505b60011561175e578080600190039150507f3031323334353637383961626364656600000000000000000000000000000000600a86061a8153600a858161175257611751612f6b565b5b04945060008503611709575b819350505050919050565b60007f780e9d63000000000000000000000000000000000000000000000000000000007bffffffffffffffffffffffffffffffffffffffffffffffffffffffff1916827bffffffffffffffffffffffffffffffffffffffffffffffffffffffff191614806117dc57506117db82612057565b5b9050919050565b60006002600083815260200190815260200160002060009054906101000a900473ffffffffffffffffffffffffffffffffffffffff169050919050565b80806118595750600073ffffffffffffffffffffffffffffffffffffffff168273ffffffffffffffffffffffffffffffffffffffff1614155b1561198d57600061186984610f51565b9050600073ffffffffffffffffffffffffffffffffffffffff168373ffffffffffffffffffffffffffffffffffffffff16141580156118d457508273ffffffffffffffffffffffffffffffffffffffff168173ffffffffffffffffffffffffffffffffffffffff1614155b80156118e757506118e58184610dbe565b155b1561192957826040517fa9fbf51f0000000000000000000000000000000000000000000000000000000081526004016119209190612663565b60405180910390fd5b811561198b57838573ffffffffffffffffffffffffffffffffffffffff168273ffffffffffffffffffffffffffffffffffffffff167f8c5be1e5ebec7d5bd14f71427d1e84f3dd0314c0f7b2291e5b200ac8c7c3b92560405160405180910390a45b505b836004600085815260200190815260200160002060006101000a81548173ffffffffffffffffffffffffffffffffffffffff021916908373ffffffffffffffffffffffffffffffffffffffff16021790555050505050565b6000806119f1846117e3565b9050600073ffffffffffffffffffffffffffffffffffffffff168373ffffffffffffffffffffffffffffffffffffffff1614611a3357611a32818486612139565b5b600073ffffffffffffffffffffffffffffffffffffffff168173ffffffffffffffffffffffffffffffffffffffff1614611ac457611a75600085600080611820565b6001600360008373ffffffffffffffffffffffffffffffffffffffff1673ffffffffffffffffffffffffffffffffffffffff168152602001908152602001600020600082825403925050819055505b600073ffffffffffffffffffffffffffffffffffffffff168573ffffffffffffffffffffffffffffffffffffffff1614611b47576001600360008773ffffffffffffffffffffffffffffffffffffffff1673ffffffffffffffffffffffffffffffffffffffff168152602001908152602001600020600082825401925050819055505b846002600086815260200190815260200160002060006101000a81548173ffffffffffffffffffffffffffffffffffffffff021916908373ffffffffffffffffffffffffffffffffffffffff160217905550838573ffffffffffffffffffffffffffffffffffffffff168273ffffffffffffffffffffffffffffffffffffffff167fddf252ad1be2c89b69c2b068fc378daa952ba7f163c4a11628f55a4df523b3ef60405160405180910390a4809150509392505050565b6008805490506009600083815260200190815260200160002081905550600881908060018154018082558091505060019003906000526020600020016000909190919091505550565b6000611c5383610a68565b90506000600760008481526020019081526020016000205490506000600660008673ffffffffffffffffffffffffffffffffffffffff1673ffffffffffffffffffffffffffffffffffffffff1681526020019081526020016000209050828214611cff5760008160008581526020019081526020016000205490508082600085815260200190815260200160002081905550826007600083815260200190815260200160002081905550505b6007600085815260200190815260200160002060009055806000848152602001908152602001600020600090555050505050565b60006001600880549050611d479190612f9a565b9050600060096000848152602001908152602001600020549050600060088381548110611d7757611d76612d82565b5b906000526020600020015490508060088381548110611d9957611d98612d82565b5b906000526020600020018190555081600960008381526020019081526020016000208190555060096000858152602001908152602001600020600090556008805480611de857611de7612fce565b5b6001900381819060005260206000200160009055905550505050565b60006001611e1184610a68565b611e1b9190612f9a565b905081600660008573ffffffffffffffffffffffffffffffffffffffff1673ffffffffffffffffffffffffffffffffffffffff168152602001908152602001600020600083815260200190815260200160002081905550806007600084815260200190815260200160002081905550505050565b611e998282610bd0565b611edc5780826040517fe2517d3f000000000000000000000000000000000000000000000000000000008152600401611ed3929190612ffd565b60405180910390fd5b5050565b611eea83836121fd565b611eff611ef5611016565b60008585856114d3565b505050565b600080600090507a184f03e93ff9f4daa797ed6e38ed64bf6a1f0100000000000000008310611f62577a184f03e93ff9f4daa797ed6e38ed64bf6a1f0100000000000000008381611f5857611f57612f6b565b5b0492506040810190505b6d04ee2d6d415b85acef81000000008310611f9f576d04ee2d6d415b85acef81000000008381611f9557611f94612f6b565b5b0492506020810190505b662386f26fc100008310611fce57662386f26fc100008381611fc457611fc3612f6b565b5b0492506010810190505b6305f5e1008310611ff7576305f5e1008381611fed57611fec612f6b565b5b0492506008810190505b612710831061201c57612710838161201257612011612f6b565b5b0492506004810190505b6064831061203f576064838161203557612034612f6b565b5b0492506002810190505b600a831061204e576001810190505b80915050919050565b60007f80ac58cd000000000000000000000000000000000000000000000000000000007bffffffffffffffffffffffffffffffffffffffffffffffffffffffff1916827bffffffffffffffffffffffffffffffffffffffffffffffffffffffff1916148061212257507f5b5e139f000000000000000000000000000000000000000000000000000000007bffffffffffffffffffffffffffffffffffffffffffffffffffffffff1916827bffffffffffffffffffffffffffffffffffffffffffffffffffffffff1916145b806121325750612131826122f6565b5b9050919050565b612144838383612360565b6121f857600073ffffffffffffffffffffffffffffffffffffffff168373ffffffffffffffffffffffffffffffffffffffff16036121b957806040517f7e2732890000000000000000000000000000000000000000000000000000000081526004016121b091906126f9565b60405180910390fd5b81816040517f177e802f0000000000000000000000000000000000000000000000000000000081526004016121ef929190612d59565b60405180910390fd5b505050565b600073ffffffffffffffffffffffffffffffffffffffff168273ffffffffffffffffffffffffffffffffffffffff160361226f5760006040517f64a0ae920000000000000000000000000000000000000000000000000000000081526004016122669190612663565b60405180910390fd5b600061227d83836000611030565b9050600073ffffffffffffffffffffffffffffffffffffffff168173ffffffffffffffffffffffffffffffffffffffff16146122f15760006040517f73c6ac6e0000000000000000000000000000000000000000000000000000000081526004016122e89190612663565b60405180910390fd5b505050565b60007f01ffc9a7000000000000000000000000000000000000000000000000000000007bffffffffffffffffffffffffffffffffffffffffffffffffffffffff1916827bffffffffffffffffffffffffffffffffffffffffffffffffffffffff1916149050919050565b60008073ffffffffffffffffffffffffffffffffffffffff168373ffffffffffffffffffffffffffffffffffffffff161415801561241857508273ffffffffffffffffffffffffffffffffffffffff168473ffffffffffffffffffffffffffffffffffffffff1614806123d957506123d88484610dbe565b5b8061241757508273ffffffffffffffffffffffffffffffffffffffff166123ff83610fd9565b73ffffffffffffffffffffffffffffffffffffffff16145b5b90509392505050565b604051806040016040528060008152602001600060ff1681525090565b6000604051905090565b600080fd5b600080fd5b60007fffffffff0000000000000000000000000000000000000000000000000000000082169050919050565b61248781612452565b811461249257600080fd5b50565b6000813590506124a48161247e565b92915050565b6000602082840312156124c0576124bf612448565b5b60006124ce84828501612495565b91505092915050565b60008115159050919050565b6124ec816124d7565b82525050565b600060208201905061250760008301846124e3565b92915050565b600081519050919050565b600082825260208201905092915050565b60005b8381101561254757808201518184015260208101905061252c565b60008484015250505050565b6000601f19601f8301169050919050565b600061256f8261250d565b6125798185612518565b9350612589818560208601612529565b61259281612553565b840191505092915050565b600060208201905081810360008301526125b78184612564565b905092915050565b6000819050919050565b6125d2816125bf565b81146125dd57600080fd5b50565b6000813590506125ef816125c9565b92915050565b60006020828403121561260b5761260a612448565b5b6000612619848285016125e0565b91505092915050565b600073ffffffffffffffffffffffffffffffffffffffff82169050919050565b600061264d82612622565b9050919050565b61265d81612642565b82525050565b60006020820190506126786000830184612654565b92915050565b61268781612642565b811461269257600080fd5b50565b6000813590506126a48161267e565b92915050565b600080604083850312156126c1576126c0612448565b5b60006126cf85828601612695565b92505060206126e0858286016125e0565b9150509250929050565b6126f3816125bf565b82525050565b600060208201905061270e60008301846126ea565b92915050565b60008060006060848603121561272d5761272c612448565b5b600061273b86828701612695565b935050602061274c86828701612695565b925050604061275d868287016125e0565b9150509250925092565b6000819050919050565b61277a81612767565b811461278557600080fd5b50565b60008135905061279781612771565b92915050565b6000602082840312156127b3576127b2612448565b5b60006127c184828501612788565b91505092915050565b6127d381612767565b82525050565b60006020820190506127ee60008301846127ca565b92915050565b6000806040838503121561280b5761280a612448565b5b600061281985828601612788565b925050602061282a85828601612695565b9150509250929050565b600060ff82169050919050565b61284a81612834565b811461285557600080fd5b50565b60008135905061286781612841565b92915050565b60008060006060848603121561288657612885612448565b5b600061289486828701612695565b93505060206128a5868287016125e0565b92505060406128b686828701612858565b9150509250925092565b6000602082840312156128d6576128d5612448565b5b60006128e484828501612695565b91505092915050565b600081519050919050565b600082825260208201905092915050565b6000819050602082019050919050565b612922816125bf565b82525050565b60006129348383612919565b60208301905092915050565b6000602082019050919050565b6000612958826128ed565b61296281856128f8565b935061296d83612909565b8060005b8381101561299e5781516129858882612928565b975061299083612940565b925050600181019050612971565b5085935050505092915050565b600060208201905081810360008301526129c5818461294d565b905092915050565b6129d6816124d7565b81146129e157600080fd5b50565b6000813590506129f3816129cd565b92915050565b60008060408385031215612a1057612a0f612448565b5b6000612a1e85828601612695565b9250506020612a2f858286016129e4565b9150509250929050565b600080fd5b600080fd5b7f4e487b7100000000000000000000000000000000000000000000000000000000600052604160045260246000fd5b612a7b82612553565b810181811067ffffffffffffffff82111715612a9a57612a99612a43565b5b80604052505050565b6000612aad61243e565b9050612ab98282612a72565b919050565b600067ffffffffffffffff821115612ad957612ad8612a43565b5b612ae282612553565b9050602081019050919050565b82818337600083830152505050565b6000612b11612b0c84612abe565b612aa3565b905082815260208101848484011115612b2d57612b2c612a3e565b5b612b38848285612aef565b509392505050565b600082601f830112612b5557612b54612a39565b5b8135612b65848260208601612afe565b91505092915050565b60008060008060808587031215612b8857612b87612448565b5b6000612b9687828801612695565b9450506020612ba787828801612695565b9350506040612bb8878288016125e0565b925050606085013567ffffffffffffffff811115612bd957612bd861244d565b5b612be587828801612b40565b91505092959194509250565b60008060408385031215612c0857612c07612448565b5b6000612c1685828601612695565b9250506020612c2785828601612695565b9150509250929050565b612c3a81612834565b82525050565b6000604082019050612c5560008301856126ea565b612c626020830184612c31565b9392505050565b612c7281612834565b82525050565b604082016000820151612c8e6000850182612919565b506020820151612ca16020850182612c69565b50505050565b6000604082019050612cbc6000830184612c78565b92915050565b7f4e487b7100000000000000000000000000000000000000000000000000000000600052602260045260246000fd5b60006002820490506001821680612d0957607f821691505b602082108103612d1c57612d1b612cc2565b5b50919050565b6000606082019050612d376000830186612654565b612d4460208301856126ea565b612d516040830184612654565b949350505050565b6000604082019050612d6e6000830185612654565b612d7b60208301846126ea565b9392505050565b7f4e487b7100000000000000000000000000000000000000000000000000000000600052603260045260246000fd5b7f4e487b7100000000000000000000000000000000000000000000000000000000600052601160045260246000fd5b6000612deb826125bf565b91507fffffffffffffffffffffffffffffffffffffffffffffffffffffffffffffffff8203612e1d57612e1c612db1565b5b600182019050919050565b600081905092915050565b6000612e3e8261250d565b612e488185612e28565b9350612e58818560208601612529565b80840191505092915050565b6000612e708285612e33565b9150612e7c8284612e33565b91508190509392505050565b600081519050919050565b600082825260208201905092915050565b6000612eaf82612e88565b612eb98185612e93565b9350612ec9818560208601612529565b612ed281612553565b840191505092915050565b6000608082019050612ef26000830187612654565b612eff6020830186612654565b612f0c60408301856126ea565b8181036060830152612f1e8184612ea4565b905095945050505050565b600081519050612f388161247e565b92915050565b600060208284031215612f5457612f53612448565b5b6000612f6284828501612f29565b91505092915050565b7f4e487b7100000000000000000000000000000000000000000000000000000000600052601260045260246000fd5b6000612fa5826125bf565b9150612fb0836125bf565b9250828203905081811115612fc857612fc7612db1565b5b92915050565b7f4e487b7100000000000000000000000000000000000000000000000000000000600052603160045260246000fd5b60006040820190506130126000830185612654565b61301f60208301846127ca565b939250505056fea26469706673582212200a9aa46f48237191a704a31b2b06d8f5411f8d7dfbee1c1ba6147bf096d307a564736f6c63430008140033",
  "linkReferences": {},
  "deployedLinkReferences": {}
}