{
  "_format": "hh-sol-artifact-1",
  "contractName": "TicketNFT",
  "sourceName": "contracts/TicketNFT.sol",
  "abi": [
    {
      "inputs": [
        {
          "internalType": "address",
          "name": "admin",
          "type": "address"
        }
      ],
      "stateMutability": "nonpayable",
      "type": "constructor"
    },
    {
      "inputs": [],
      "name": "AccessControlBadConfirmation",
      "type": "error"
    },
    {
      "inputs": [
        {
          "internalType": "address",
          "name": "account",
          "type": "address"
        },
        {
          "internalType": "bytes32",
          "name": "neededRole",
          "type": "bytes32"
        }
      ],
      "name": "AccessControlUnauthorizedAccount",
      "type": "error"
    },
    {
      "inputs": [],
      "name": "ERC721EnumerableForbiddenBatchMint",
      "type": "error"
    },
    {
      "inputs": [
        {
          "internalType": "address",
          "name": "sender",
          "type": "address"
        },
        {
          "internalType": "uint256",
          "name": "tokenId",
          "type": "uint256"
        },
        {
          "internalType": "address",
          "name": "owner",
          "type": "address"
        }
      ],
      "name": "ERC721IncorrectOwner",
      "type": "error"
    },
    {
      "inputs": [
        {
          "internalType": "address",
          "name": "operator",
          "type": "address"
        },
        {
          "internalType": "uint256",
          "name": "tokenId",
          "type": "uint256"
        }
      ],
      "name": "ERC721InsufficientApproval",
      "type": "error"
    },
    {
      "inputs": [
        {
          "internalType": "address",
          "name": "approver",
          "type": "address"
        }
      ],
      "name": "ERC721InvalidApprover",
      "type": "error"
    },
    {
      "inputs": [
        {
          "internalType": "address",
          "name": "operator",
          "type": "address"
        }
      ],
      "name": "ERC721InvalidOperator",
      "type": "error"
    },
    {
      "inputs": [
        {
          "internalType": "address",
          "name": "owner",
          "type": "address"
        }
      ],
      "name": "ERC721InvalidOwner",
      "type": "error"
    },
    {
      "inputs": [
        {
          "internalType": "address",
          "name": "receiver",
          "type": "address"
        }
      ],
      "name": "ERC721InvalidReceiver",
      "type": "error"
    },
    {
      "inputs": [
        {
          "internalType": "address",
          "name": "sender",
          "type": "address"
        }
      ],
      "name": "ERC721InvalidSender",
      "type": "error"
    },
    {
      "inputs": [
        {
          "internalType": "uint256",
          "name": "tokenId",
          "type": "uint256"
        }
      ],
      "name": "ERC721NonexistentToken",
      "type": "error"
    },
    {
      "inputs": [
        {
          "internalType": "address",
          "name": "owner",
          "type": "address"
        },
        {
          "internalType": "uint256",
          "name": "index",
          "type": "uint256"
        }
      ],
      "name": "ERC721OutOfBoundsIndex",
      "type": "error"
    },
    {
      "anonymous": false,
      "inputs": [
        {
          "indexed": true,
          "internalType": "address",
          "name": "owner",
          "type": "address"
        },
        {
          "indexed": true,
          "internalType": "address",
          "name": "approved",
          "type": "address"
        },
        {
          "indexed": true,
          "internalType": "uint256",
          "name": "tokenId",
          "type": "uint256"
        }
      ],
      "name": "Approval",
      "type": "event"
    },
    {
      "anonymous": false,
      "inputs": [
        {
          "indexed": true,
          "internalType": "address",
          "name": "owner",
          "type": "address"
        },
        {
          "indexed": true,
          "internalType": "address",
          "name": "operator",
          "type": "address"
        },
        {
          "indexed": false,
          "internalType": "bool",
          "name": "approved",
          "type": "bool"
        }
      ],
      "name": "ApprovalForAll",
      "type": "event"
    },
    {
      "anonymous": false,
      "inputs": [
        {
          "indexed": true,
          "internalType": "bytes32",
          "name": "role",
          "type": "bytes32"
        },
        {
          "indexed": true,
          "internalType": "bytes32",
          "name": "previousAdminRole",
          "type": "bytes32"
        },
        {
          "indexed": true,
          "internalType": "bytes32",
          "name": "newAdminRole",
          "type": "bytes32"
        }
      ],
      "name": "RoleAdminChanged",
      "type": "event"
    },
    {
      "anonymous": false,
      "inputs": [
        {
          "indexed": true,
          "internalType": "bytes32",
          "name": "role",
          "type": "bytes32"
        },
        {
          "indexed": true,
          "internalType": "address",
          "name": "account",
          "type": "address"
        },
        {
          "indexed": true,
          "internalType": "address",
          "name": "sender",
          "type": "address"
        }
      ],
      "name": "RoleGranted",
      "type": "event"
    },
    {
      "anonymous": false,
      "inputs": [
        {
          "indexed": true,
          "internalType": "bytes32",
          "name": "role",
          "type": "bytes32"
        },
        {
          "indexed": true,
          "internalType": "address",
          "name": "account",
          "type": "address"
        },
        {
          "indexed": true,
          "internalType": "address",
          "name": "sender",
          "type": "address"
        }
      ],
      "name": "RoleRevoked",
      "type": "event"
    },
    {
      "anonymous": false,
      "inputs": [
        {
          "indexed": true,
          "internalType": "address",
          "name": "from",
          "type": "address"
        },
        {
          "indexed": true,
          "internalType": "address",
          "name": "to",
          "type": "address"
        },
        {
          "indexed": true,
          "internalType": "uint256",
          "name": "tokenId",
          "type": "uint256"
        }
      ],
      "name": "Transfer",
      "type": "event"
    },
    {
      "inputs": [],
      "name": "DEFAULT_ADMIN_ROLE",
      "outputs": [
        {
          "internalType": "bytes32",
          "name": "",
          "type": "bytes32"
        }
      ],
      "stateMutability": "view",
      "type": "function"
    },
    {
      "inputs": [],
      "name": "MINTER_ROLE",
      "outputs": [
        {
          "internalType": "bytes32",
          "name": "",
          "type": "bytes32"
        }
      ],
      "stateMutability": "view",
      "type": "function"
    },
    {
      "inputs": [
        {
          "internalType": "address",
          "name": "to",
          "type": "address"
        },
        {
          "internalType": "uint256",
          "name": "tokenId",
          "type": "uint256"
        }
      ],
      "name": "approve",
      "outputs": [],
      "stateMutability": "nonpayable",
      "type": "function"
    },
    {
      "inputs": [
        {
          "internalType": "address",
          "name": "owner",
          "type": "address"
        }
      ],
      "name": "balanceOf",
      "outputs": [
        {
          "internalType": "uint256",
          "name": "",
          "type": "uint256"
        }
      ],
      "stateMutability": "view",
      "type": "function"
    },
    {
      "inputs": [
        {
          "internalType": "uint256",
          "name": "tokenId",
          "type": "uint256"
        }
      ],
      "name": "getApproved",
      "outputs": [
        {
          "internalType": "address",
          "name": "",
          "type": "address"
        }
      ],
      "stateMutability": "view",
      "type": "function"
    },
    {
      "inputs": [
        {
          "internalType": "bytes32",
          "name": "role",
          "type": "bytes32"
        }
      ],
      "name": "getRoleAdmin",
      "outputs": [
        {
          "internalType": "bytes32",
          "name": "",
          "type": "bytes32"
        }
      ],
      "stateMutability": "view",
      "type": "function"
    },
    {
      "inputs": [
        {
          "internalType": "uint256",
          "name": "tokenId",
          "type": "uint256"
        }
      ],
      "name": "getTicketInfo",
      "outputs": [
        {
          "components": [
            {
              "internalType": "uint256",
              "name": "marketId",
              "type": "uint256"
            },
            {
              "internalType": "uint8",
              "name": "optionId",
              "type": "uint8"
            }
          ],
          "internalType": "struct TicketNFT.TicketInfo",
          "name": "",
          "type": "tuple"
        }
      ],
      "stateMutability": "view",
      "type": "function"
    },
    {
      "inputs": [
        {
          "internalType": "bytes32",
          "name": "role",
          "type": "bytes32"
        },
        {
          "internalType": "address",
          "name": "account",
          "type": "address"
        }
      ],
      "name": "grantRole",
      "outputs": [],
      "stateMutability": "nonpayable",
      "type": "function"
    },
    {
      "inputs": [
        {
          "internalType": "bytes32",
          "name": "role",
          "type": "bytes32"
        },
        {
          "internalType": "address",
          "name": "account",
          "type": "address"
        }
      ],
      "name": "hasRole",
      "outputs": [
        {
          "internalType": "bool",
          "name": "",
          "type": "bool"
        }
      ],
      "stateMutability": "view",
      "type": "function"
    },
    {
      "inputs": [
        {
          "internalType": "address",
          "name": "owner",
          "type": "address"
        },
        {
          "internalType": "address",
          "name": "operator",
          "type": "address"
        }
      ],
      "name": "isApprovedForAll",
      "outputs": [
        {
          "internalType": "bool",
          "name": "",
          "type": "bool"
        }
      ],
      "stateMutability": "view",
      "type": "function"
    },
    {
      "inputs": [
        {
          "internalType": "address",
          "name": "to",
          "type": "address"
        },
        {
          "internalType": "uint256",
          "name": "marketId",
          "type": "uint256"
        },
        {
          "internalType": "uint8",
          "name": "optionId",
          "type": "uint8"
        }
      ],
      "name": "mint",
      "outputs": [
        {
          "internalType": "uint256",
          "name": "tokenId",
          "type": "uint256"
        }
      ],
      "stateMutability": "nonpayable",
      "type": "function"
    },
    {
      "inputs": [],
      "name": "name",
      "outputs": [
        {
          "internalType": "string",
          "name": "",
          "type": "string"
        }
      ],
      "stateMutability": "view",
      "type": "function"
    },
    {
      "inputs": [
        {
          "internalType": "uint256",
          "name": "tokenId",
          "type": "uint256"
        }
      ],
      "name": "ownerOf",
      "outputs": [
        {
          "internalType": "address",
          "name": "",
          "type": "address"
        }
      ],
      "stateMutability": "view",
      "type": "function"
    },
    {
      "inputs": [
        {
          "internalType": "bytes32",
          "name": "role",
          "type": "bytes32"
        },
        {
          "internalType": "address",
          "name": "callerConfirmation",
          "type": "address"
        }
      ],
      "name": "renounceRole",
      "outputs": [],
      "stateMutability": "nonpayable",
      "type": "function"
    },
    {
      "inputs": [
        {
          "internalType": "bytes32",
          "name": "role",
          "type": "bytes32"
        },
        {
          "internalType": "address",
          "name": "account",
          "type": "address"
        }
      ],
      "name": "revokeRole",
      "outputs": [],
      "stateMutability": "nonpayable",
      "type": "function"
    },
    {
      "inputs": [
        {
          "internalType": "address",
          "name": "from",
          "type": "address"
        },
        {
          "internalType": "address",
          "name": "to",
          "type": "address"
        },
        {
          "internalType": "uint256",
          "name": "tokenId",
          "type": "uint256"
        }
      ],
      "name": "safeTransferFrom",
      "outputs": [],
      "stateMutability": "nonpayable",
      "type": "function"
    },
    {
      "inputs": [
        {
          "internalType": "address",
          "name": "from",
          "type": "address"
        },
        {
          "internalType": "address",
          "name": "to",
          "type": "address"
        },
        {
          "internalType": "uint256",
          "name": "tokenId",
          "type": "uint256"
        },
        {
          "internalType": "bytes",
          "name": "data",
          "type": "bytes"
        }
      ],
      "name": "safeTransferFrom",
      "outputs": [],
      "stateMutability": "nonpayable",
      "type": "function"
    },
    {
      "inputs": [
        {
          "internalType": "address",
          "name": "operator",
          "type": "address"
        },
        {
          "internalType": "bool",
          "name": "approved",
          "type": "bool"
        }
      ],
      "name": "setApprovalForAll",
      "outputs": [],
      "stateMutability": "nonpayable",
      "type": "function"
    },
    {
      "inputs": [
        {
          "internalType": "bytes4",
          "name": "interfaceId",
          "type": "bytes4"
        }
      ],
      "name": "supportsInterface",
      "outputs": [
        {
          "internalType": "bool",
          "name": "",
          "type": "bool"
        }
      ],
      "stateMutability": "view",
      "type": "function"
    },
    {
      "inputs": [],
      "name": "symbol",
      "outputs": [
        {
          "internalType": "string",
          "name": "",
          "type": "string"
        }
      ],
      "stateMutability": "view",
      "type": "function"
    },
    {
      "inputs": [
        {
          "internalType": "uint256",
          "name": "",
          "type": "uint256"
        }
      ],
      "name": "ticketInfo",
      "outputs": [
        {
          "internalType": "uint256",
          "name": "marketId",
          "type": "uint256"
        },
        {
          "internalType": "uint8",
          "name": "optionId",
          "type": "uint8"
        }
      ],
      "stateMutability": "view",
      "type": "function"
    },
    {
      "inputs": [
        {
          "internalType": "uint256",
          "name": "index",
          "type": "uint256"
        }
      ],
      "name": "tokenByIndex",
      "outputs": [
        {
          "internalType": "uint256",
          "name": "",
          "type": "uint256"
        }
      ],
      "stateMutability": "view",
      "type": "function"
    },
    {
      "inputs": [
        {
          "internalType": "address",
          "name": "owner",
          "type": "address"
        },
        {
          "internalType": "uint256",
          "name": "index",
          "type": "uint256"
        }
      ],
      "name": "tokenOfOwnerByIndex",
      "outputs": [
        {
          "internalType": "uint256",
          "name": "",
          "type": "uint256"
        }
      ],
      "stateMutability": "view",
      "type": "function"
    },
    {
      "inputs": [
        {
          "internalType": "uint256",
          "name": "tokenId",
          "type": "uint256"
        }
      ],
      "name": "tokenURI",
      "outputs": [
        {
          "internalType": "string",
          "name": "",
          "type": "string"
        }
      ],
      "stateMutability": "view",
      "type": "function"
    },
    {
      "inputs": [
        {
          "internalType": "address",
          "name": "owner",
          "type": "address"
        }
      ],
      "name": "tokensOfOwner",
      "outputs": [
        {
          "internalType": "uint256[]",
          "name": "",
          "type": "uint256[]"
        }
      ],
      "stateMutability": "view",
      "type": "function"
    },
    {
      "inputs": [],
      "name": "totalSupply",
      "outputs": [
        {
          "internalType": "uint256",
          "name": "",
          "type": "uint256"
        }
      ],
      "stateMutability": "view",
      "type": "function"
    },
    {
      "inputs": [
        {
          "internalType": "address",
          "name": "from",
          "type": "address"
        },
        {
          "internalType": "address",
          "name": "to",
          "type": "address"
        },
        {
          "internalType": "uint256",
          "name": "tokenId",
          "type": "uint256"
        }
      ],
      "name": "transferFrom",
      "outputs": [],
      "stateMutability": "nonpayable",
      "type": "function"
    }
  ],
  "bytecode": "0x60806040526001600c553480156200001657600080fd5b5060405162001cbb38038062001cbb833981016040819052620000399162000169565b6040518060400160405280600e81526020016d11585cde50995d08151a58dad95d60921b8152506040518060400160405280600381526020016211509560ea1b81525081600090816200008d919062000240565b5060016200009c828262000240565b50620000ae91506000905082620000b6565b50506200030c565b6000828152600a602090815260408083206001600160a01b038516845290915281205460ff166200015f576000838152600a602090815260408083206001600160a01b03861684529091529020805460ff19166001179055620001163390565b6001600160a01b0316826001600160a01b0316847f2f8788117e7eff1d82e926ec794901d17c78024a50270940304540a733656f0d60405160405180910390a450600162000163565b5060005b92915050565b6000602082840312156200017c57600080fd5b81516001600160a01b03811681146200019457600080fd5b9392505050565b634e487b7160e01b600052604160045260246000fd5b600181811c90821680620001c657607f821691505b602082108103620001e757634e487b7160e01b600052602260045260246000fd5b50919050565b601f8211156200023b57600081815260208120601f850160051c81016020861015620002165750805b601f850160051c820191505b81811015620002375782815560010162000222565b5050505b505050565b81516001600160401b038111156200025c576200025c6200019b565b62000274816200026d8454620001b1565b84620001ed565b602080601f831160018114620002ac5760008415620002935750858301515b600019600386901b1c1916600185901b17855562000237565b600085815260208120601f198616915b82811015620002dd57888601518255948401946001909101908401620002bc565b5085821015620002fc5787850151600019600388901b60f8161c191681555b5050505050600190811b01905550565b61199f806200031c6000396000f3fe608060405234801561001057600080fd5b50600436106101a95760003560e01c80636352211e116100f9578063b88d4fde11610097578063d547741f11610071578063d547741f146103ae578063e985e9c5146103c1578063fa713083146103d4578063ff99a0631461041557600080fd5b8063b88d4fde14610361578063c87b56dd14610374578063d53913931461038757600080fd5b806391d14854116100d357806391d148541461032b57806395d89b411461033e578063a217fddf14610346578063a22cb4651461034e57600080fd5b80636352211e146102e557806370a08231146102f85780638462151c1461030b57600080fd5b8063248a9ca31161016657806336568abe1161014057806336568abe1461029957806342842e0e146102ac5780634f6ccce7146102bf5780636112e8ac146102d257600080fd5b8063248a9ca3146102505780632f2ff15d146102735780632f745c591461028657600080fd5b806301ffc9a7146101ae57806306fdde03146101d6578063081812fc146101eb578063095ea7b31461021657806318160ddd1461022b57806323b872dd1461023d575b600080fd5b6101c16101bc3660046114f4565b610482565b60405190151581526020015b60405180910390f35b6101de610493565b6040516101cd9190611561565b6101fe6101f9366004611574565b610525565b6040516001600160a01b0390911681526020016101cd565b6102296102243660046115a9565b61054e565b005b6008545b6040519081526020016101cd565b61022961024b3660046115d3565b61055d565b61022f61025e366004611574565b6000908152600a602052604090206001015490565b61022961028136600461160f565b6105ed565b61022f6102943660046115a9565b610612565b6102296102a736600461160f565b610677565b6102296102ba3660046115d3565b6106af565b61022f6102cd366004611574565b6106ca565b61022f6102e036600461163b565b610723565b6101fe6102f3366004611574565b6107b6565b61022f610306366004611681565b6107c1565b61031e610319366004611681565b610809565b6040516101cd919061169c565b6101c161033936600461160f565b6108ab565b6101de6108d6565b61022f600081565b61022961035c3660046116e0565b6108e5565b61022961036f366004611732565b6108f0565b6101de610382366004611574565b610908565b61022f7f9f2df0fed2c77648de5860a4cc508cd0818c85b8b8a1ab4ceeef8d981c8956a681565b6102296103bc36600461160f565b61097d565b6101c16103cf36600461180e565b6109a2565b6103fe6103e2366004611574565b600b602052600090815260409020805460019091015460ff1682565b6040805192835260ff9091166020830152016101cd565b610464610423366004611574565b6040805180820190915260008082526020820152506000908152600b60209081526040918290208251808401909352805483526001015460ff169082015290565b604080518251815260209283015160ff1692810192909252016101cd565b600061048d826109d0565b92915050565b6060600080546104a290611838565b80601f01602080910402602001604051908101604052809291908181526020018280546104ce90611838565b801561051b5780601f106104f05761010080835404028352916020019161051b565b820191906000526020600020905b8154815290600101906020018083116104fe57829003601f168201915b5050505050905090565b6000610530826109f5565b506000828152600460205260409020546001600160a01b031661048d565b610559828233610a2e565b5050565b6001600160a01b03821661058c57604051633250574960e11b8152600060048201526024015b60405180910390fd5b6000610599838333610a3b565b9050836001600160a01b0316816001600160a01b0316146105e7576040516364283d7b60e01b81526001600160a01b0380861660048301526024820184905282166044820152606401610583565b50505050565b6000828152600a602052604090206001015461060881610b10565b6105e78383610b1d565b600061061d836107c1565b821061064e5760405163295f44f760e21b81526001600160a01b038416600482015260248101839052604401610583565b506001600160a01b03919091166000908152600660209081526040808320938352929052205490565b6001600160a01b03811633146106a05760405163334bd91960e11b815260040160405180910390fd5b6106aa8282610bb1565b505050565b6106aa838383604051806020016040528060008152506108f0565b60006106d560085490565b82106106fe5760405163295f44f760e21b81526000600482015260248101839052604401610583565b6008828154811061071157610711611872565b90600052602060002001549050919050565b60007f9f2df0fed2c77648de5860a4cc508cd0818c85b8b8a1ab4ceeef8d981c8956a661074f81610b10565b600c805490600061075f8361189e565b91905055915061076f8583610c1e565b5060408051808201825293845260ff92831660208086019182526000848152600b9091529190912093518455516001909301805460ff191693909216929092179055919050565b600061048d826109f5565b60006001600160a01b0382166107ed576040516322718ad960e21b815260006004820152602401610583565b506001600160a01b031660009081526003602052604090205490565b60606000610816836107c1565b905060008167ffffffffffffffff8111156108335761083361171c565b60405190808252806020026020018201604052801561085c578160200160208202803683370190505b50905060005b828110156108a3576108748582610612565b82828151811061088657610886611872565b60209081029190910101528061089b8161189e565b915050610862565b509392505050565b6000918252600a602090815260408084206001600160a01b0393909316845291905290205460ff1690565b6060600180546104a290611838565b610559338383610c38565b6108fb84848461055d565b6105e73385858585610cd7565b6060610913826109f5565b50600061092b60408051602081019091526000815290565b9050600081511161094b5760405180602001604052806000815250610976565b8061095584610e02565b6040516020016109669291906118b7565b6040516020818303038152906040525b9392505050565b6000828152600a602052604090206001015461099881610b10565b6105e78383610bb1565b6001600160a01b03918216600090815260056020908152604080832093909416825291909152205460ff1690565b60006001600160e01b03198216637965db0b60e01b148061048d575061048d82610e95565b6000818152600260205260408120546001600160a01b03168061048d57604051637e27328960e01b815260048101849052602401610583565b6106aa8383836001610eba565b600080610a49858585610fc0565b90506001600160a01b038116610aa657610aa184600880546000838152600960205260408120829055600182018355919091527ff3f7a9fe364faab93b216da50a3214154f22a0a2b415b23a84c8169e8b636ee30155565b610ac9565b846001600160a01b0316816001600160a01b031614610ac957610ac981856110b9565b6001600160a01b038516610ae557610ae08461113a565b610b08565b846001600160a01b0316816001600160a01b031614610b0857610b0885856111e9565b949350505050565b610b1a8133611239565b50565b6000610b2983836108ab565b610ba9576000838152600a602090815260408083206001600160a01b03861684529091529020805460ff19166001179055610b613390565b6001600160a01b0316826001600160a01b0316847f2f8788117e7eff1d82e926ec794901d17c78024a50270940304540a733656f0d60405160405180910390a450600161048d565b50600061048d565b6000610bbd83836108ab565b15610ba9576000838152600a602090815260408083206001600160a01b0386168085529252808320805460ff1916905551339286917ff6391f5c32d9c69d2a47ea670b442974b53935d1edc7fd64eb21e047a839171b9190a450600161048d565b610559828260405180602001604052806000815250611272565b6001600160a01b038216610c6a57604051630b61174360e31b81526001600160a01b0383166004820152602401610583565b6001600160a01b03838116600081815260056020908152604080832094871680845294825291829020805460ff191686151590811790915591519182527f17307eab39ab6107e8899845ad3d59bd9653f200f220920489ca2b5937696c31910160405180910390a3505050565b6001600160a01b0383163b15610dfb57604051630a85bd0160e11b81526001600160a01b0384169063150b7a0290610d199088908890879087906004016118e6565b6020604051808303816000875af1925050508015610d54575060408051601f3d908101601f19168201909252610d5191810190611923565b60015b610dbd573d808015610d82576040519150601f19603f3d011682016040523d82523d6000602084013e610d87565b606091505b508051600003610db557604051633250574960e11b81526001600160a01b0385166004820152602401610583565b805160208201fd5b6001600160e01b03198116630a85bd0160e11b14610df957604051633250574960e11b81526001600160a01b0385166004820152602401610583565b505b5050505050565b60606000610e0f8361128a565b600101905060008167ffffffffffffffff811115610e2f57610e2f61171c565b6040519080825280601f01601f191660200182016040528015610e59576020820181803683370190505b5090508181016020015b600019016f181899199a1a9b1b9c1cb0b131b232b360811b600a86061a8153600a8504945084610e6357509392505050565b60006001600160e01b0319821663780e9d6360e01b148061048d575061048d82611362565b8080610ece57506001600160a01b03821615155b15610f90576000610ede846109f5565b90506001600160a01b03831615801590610f0a5750826001600160a01b0316816001600160a01b031614155b8015610f1d5750610f1b81846109a2565b155b15610f465760405163a9fbf51f60e01b81526001600160a01b0384166004820152602401610583565b8115610f8e5783856001600160a01b0316826001600160a01b03167f8c5be1e5ebec7d5bd14f71427d1e84f3dd0314c0f7b2291e5b200ac8c7c3b92560405160405180910390a45b505b5050600090815260046020526040902080546001600160a01b0319166001600160a01b0392909216919091179055565b6000828152600260205260408120546001600160a01b0390811690831615610fed57610fed8184866113b2565b6001600160a01b0381161561102b5761100a600085600080610eba565b6001600160a01b038116600090815260036020526040902080546000190190555b6001600160a01b0385161561105a576001600160a01b0385166000908152600360205260409020805460010190555b60008481526002602052604080822080546001600160a01b0319166001600160a01b0389811691821790925591518793918516917fddf252ad1be2c89b69c2b068fc378daa952ba7f163c4a11628f55a4df523b3ef91a4949350505050565b60006110c4836107c1565b6000838152600760209081526040808320546001600160a01b038816845260069092529091209192509081831461111b57600083815260208281526040808320548584528184208190558352600790915290208290555b6000938452600760209081526040808620869055938552525081205550565b60085460009061114c90600190611940565b6000838152600960205260408120546008805493945090928490811061117457611174611872565b90600052602060002001549050806008838154811061119557611195611872565b60009182526020808320909101929092558281526009909152604080822084905585825281205560088054806111cd576111cd611953565b6001900381819060005260206000200160009055905550505050565b600060016111f6846107c1565b6112009190611940565b6001600160a01b039093166000908152600660209081526040808320868452825280832085905593825260079052919091209190915550565b61124382826108ab565b6105595760405163e2517d3f60e01b81526001600160a01b038216600482015260248101839052604401610583565b61127c8383611416565b6106aa336000858585610cd7565b60008072184f03e93ff9f4daa797ed6e38ed64bf6a1f0160401b83106112c95772184f03e93ff9f4daa797ed6e38ed64bf6a1f0160401b830492506040015b6d04ee2d6d415b85acef810000000083106112f5576d04ee2d6d415b85acef8100000000830492506020015b662386f26fc10000831061131357662386f26fc10000830492506010015b6305f5e100831061132b576305f5e100830492506008015b612710831061133f57612710830492506004015b60648310611351576064830492506002015b600a831061048d5760010192915050565b60006001600160e01b031982166380ac58cd60e01b148061139357506001600160e01b03198216635b5e139f60e01b145b8061048d57506301ffc9a760e01b6001600160e01b031983161461048d565b6113bd83838361147b565b6106aa576001600160a01b0383166113eb57604051637e27328960e01b815260048101829052602401610583565b60405163177e802f60e01b81526001600160a01b038316600482015260248101829052604401610583565b6001600160a01b03821661144057604051633250574960e11b815260006004820152602401610583565b600061144e83836000610a3b565b90506001600160a01b038116156106aa576040516339e3563760e11b815260006004820152602401610583565b60006001600160a01b03831615801590610b085750826001600160a01b0316846001600160a01b031614806114b557506114b584846109a2565b80610b085750506000908152600460205260409020546001600160a01b03908116911614919050565b6001600160e01b031981168114610b1a57600080fd5b60006020828403121561150657600080fd5b8135610976816114de565b60005b8381101561152c578181015183820152602001611514565b50506000910152565b6000815180845261154d816020860160208601611511565b601f01601f19169290920160200192915050565b6020815260006109766020830184611535565b60006020828403121561158657600080fd5b5035919050565b80356001600160a01b03811681146115a457600080fd5b919050565b600080604083850312156115bc57600080fd5b6115c58361158d565b946020939093013593505050565b6000806000606084860312156115e857600080fd5b6115f18461158d565b92506115ff6020850161158d565b9150604084013590509250925092565b6000806040838503121561162257600080fd5b823591506116326020840161158d565b90509250929050565b60008060006060848603121561165057600080fd5b6116598461158d565b925060208401359150604084013560ff8116811461167657600080fd5b809150509250925092565b60006020828403121561169357600080fd5b6109768261158d565b6020808252825182820181905260009190848201906040850190845b818110156116d4578351835292840192918401916001016116b8565b50909695505050505050565b600080604083850312156116f357600080fd5b6116fc8361158d565b91506020830135801515811461171157600080fd5b809150509250929050565b634e487b7160e01b600052604160045260246000fd5b6000806000806080858703121561174857600080fd5b6117518561158d565b935061175f6020860161158d565b925060408501359150606085013567ffffffffffffffff8082111561178357600080fd5b818701915087601f83011261179757600080fd5b8135818111156117a9576117a961171c565b604051601f8201601f19908116603f011681019083821181831017156117d1576117d161171c565b816040528281528a60208487010111156117ea57600080fd5b82602086016020830137600060208483010152809550505050505092959194509250565b6000806040838503121561182157600080fd5b61182a8361158d565b91506116326020840161158d565b600181811c9082168061184c57607f821691505b60208210810361186c57634e487b7160e01b600052602260045260246000fd5b50919050565b634e487b7160e01b600052603260045260246000fd5b634e487b7160e01b600052601160045260246000fd5b6000600182016118b0576118b0611888565b5060010190565b600083516118c9818460208801611511565b8351908301906118dd818360208801611511565b01949350505050565b6001600160a01b038581168252841660208201526040810183905260806060820181905260009061191990830184611535565b9695505050505050565b60006020828403121561193557600080fd5b8151610976816114de565b8181038181111561048d5761048d611888565b634e487b7160e01b600052603160045260246000fdfea26469706673582212209325443a70b6305f707753c86720ac32955ba4230311725edf399d5f575e30b064736f6c63430008140033",
  "linkReferences": {},
  "deployedLinkReferences": {}
}